:100000000C94E7060C942B070C942B070C942B07ED
:100010000C942B070C942B070C942B070C942B0798
:100020000C942B070C942B070C94E32B0C94B52CFD
:100030000C945F220C942B070C942B070C942B0729
:100040000C942B070C942B070C942B070C942B0768
:100050000C942B070C94C6220C942B070C942B07A2
:100060000C942B070C942B070C942B070C942B0748
:100070000C942B070C942B070C942B070C942B0738
:100080000C942B070C942B070C942B070C942B0728
:100090000C942B070C942B070C942B070C942B0718
:1000A0000C942B070C942B070C942B074907530730
:1000B0005D07670770077A07850749084F085308E7
:1000C00056085A085E08620866086B086F087308CD
:1000D00077087A087E08820886088A088F0811182F
:1000E00011184B184B188E18B018461A461AF618E5
:1000F000461A9D199D19141A1B1A461A411AAA1953
:10010000AA19AA19AA19AA19AA19AA19AA19AA19D7
:10011000AA19AA19AA19AA19AA19AA19AA19BC19B5
:10012000CC19D319DA19E419DA1ADA1AED1AED1A18
:10013000E31AED1AED1AED1ADA1ADA1AE91AED1ABB
:10014000ED1AE91A1A2D412D2F2E412D2F2E892D12
:10015000AC2D2F2E022E112E07634236B79BD8A747
:100160001A39685618AEBAAB558C1D3CB7CC5763DC
:10017000BD6DEDFD753EF6177231BF000000803F8A
:1001800005A84CCDB2D44EB93836A9020C50B9915D
:100190008688083CA6AAAA2ABE000000803F01E388
:1001A000010F740F02E3020F0000F001F002F003F0
:1001B000F004F005F006F029001E001F00200021C9
:1001C000002200230024002500260027002D002EF9
:1001D0000035002A002B00000014001A000800154A
:1001E0000017001C0018000C00120013002F003034
:1001F0000031003900000004001600070009000A61
:10020000000B000D000E000F00330034002800002A
:1002100000E100E1001D001B0006001900050011AF
:10022000001000360037000000380252004C00E099
:1002300000E3000000E2002C000000025100002C4E
:10024000000000E2000151500051004F0001003A4F
:10025000003B003C003D003E003F004000410042AA
:1002600000430044004500010001000100000001BE
:100270000001000100010001000100010001000176
:100280000001000100010001000100000001000167
:100290000001000100010001000100010001000156
:1002A0000001000100000001000100010001000147
:1002B0000001000100010001000100010000000038
:1002C00030010001000100010000000100010000F8
:1002D0000001000000010000000100010001000118
:1002E0000001000100010001000100010001000106
:1002F00000010001000100010001000100010001F6
:100300000001000000C05CC15CC45CC35CC65CC58D
:100310005CC85CC75C010001000100010001000134
:10032000000000AA00A900AC00AB00AE0001000173
:1003300000010001000100010001000000010001B6
:100340000032000100010001000100010001000174
:100350000001000000010001000100010001000097
:100360000001000100000001000000010000000188
:100370000001000100010001000100010001000175
:100380000001000100010001000100010001000165
:100390000001000100010001000000010001000156
:1003A0000001000100010001000100010001000145
:1003B0000001000100010000000100010001000136
:1003C0000001000100010001000100010001000125
:1003D0000000000100010001000100010001000116
:1003E0000001000100010001000000010001000106
:1003F00000010001000000010001000000010000F8
:1004000000010000000100010001000100010001E5
:1004100000010001000100010001000100010001D4
:1004200000010001000100010001000100010000C5
:1004300000010001000100010001000100010001B4
:1004400000010001000100010001000100000001A5
:100450000001000100010001000100010001000194
:100460000001000100010000000100010001000185
:100470000001000100010001000100010001000075
:100480000001000100010001000100000001000165
:100490000000000100000001000000010001000157
:1004A0000001000100010001000100010001000144
:1004B0000001000100010001000100010001000134
:1004C0000001000100000001000100010001000125
:1004D0000001000100010001000100010001000114
:1004E0000001000000010001000100010001000105
:1004F00000010001000100010001000100000001F5
:1005000000010001000100010001000100010001E3
:1005100000010001000000010001000100010001D4
:1005200000000001000100000001000000010000C7
:1005300000010001000100010001000100010001B3
:1005400000010001000100010001000100010001A3
:100550000001000100010001000100000001000194
:100560000001000100010001000100010001000183
:100570000001000100010001000000010001000174
:100580000001000100010001000100010001000163
:100590000001000000010001000100010001000154
:1005A0000001000100010001000100000001000144
:1005B0000001000100010000000100010000000135
:1005C0000000000100000001000100010001000125
:1005D0000001000100010001000100010001000113
:1005E0000001000100010001000100010001000103
:1005F00000000001000100010001000100010001F4
:1006000000010001000100010001000100010000E3
:1006100000010001000100010001000100010001D2
:1006200000010001000100010000000100010001C3
:1006300000010001000100010001000100010001B2
:1006400000000001000100010001000100000001A4
:100650000001000000010000000100000001000195
:100660000001000100010001000100010001000182
:100670000001000100010001000100010001000172
:100680000001000100010000000100010001000163
:100690000001000100010001000100010001000152
:1006A0000001000100000001000100010001000143
:1006B0000001000100010001000100010001000033
:1006C0000001000100010001000100010001000122
:1006D0000001000100010000000100010001000113
:1006E0000001000000010001000000010000000105
:1006F00000000001000100010001000100010001F3
:1007000000010001000100010001000100010001E1
:1007100000010001000100010001000100000001D2
:1007200000010001000100010001000100010001C1
:1007300000010001000100010001000000010001B2
:1007400000010001000100010001000100010001A1
:100750000001000100000001000100010001000192
:100760000001000100010001000100010000000182
:100770000001000100010001000000010001000073
:100780000001000000010000000100010001000163
:100790000001000100010001000100010001000151
:1007A0000001000100010001000100010001000141
:1007B0000001000000010001000100010001000132
:1007C0000001000100010001000100010001000121
:1007D0000000000100010001000100010001000112
:1007E0000001000100010001000100000001000102
:1007F00000010001000100010001000100010001F1
:1008000000010000000100010001000100010000E2
:1008100000010001000000010000000100000001D3
:1008200000010001000100010001000100010001C0
:1008300000010001000100010001000100010001B0
:1008400000010001000100010000000100010001A1
:100850000001000100010001000100010001000190
:100860000001000100010000000100010001000181
:100870000001000100010001000100010001000170
:100880000000000100010001000100010001000161
:100890000001000100010001000000010001000151
:1008A0000001000100000001000100000001000043
:1008B0000001000000010001000100010001000131
:1008C0000001000100010001000100010001000120
:1008D0000001000100010001000100010001000011
:1008E0000001000100010001000100010001000100
:1008F00000010001000100010001000100000001F1
:1009000000010001000100010001000100010001DF
:1009100000010001000100000001000100010001D0
:1009200000010001000100010001000100010000C0
:1009300000010001000100010001000000010001B0
:1009400000000001000000010000000100010001A2
:10095000000100010001000100010001000100018F
:10096000000100010001000100010001000100017F
:100970000001000100000001000100010001000170
:10098000000100010001000100010001000100015F
:100990000001000000010001000100010001000150
:1009A0000001000100010001000100010000000140
:1009B000000100010001000100010001000100012F
:1009C0000001000100000001000100010001000120
:1009D0000000000100010000000100000001000013
:1009E00000010001000100010001000100010001FF
:1009F00000010001000100010001000100010001EF
:100A000000010001000100010001000000010001DF
:100A100000010001000100010001000100010001CE
:100A200000010001000100010000000100010001BF
:100A300000010001000100010001000100010001AE
:100A4000000100000001000100010001000100019F
:100A5000000100010001000100010000000100018F
:100A60000001000100010000000100010000000180
:100A70000000000100000001000100010001000170
:100A8000000100010001000100010001000100015E
:100A9000000100010001000100010001000100014E
:100AA000000000010001000100010001000100013F
:100AB000000100010001000100010001000100002F
:100AC000000100010001000100010001000100011E
:100AD000000100010001000100000001000100010F
:100AE00000010001000100010001000100010001FE
:100AF00000000001000100010001000100000001F0
:100B000000010000000100000001000000010001E0
:100B10000001000100010000046801F000B4007849
:100B2000005A007F3F1F643214643214783C1E1E4A
:100B3000140A05000000000001010101010101018A
:100B40000102020202020202020203030303030380
:100B5000030304040404040405050505050606064C
:100B6000060607070707080808080909090A0A0A04
:100B70000A0B0B0B0C0C0C0D0D0D0E0E0F0F0F10A6
:100B8000101111111212131314141515161617172C
:100B9000181819191A1A1B1C1C1D1D1E1F1F202096
:100BA0002122222324252526272728292A2B2B2CDE
:100BB0002D2E2F2F30313233343536363738393AFF
:100BC0003B3C3D3E3F4041424344464748494A4BF7
:100BD0004C4D4F50515253555657585A5B5C5E5FBF
:100BE000606263646667696A6C6D6E707173747657
:100BF00078797B7C7E8081838486888A8B8D8F91B7
:100C0000929496989A9B9D9FA1A3A5A7A9ABADAFDF
:100C1000B1B3B5B7B9BBBDBFC1C4C6C8CACCCFD1CB
:100C2000D3D6D8DADCDFE1E4E6E8EBEDF0F2F5F775
:100C3000FAFCFF0403300000000A0364007A003667
:100C40000030000000080364006F0075000000041D
:100C500003090409026D00040100A0FA0904000060
:100C600001030101000921110100012240000705D3
:100C7000810308000A09040100010301020009219F
:100C800011010001224D000705820308000A090432
:100C900002000103000000092111010001223600B9
:100CA0000705830308000A0904030001030000008C
:100CB00009211101000122390007058403200001E8
:100CC0001201100100000008EDFE60600100010249
:100CD000030105010906A101050719E029E715002F
:100CE0002501950875018102050819012905950559
:100CF000750191029501750391010507190029F706
:100D00001500250195F875018102C005010980A132
:100D10000185021601002603001A81002A8300754E
:100D20001095018100C0050C0901A1018503160180
:100D300000269C021A01002A9C0275109501810070
:100D4000C005010902A1010901A100050919012934
:100D50000515002501950575018102950175038131
:100D6000010501093009311581257F95027508813A
:100D70000609381581257F950175088106050C0A3D
:100D800038021581257F950175088106C0C00501CF
:100D90000906A101050719E029E7150025019508B5
:100DA0007501810295017508810105081901290560
:100DB00095057501910295017503910105071900CB
:100DC00029FF150026FF00950675088100C0112433
:100DD0001FBECFEFDAE0DEBFCDBF04B603FE24C0F6
:100DE0008091A7029091A802A091A902B091AA02B5
:100DF0008730904BA740B04BB9F41092A7021092E5
:100E0000A8021092A9021092AA0214BE84B7877F8A
:100E100084BF88E10FB6F894809360001092600060
:100E20000FBEE0E0F8E3099511E0A0E0B1E0EEE6E6
:100E3000F4E602C005900D92AE33B107D9F722E077
:100E4000AEE3B1E001C01D92A73AB207E1F70E94FC
:100E50000D290C9435320C940000611104C0FC0182
:100E60008281811103C080E090E008958EE991E0D5
:100E7000089508950895462F50E04730510508F031
:100E800050C0FA01EA5AFF4FDC0112968C910C9483
:100E9000CD31882309F445C00E94A91181E00E9448
:100EA000931140E03AC08823E1F10E94A91181E04A
:100EB0000E94931140E061E631C0882391F10E94C5
:100EC000A91181E00E94931140E06FEF27C08823B1
:100ED00041F10E94A91181E00E94931140E008C0F5
:100EE0008823F9F00E94A91181E00E9493114FEF2D
:100EF0006FEF09C08823A9F00E94A91181E00E9428
:100F000093114FEF60E080E00AC0882351F00E9407
:100F1000A91181E00E94931140EF60E08FEF0C94E3
:100F2000B70F089581FF02C0229A01C022982A9823
:100F3000089581E0089581E008950C949B070E9434
:100F4000C81A2FEF84E39CE0215080409040E1F7E5
:100F500000C000000C94EC22FF920F931F93CF93DC
:100F6000DF938C01FC01C081D181809196018111B8
:100F700013C08281882349F0CE010E941E20F82EE2
:100F8000682FCE010E94C41F04C0CE010E94F21F30
:100F9000F82EBE018F2D04C0CE010E941E20BE017E
:100FA0000E94E40AEC01B8010E949D07882309F41D
:100FB00090C2B801CE010E947A0D882309F489C23B
:100FC000C93CFCE5DF0741F4F8018281882309F47C
:100FD00080C20E94710F7DC2CA3C8CE5D80708F020
:100FE00037C1C13C9CE5D90761F4F80182818823AF
:100FF00009F46FC20E94F0208272F1F00E94A011E9
:1010000068C2C23CECE5DE07D0F0F8018281C53C45
:10101000FCE5DF0709F4F1C008F001C1C33CECE5D1
:10102000DE0709F4F0C008F0F4C0882309F451C2C7
:101030000E94F020827211F30E9496114AC2C531BB
:10104000FCE5DF0708F0A4C0C2308CE5D80708F43F
:1010500078C0F8018281882309F47FC00E94522160
:10106000811102C00E942C210E946F2190E0909378
:10107000980280939702FE01E350FC45E231F105AE
:1010800020F4E35AFF4F0C94CD3180919702816098
:1010900003C0809197028260809397024BC0809139
:1010A00097028460F9CF8091970213C080919702D4
:1010B0008061F2CF809197028062EECF809197029B
:1010C0008064EACF809197028068E6CF8091970292
:1010D00084608860E1CF809197028E7FDDCF809120
:1010E00097028D7FD9CF809197028B7FD5CF80914A
:1010F000970213C0809197028F7ECECF8091970286
:101100008F7DCACF809197028F7BC6CF8091970247
:101110008F77C2CF809197028B7F877FBDCF9091D1
:10112000970297FB882780F921E0822780FB97F9B7
:1011300090939702809197020E9473210E94C81A8F
:10114000C8C1C1159CE5D90781F0C130DC45A9F0C3
:1011500081E08093430180934401C801DF91CF91E6
:101160001F910F91FF900C949907F80182818823B9
:1011700009F4AFC10E949F07ACC1F80182818823A6
:1011800009F4A7C180912E02816080932E02A1C133
:10119000C531FCE5DF0729F50E94F020382FF80162
:1011A00022818091020190910301222371F03A7A09
:1011B00021E009F420E020933E01222311F065E3B1
:1011C00001C069E20E94E82109C020913E0122236A
:1011D00011F065E301C069E20E94F3210E94BD2085
:1011E00078C1C03CDC4509F0B3CFF8018281882387
:1011F00009F46FC10E9401126CC1882309F469C10E
:101200000E94D91066C1882309F463C10E94A1100D
:1012100060C1882309F45DC10E94BA105AC1C73C5D
:101220009CE5D90731F4882309F453C10E940E11BB
:1012300050C1C83CDC4530F4882309F44AC10E94FF
:10124000F41047C1882309F444C10E94291141C107
:10125000C13DFCE5DF0749F4F8018281882309F4E8
:1012600038C188E10E94931134C1C23D8CE5D80792
:1012700008F087C0F8018281CD3CFCE5DF07A1F4CE
:10128000882309F426C10E94630F66307105810529
:10129000910540F00E94630F68307105810591054A
:1012A00008F4CACE86E0DECFCE3C9CE5D90730F507
:1012B000CB3CECE5DE0729F4882309F40AC181E080
:1012C000D1CFCC3CDC4530F4882309F402C10E9424
:1012D000860FFFC0882309F4FCC00E94630F6230B0
:1012E00071058105910540F00E94630F653071051D
:1012F0008105910508F4A0CE82E0B4CFCF3C9CE5F7
:10130000D907A1F4882309F4E4C00E94630F6F3069
:1013100071058105910540F00E94630F64317105EC
:101320008105910508F488CE8FE09CCFC03DDC4557
:10133000A0F4882309F4CDC00E94630F69307105C1
:101340008105910540F00E94630F6E3071058105A3
:10135000910508F471CE89E085CF882309F4B9C0DE
:101360000E94630F653171058105910540F00E946F
:10137000630F673171058105910508F45DCE85E144
:1013800071CFC53DFCE5DF0739F5F801828188237F
:1013900061F0109244010E94912290934201809347
:1013A000410180E20E94C11794C0809144018111E3
:1013B0000FC080914101909142010E949D22883C82
:1013C000910530F487E20E94681687E20E94601758
:1013D00080E20E94C8177DC0C63D8CE5D80708F0A2
:1013E00043C0F8018281C33DFCE5DF0729F488236F
:1013F00009F46FC083E236CFC43DDC45A0F48823F6
:1014000009F467C00E94630F693171058105910578
:1014100040F00E94630F623271058105910508F466
:101420000BCE89E11FCF882351F0109243010E9417
:1014300091229093400180933F0182E0B3CF80914D
:10144000430181110FC080913F01909140010E94A2
:101450009D22883C910530F486E20E94681686E25F
:101460000E94601782E0B5CFC93DECE5DE0731F49C
:10147000F8018281882369F180E009C0CA3DFCE55A
:10148000DF0741F4F8018281882319F182E00E948C
:10149000A9291FC0C63DDC4509F05ACEF80182815A
:1014A000811177CF80914401811192CF80914101C8
:1014B000909142010E949D22883C910508F088CFBE
:1014C00080E20E94C81788E20E94681688E20E94A3
:1014D000601780E0DF91CF911F910F91FF900895E9
:1014E0000C94C80DCF92DF92EF92FF92863030F4C9
:1014F000811105C0909180009F7D04C085E090918E
:101500008000906290938000282F30E0AFEFBFEF13
:101510000E94D33125E030E040E050E00E94AB3142
:10152000C9012C3764E1360728F469E070E00E94B5
:10153000833129C0DA01C9018A50974DAF4FBF4F9F
:101540006627782F892F9A2F25EF38E241E050E067
:101550000E94AB3169017A01CA01B9010E9473315D
:101560009B01AC01C701B6010E947331BB27A92FB3
:10157000982F872F009721E0A207B10511F0BC0139
:1015800002C06FEF7FEF70938B0060938A00FF9033
:10159000EF90DF90CF900895269A2E9882E2809364
:1015A000800089E1809381008FEF9FEF9093870007
:1015B000809386000C9491260E94CC0A0C94C60D50
:1015C0000C9492070C94E00A9FE0799FF00111249B
:1015D0009BE4899FE00DF11D1124E60FF11DEE0F34
:1015E000FF1FE954FE4F859194910895880F991F2C
:1015F00087559E4FFC01859194910895CF93DF9379
:101600000E94E40A0E94DA0CEC01811521E59207A0
:1016100008F043C0811530E5930708F021C1883EEA
:10162000910508F5803E910508F0C0C1883A910502
:1016300078F4853A910508F09EC08130910509F44F
:10164000B5C108F46CC18430910508F0AFC167C121
:101650008D3B910508F49AC0803C910508F45FC168
:10166000805C9109ECC0C11580E3D80780F4C115F6
:1016700020E2D20708F0E1C0C03FD10508F44FC115
:10168000CF3FD10511F008F091C1D0658FC1C115D0
:1016900030E4D30708F0E1C0D6C0C11589E5D8070A
:1016A00040F5C11528E5D20708F025C1C11534E57C
:1016B000D30778F4C11583E5D80708F002C1C11536
:1016C00022E5D20708F0E8C0DC2FCC27C16FD06A32
:1016D0006DC1C11535E5D30708F408C1C11586E50C
:1016E000D80708F01CC1CF71DD27DC2FCC27D062D2
:1016F0005DC1CB3B2CE5D20709F408C1D8F4C93B46
:101700008CE5D80709F4FCC008F0FDC0C1153AE526
:10171000D30708F004C18C2F8F70806E90E0906A20
:1017200034E0D695C7953A95E1F7CF709C013C2BF4
:10173000E9013CC1CE3B8CE5D80709F4EDC060F46B
:10174000CC3B3CE5D30709F4E4C0CD3BDC4509F0D4
:10175000E6C0C0E0D2ED2AC1CE019056811590427C
:1017600008F0DDC08D2F8F710E94560DDD27D062ED
:101770008F71D82B1BC1853A910509F4D3C0863AE5
:10178000910509F4D2C0C3E8D0E410C1883A9105AC
:1017900009F4CEC0893A910509F4CDC08A3A910581
:1017A00009F4CCC08B3A910509F4CBC08C3A910571
:1017B00009F4CAC08B3B910509F4C9C08C3B910563
:1017C00009F4C8C08D3A910509F4C7C0803B910562
:1017D00009F4C6C08E3A910509F4C5C08F3A910547
:1017E00009F4C4C0813B910509F4C3C0823B910553
:1017F00009F4C2C0833B910509F4C1C0843B910543
:1018000009F4C0C0853B910509F4BFC0863B910532
:1018100009F4BEC0873B910509F4BDC0883B910522
:1018200009F4BCC0893B910509F4BBC08A3B910512
:1018300009F0BAC0CAE2D6E4B9C0CE019F700E94D6
:10184000F60AEC01B3C0CE019927D3FF03C0EC0127
:10185000D86CACC0EC01D06CA9C0DF70D06AA6C057
:10186000282F237081E090E002C0880F991F2A95ED
:10187000E2F79C689E01E4E036952795EA95E1F74A
:101880002370922BCF70C695C69530E2C39FE001BE
:101890001124C82BD92B8AC08C2F8695869520E2DF
:1018A000829FC00111249E0123703327C1E0D0E044
:1018B00002C0CC0FDD1F2A95E2F7C82BD92BDC68BC
:1018C00075C08C2F8695869530E2839FC0011124C8
:1018D0009E0123703327C1E0D0E002C0CC0FDD1F92
:1018E0002A95E2F7C82BD92BDA6860C0DC2FCC2709
:1018F000C46FD06A5BC0DC2FCC27C06FD06A56C0E3
:10190000C0E0D4ED53C0C0E0D5ED50C0C0E0D1ED93
:101910004DC0C0E0D0ED4AC0C0E0D3ED47C0C0E04C
:10192000D0E044C0C1E8D0E441C0C2E8D0E43EC049
:10193000C2EED4E43BC0C9EED4E438C0CAEED4E46D
:1019400035C0C5EBD4E432C0C6EBD4E42FC0C3EB42
:10195000D4E42CC0C4EBD4E429C0C7EBD4E426C043
:10196000CCECD4E423C0CDECD4E420C0C3E8D5E46F
:101970001DC0CAE8D5E41AC0C2E9D5E417C0C4E95D
:10198000D5E414C0C1E2D6E411C0C3E2D6E40EC06F
:10199000C4E2D6E40BC0C5E2D6E408C0C6E2D6E491
:1019A00005C0C7E2D6E402C0C0E0D4E4CE01DF91B6
:1019B000CF9108958238910549F1B0F481339105B2
:1019C00009F459C048F48932910509F44FC08A32AC
:1019D000910509F455C008958533910509F441C076
:1019E0008933910599F00895833E910531F138F4DA
:1019F000803E910591F0823E9105A9F00895863EC2
:101A0000910501F1873E910539F1089520919702E2
:101A100020FD3BC021FD39C008958091970280FFD1
:101A200034C089E341C08091970282FF32C0809127
:101A3000970284FF2CC080E037C08091970282FD1E
:101A400028C0F5CF8091970283FF25C0809197022F
:101A500084FDF1CF87EE28C08091970283FD1BC0E3
:101A6000F5CF8091970285FF18C019C08091970229
:101A700085FF15C012C08091970286FF12C013C067
:101A80008091970286FF0FC00CC080EE0DC083EEE0
:101A90000BC082EE09C086EE07C085E305C089E26F
:101AA00003C081E301C08AE290E00895909197021B
:101AB00092FF0DC0282F2871283019F4877F846089
:101AC00006C0282F2471243011F48B7F886093FF87
:101AD0000DC0282F2871283119F4877E846106C033
:101AE000282F2471243111F48B7E886194FD877E28
:101AF00008950895CF93DF93EC01FB01828181115A
:101B000002C081E040C080915201811125C0C631E0
:101B1000DC45B9F70E94790D81E0809352010E9463
:101B2000912290935101809350011092450110929F
:101B300047011092460110924901109248011092FB
:101B40004B0110924A0110924D0110924C011092DB
:101B50004F0110924E0116C0809150019091510199
:101B60000E949D228C32914060F680914501E82FC1
:101B7000F0E0EE0FFF1FEA5BFE4FD183C0838F5F63
:101B80008093450180E0DF91CF9108950C9439074F
:101B90000C943A0785B7806885BF85B7806885BF94
:101BA000A4E2B1E021E030E08D91E82FE295EF7002
:101BB000F0E041A18F70B90102C0660F771F8A95CE
:101BC000E2F7CB01962F9095492341A392A1982B40
:101BD00092A371E0A932B70739F7A5E1B1E021E09E
:101BE00030E08D91E82FE295EF70F0E041A18F7029
:101BF000B90102C0660F771F8A95E2F7CB01962FD5
:101C00009095492341A392A1982B92A371E0A4320D
:101C1000B70739F7EDE5F1E0A3E5B1E011921192D4
:101C20001D921D9281E0E736F807C1F70C94DC0A9B
:101C30004F925F927F928F929F92AF92BF92CF927C
:101C4000DF92EF92FF920F931F93CF93DF9304E203
:101C500011E0C3E5D1E0EE24E394F12C99249394B0
:101C6000BE01A880B98019821882D8012D918D01FA
:101C7000E22FE295EF70F0E081A12F70A70102C082
:101C8000440F551F2A95E2F79A01842B81A382A164
:101C9000842E8094882182A350EA5A95F1F745E179
:101CA000442E41E0542E80E090E0D2014D912D0170
:101CB000C42EC2943FE0C322D12CD60190967C90D2
:101CC000C880D9804F70D70102C0AA0FBB1F4A95A8
:101CD000E2F77A2241F4A701082E02C0440F551FF3
:101CE0000A94E2F702C040E050E04C295D29598394
:101CF000488301968F309105C1F681A1882181A387
:101D000082A1822B82A32296FB0180819181A81659
:101D1000B90641F0909267010E9491229093690167
:101D200080936801F1E009321F0709F099CF809193
:101D300067018823B1F080916801909169010E9448
:101D40009D22069770F0E3E5F1E0ADE5B1E0819109
:101D500091918D939D9341E0ED35F407C1F7109279
:101D600067010E94700A81E0DF91CF911F910F916E
:101D7000FF90EF90DF90CF90BF90AF909F908F90AB
:101D80007F905F904F900895E82FF0E0EE0FFF1FD7
:101D9000E35AFE4F8081918108950895DF92EF927A
:101DA000FF920F931F93CF93DF93662309F44AC0EA
:101DB000E42FF0E0AFEFB0E0A61BB109BF01A69F92
:101DC000E001A79FD00DB69FD00D1124FD2FDD2E71
:101DD0007B01ED1AF1080CE310E0B8010E94833199
:101DE000EB01BC01E69EC001E79E900DF69E900DB2
:101DF0001124B8010E948331C230D105B1F040F402
:101E0000209779F0219709F58F2FD42E461B20C0FB
:101E1000C430D10599F068F02597B9F4842F861B5A
:101E200017C08F2FD62EDF0E13C0862F8F0FD42E04
:101E300003C0D42ED61A842F4F2F0AC0842F462FCA
:101E40004F0F06C0842FD42E03C080E0D12C40E079
:101E5000E42FF0E0ED5CF44F4491ED2DF0E0ED5C0B
:101E6000F44F9491E82FF0E0ED5CF44FE491D90148
:101E700011964C9311979C931296EC93DF91CF910E
:101E80001F910F91FF90EF90DF90089588E090E010
:101E90000C94F531AB01BC0188E090E00C94133256
:101EA000ECE5F2E083E0808310925D028FEF809397
:101EB0005E0280935F021092600260817181828174
:101EC00093810C944A0F60915C0260FF06C0669596
:101ED0006F7370E080E090E0089560E070E0CB0107
:101EE00008958091600290E001968430910514F08D
:101EF00083E090E08093600260915C0270915D02EB
:101F000080915E0290915F020C944A0F8091600272
:101F100090E0019797FF02C080E090E08430910547
:101F200014F083E090E08093600260915C02709115
:101F30005D0280915E0290915F020C944A0F809145
:101F40005C0280FF06C060E170E081E692E00C94E4
:101F50001115E3E6F2E0DF0111971C9211971C9234
:101F60001082339682E0E339F807A9F7ECCF90911D
:101F70005C0290FF0FC0E3E6F2E0DF0111978C9363
:101F800011976C934083339692E0E339F907A9F7F0
:101F90000C949F0F0895CF93DF9300D01F92CDB77D
:101FA000DEB720915C0220FF0AC09E012F5F3F4FE9
:101FB0000E94CE0E4B8169818A810E94B70F0F90DB
:101FC0000F900F90DF91CF9108955F926F927F9263
:101FD0008F929F92AF92BF92CF92DF92EF92FF9239
:101FE0000F931F93CF93DF9300D01F92CDB7DEB72F
:101FF0008C01662E742E522E80915C0280FF8BC065
:10200000982F9E77923061F49E012F5F3F4FC80159
:102010000E94CE0E4B8169818A810E94B70F5BC0FE
:10202000E82FE695EF739EE39E0F9F73943018F4AC
:1020300070905F0250C09AE39E0F9F73993068F4CE
:10204000881F8827881F90915D02292F220F022F59
:10205000082B97FB112710F93EC087E28E0F8F7374
:102060008A30C8F5F0E07997E0FF02C04FEF01C079
:1020700041E0EE7FE75EF44F859194919C0184E00E
:10208000369527958A95E1F742035001439FB00C9E
:102090001124680188E9C81A8EEFD80A91E6E92E62
:1020A00092E0F92E28E6822E99249394C601B40179
:1020B0000E9483319701472D662D0E94CE0ECA0CD7
:1020C000DB1C83E0E80EF11C81E9E81682E0F806EB
:1020D00069F70E949F0F80915C0200FB87F9809353
:1020E0005C02902F969580915D028078892B10FB81
:1020F00087F980935D0260925E0270925F025520C4
:1021000051F060915C0270915D0280915E0290914D
:102110005F020E944A0F0F900F900F90DF91CF91B6
:102120001F910F91FF90EF90DF90CF90BF90AF90F5
:102130009F908F907F906F905F90089521E00C9416
:10214000E50F20915C02221F2227221F30915D02A1
:10215000432F440F842F822B37FB992790F9089641
:1021600068E671E00E94973140915F0260915E02E3
:102170000C949E1020915C02221F2227221F309176
:102180005D02432F440F842F822B37FB992790F950
:10219000883091051CF4805A9E4F01C0089768E66C
:1021A00071E00E94973140915F0260915E020C9451
:1021B0009E1060915E02862F90E0883F910514F496
:1021C000685F01C06FEF80915C02881F8827881FBD
:1021D00090915D02292F220F97FB992790F940914A
:1021E0005F02822B0C949E1060915E02862F90E01D
:1021F000089714F0685001C060E080915C02881F6D
:102200008827881F90915D02292F220F97FB99271D
:1022100090F940915F02822B0C949E1040915F02D6
:10222000842F90E0883F910514F4485F01C04FEF80
:1022300080915C02881F8827881F90915D02292F5A
:10224000220F97FB992790F960915E02822B0C94E4
:102250009E1040915F02842F90E0089714F0485040
:1022600001C040E080915C02881F8827881F909100
:102270005D02292F220F97FB992790F960915E024A
:10228000822B0C949E1020E00C94E50F90915C0240
:1022900090FF48C09178811102C0926003C08432DF
:1022A00020F0966490935C0205C08F73880F892B91
:1022B00080935C02662351F060915C0270915D0234
:1022C00080915E0290915F020E944A0F80915C02B1
:1022D000382F3E77323019F41092830112C0982FB4
:1022E00096959F732EE3290F2F73273110F0363404
:1022F00021F491E09093830104C0995D9F739A301B
:1023000058F3881F8827881F90915D02292F220F7C
:1023100097FB992790F940915F0260915E02822BB2
:102320000C944311089561E00C94461180915C0275
:1023300086958F738F5F843208F081E00C9493113F
:1023400080915C0286958F73815009F483E20C942E
:102350009311ECE5F2E080818160808386958F7334
:102360000C94931160E00C94461180912E028160D0
:1023700080932E0281E0809384010E94522181117A
:1023800004C00E942C210E94500F0E94460F6093AF
:102390005C0270935D0280935E0290935F026E77A1
:1023A00061F40E94500F0E94460F60935C0270938C
:1023B0005D0280935E0290935F0281E080938301CF
:1023C00080915C0280FF04C086958F730C94B211DB
:1023D0000895ECE5F2E080818E7F808360817181D9
:1023E000828193810E944A0F109283012FEF80E730
:1023F00092E0215080409040E1F700C000000C9432
:102400009F0F80915C0280FD0C94E9110C94A9113E
:10241000CF93C82F80918101909182010E949D22CB
:10242000EC2FF0E0E15DF44FE491F0E08E179F07B0
:1024300008F442C00E94912290938201809381010E
:102440006091800170E080E090E00E94912F20E098
:1024500030E04FE753E40E94CA2E2BED3FE049E401
:1024600050E40E94B2300E9415310E94372F2BE4B5
:102470003AE34EE25FE30E94652E20EF3BEF48ED2A
:1024800052E40E94B2300E94632F462F80915C027A
:10249000881F8827881F90915D02292F220F97FBA4
:1024A000992790F960915E02822B0E94CB0F809158
:1024B00080018F5F80938001CF910895CF93C82FC3
:1024C00080917E0190917F010E949D22EC2FF0E08F
:1024D000E45DF44FE491F0E08E179F07E8F00E946E
:1024E000912290937F0180937E0140915F026091E1
:1024F0005E0280917C0190917D010E94CB0F8091C2
:102500007C0190917D01019668E671E00E94833123
:1025100090937D0180937C01CF910895DF92EF929B
:10252000FF920F931F93CF93DF93D82E80917A0160
:1025300090917B010E949D22ED2DE695F0E0E75DF4
:10254000F44FE491F0E08E179F07F0F10E94912282
:1025500090937B0180937A0101E612E0C0E0D0E025
:1025600068E6E62EFF24F39480917801909179013A
:102570008C0F9D1FB7010E948331980140915F022B
:1025800060915E020E94CE0E66960D5F1F4FC036B0
:1025900081E0D80749F70E949F0F20917801309180
:1025A0007901D0FE0BC0C901019668E671E00E9476
:1025B0008331909379018093780106C021503109CD
:1025C0003093790120937801DF91CF911F910F9182
:1025D000FF90EF90DF900895AF92BF92CF92DF927D
:1025E000EF92FF920F931F93CF93DF93C82F80FD3D
:1025F00003C0BB24B39402C0BB24BA94809176017B
:10260000909177010E949D22C695EC2FF0E0EA5D43
:10261000F44FE491F0E08E179F0708F465C00E9424
:1026200091229093770180937601F1E6EF2EF2E00C
:10263000FF2E03E612E0C0E0D0E0F80131971082EF
:10264000F7011082F8011082E4E0CE2ED12CA12CEB
:10265000809175018A0D87FD805F992787FD909590
:10266000C817D907E9F480915F028C9DA0018D9D68
:10267000500D1124559547955595479580915C02CD
:10268000881F8827881F90915D02592F550F97FB4F
:10269000992790F9970160915E02852B0E94CE0EDA
:1026A000AB0CF1E0CF1AD108C114D10489F6219600
:1026B00083E0E80EF11C0D5F1F4FC031D10509F01A
:1026C000BCCF0E949F0F8091750191E0B91206C0A6
:1026D000811102C08FE006C0815004C090E00196D5
:1026E0008F70992780937501DF91CF911F910F9182
:1026F000FF90EF90DF90CF90BF90AF900895EF9252
:10270000FF920F931F93CF93DF93C82F8091730194
:10271000909174010E949D22EC2FF0E0ED5DF44F4A
:10272000E491F0E08E179F0708F465C00E949122A3
:102730009093740180937301E3E6F2E0DF01119757
:102740001C9211971C921082339682E0E339F807AD
:10275000A9F703E612E0A1E6EA2EA2E0FA2EC0E015
:10276000D0E080917201992787FD9095C817D9070D
:10277000ECF080910101992787FD90958C179D07BA
:10278000ACF080915C02881F8827881F90915D02C1
:10279000592F550F97FB992790F9970140915F02A8
:1027A00060915E02852B0E94CE0E07C0F801319722
:1027B0001082F7011082F80110822196F3E0EF0EEB
:1027C000F11C0D5F1F4FC031D10559F60E949F0FBC
:1027D0002091000180917201820F8093720190918B
:1027E0000101920F90930101191614F48F301CF01F
:1027F000219520930001DF91CF911F910F91FF90C0
:10280000EF900895EF92FF920F931F93CF93DF9372
:1028100080917001909171010E949D22883E9340A9
:10282000C8F10E9491229093710180937001C09130
:102830006E01D0916F012196C170DD27D0936F0199
:10284000C0936E0101E612E0F12CB8E7EB2E8F2D5C
:102850008695FE01E80FF11DCF018170992798013F
:1028600040915F0260915E02FC01EE9EC001EF9E0E
:10287000900D11240E94CE0EF3940D5F1F4FF0E1D6
:10288000FF12E5CFDF91CF911F910F91FF90EF9055
:102890000C949F0FDF91CF911F910F91FF90EF90BC
:1028A0000895CF93DF9300D01F92CDB7DEB780910C
:1028B0006C0190916D010E949D22E7E1FBE0259162
:1028C000349182179307C0F180916B0181110CC084
:1028D0009E012F5F3F4F4FEF6FEF80E090E00E942F
:1028E000CE0E8A8180936B010E94912290936D019C
:1028F00080936C0180916A01813051F028F0823020
:1029000061F440916B010AC080916B0140E007C007
:1029100060916B0140E080E003C040E080E060E057
:102920000E94B70F80916A0190E0019663E070E029
:102930000E94973180936A010F900F900F90DF9162
:10294000CF910895809183018823B9F120915C0291
:10295000822F86958F739EE3980F9F73943018F49F
:1029600082500C9408129AE3980F9F73933018F4D6
:1029700086500C945E1297E3980F9F73963018F46C
:1029800089500C948E1291E3980F9F73963018F42F
:102990008F500C94EC129BE2980F9F73933018F4B5
:1029A00085510C947F13822F8E77803311F40C9411
:1029B0000214863411F40C94511408953EB1242F5E
:1029C000209523233EB1342B4FB7F894FC01680FB8
:1029D000791FE617F70789F0819198E03EB900006A
:1029E00000C087FF2EB9880F000000C000C000C0E3
:1029F0002EB900C09A9591F7ECCF4FBF08952DB135
:102A0000242B2DB99B01220F331F260F371FB9012D
:102A10000E94DE1487EC90E00197F1F700C00000FF
:102A2000089544E00C94FF1490938A0180938901E7
:102A30000895E0918901F0918A01309721F0019089
:102A4000F081E02D099480E00895E0918901F091F2
:102A50008A01309721F00280F381E02D09940895D6
:102A6000E0918901F0918A01309721F00480F5818D
:102A7000E02D0994089520918701309188018217F3
:102A8000930771F09093880180938701E091890109
:102A9000F0918A01309721F00680F781E02D0994AA
:102AA000089520918501309186018217930771F076
:102AB0009093860180938501E0918901F0918A01CC
:102AC000309721F00084F185E02D09940895089550
:102AD0000C94671581E008950E9488220E94CA0D17
:102AE0000E945C230E9491260C94B5115F926F9214
:102AF0007F928F929F92AF92BF92CF92DF92EF928E
:102B0000FF920F931F93CF93DF93CDB7DEB72A9732
:102B10000FB6F894DEBF0FBECDBF0E94180E0E9404
:102B20006A15811111C08FEF89838A831B820E94ED
:102B300091228160782F9D838C8349815A816B819A
:102B40008D810E94341657C09CE8C92E91E0D92E81
:102B500000E010E0AA24A394B12C502E802F0E94F4
:102B6000C40E3C01F601E190F1906F01E826F926D0
:102B7000E114F10431F40F5F1F4F0530110569F7BF
:102B8000D2CF80912E0281FD0E94CD0E20E030E058
:102B90004501022E02C0880C991C0A94E2F7C40178
:102BA0008E219F21892B09F12E835F826820792055
:102BB00081E0672809F480E088870E949122816083
:102BC000782F9A8789874E815F8168858A850E94E0
:102BD0003416F801EE0FFF1FE457FE4F80819181FC
:102BE000882599259183808306C02F5F3F4F2F3022
:102BF000310571F6C0CF0E94FC2510918B010E9417
:102C000019151817D9F00E94191580938B012A966F
:102C10000FB6F894DEBF0FBECDBFDF91CF911F91ED
:102C20000F91FF90EF90DF90CF90BF90AF909F906B
:102C30008F907F906F905F900C94E20A2A960FB667
:102C4000F894DEBF0FBECDBFDF91CF911F910F91E2
:102C5000FF90EF90DF90CF90BF90AF909F908F90BC
:102C60007F906F905F900895CF93DF93CDB7DEB7DD
:102C70002B970FB6F894DEBF0FBECDBF4F8358879A
:102C800069877A878B87DE01119686E0FD011192B4
:102C90008A95E9F785E0FE01379601900D928A95B5
:102CA000E1F749815A816B817C818D819E810E94EF
:102CB000A21D2B960FB6F894DEBF0FBECDBFDF91DD
:102CC000CF910895FC01808191810E945E2008953A
:102CD000882309F4F4C08238C1F40E94191581FDDB
:102CE000EEC069E380910201909103010E94E82106
:102CF0000E94BD202FEF81EE94E021508040904053
:102D0000E1F700C0000069E319C08338F9F40E94BC
:102D1000191580FDD4C063E58091020190910301F3
:102D20000E94E8210E94BD202FEF81EE94E0215007
:102D300080409040E1F700C0000063E5809102010F
:102D4000909103010E94F3210C94BD208438C1F4BA
:102D50000E94191582FDB3C067E480910201909131
:102D600003010E94E8210E94BD202FEF81EE94E034
:102D7000215080409040E1F700C0000067E4DECFC2
:102D80009CEF980F913A40F4682F80910201909146
:102D900003010E94E821D8CF90E2980F983050F4B8
:102DA000877091E001C0990F8A95EAF7892F0E94F8
:102DB000F320CACF9BE5980F933070F4853A29F041
:102DC000863A31F482E890E005C081E890E002C0E4
:102DD00083E890E00C943B1598E5980F953108F046
:102DE0006EC0883A61F1893A69F18A3A71F18B3A99
:102DF00079F18C3A81F18B3B89F18C3B91F18D3AE1
:102E000099F1803BA1F18E3AA9F18F3AB1F1813B62
:102E1000B9F1823BC1F1833BC9F1843BD1F1853BE0
:102E2000D9F1863BE1F1873BE9F1883BF1F1893B40
:102E3000F9F18A3B09F03FC08AE292E03EC082EE9F
:102E400090E03BC089EE90E038C08AEE90E035C05B
:102E500085EB90E032C086EB90E02FC083EB90E0F2
:102E60002CC084EB90E029C087EB90E026C08CEC6E
:102E700090E023C08DEC90E020C083E891E01DC07D
:102E80008AE891E01AC082E991E017C084E991E0F4
:102E900014C081E292E011C083E292E00EC084E2AD
:102EA00092E00BC085E292E008C086E292E005C0A5
:102EB00087E292E002C080E090E00C945115089502
:102EC000882309F45DC0823879F40E94191581FFC6
:102ED00057C069E380910201909103010E94E821AB
:102EE0000E94BD2069E310C08338B1F40E94191517
:102EF00080FF46C063E580910201909103010E942A
:102F0000E8210E94BD2063E58091020190910301B8
:102F10000E94F3210C94BD20843879F40E94191585
:102F200082FF2EC067E480910201909103010E940C
:102F3000E8210E94BD2067E4E7CF9CEF980F913A0B
:102F400010F4682FE1CF90E2980F983050F487701A
:102F500091E001C0990F8A95EAF7892F0E94F92024
:102F6000D9CF9BE5980F933020F480E090E00C944B
:102F70003B15885A853120F480E090E00C9451157F
:102F80000895882321F00E94F3200C94BD20089519
:102F9000882321F00E94F9200C94BD2008958F927F
:102FA0009F92BF92CF92DF92EF92FF920F931F9367
:102FB000CF93DF9300D0CDB7DEB74C01472FFC0194
:102FC000C580C2949FE0C922D280DD2031F0798390
:102FD0006A830E9410216A81498149836A830E9421
:102FE000B62049816A81882389F0DD2079F080E26A
:102FF000860F883058F082E00E949F200E94B62001
:10300000BB24B394B82649816A8101C0B12CE42E57
:10301000E2948FE0E822F12CF701E159FF4F0C9484
:10302000CD31842F807F142F1F70882311F01295CB
:10303000107FDD20C1F0112309F4E1C180E2860F89
:10304000883010F0611105C0812F6A830E94F3203F
:1030500004C0812F6A830E9403216A816A830E94CF
:10306000BD206A81CCC1862F6A830E9460176A8165
:10307000112309F40BC280E2860F883010F0611131
:1030800004C0812F0E94F92003C0812F0E940921D2
:103090000E94BD20FBC1842F807F142F1F708032BF
:1030A00011F01295107F662319F06130D9F026C017
:1030B000DD2079F0CC2049F0F1E0CF1206C00E946B
:1030C0002921812B0E942321E1C10E942921812BEA
:1030D0004AC1CC2021F021E0C21609F4D7C10E94D8
:1030E000262146C1DD2029F085E08C1508F4CEC1EB
:1030F00039C194E09C1508F4C9C13AC1DD2051F0F2
:10310000CC2009F42FC1F401858180FF78C18F7034
:10311000858328C1CC2009F42BC182C1242F269598
:103120002695237030E02115310521F0213031053D
:1031300061F0ACC1DD2021F0862F942F937002C086
:1031400080E090E00E943B15B1C1DD2021F0862F88
:10315000942F937002C080E090E00E945115A6C1A8
:10316000DD20F9F0653F51F0663F71F0643FA9F44E
:10317000809191029091920281600BC080919102A6
:1031800090919202826005C080919102909192028A
:1031900084609093920280939102862F0E9404256E
:1031A00022C0653F51F0663F91F0643FC9F48091C1
:1031B0009102909192028E7F05C080919102909130
:1031C00092028D7F909392028093910209C0209188
:1031D0009102309192022B7F3093920220939102C0
:1031E000862F0E946C250E94F12560C1842F837078
:1031F00009F04EC0D11056C1262F22952695277072
:10320000220F220F862F8F70C82ED12CE12CF12C8B
:10321000022E04C0CC0CDD1CEE1CFF1C0A94D2F75D
:1032200064FF10C06FE070E080E090E004C0660FC3
:10323000771F881F991F2A95D2F760957095809502
:10324000909503C060E070E0CB01242F2695269571
:10325000237030E02230310569F02330310589F0E8
:103260006C297D298E299F292130310571F00E941A
:10327000F11E18C16C297D298E299F290E94031FE8
:1032800011C10E94F11EC701B6010E94DF1E0AC1D2
:10329000DD2019F0842F817001C08695882309F400
:1032A00001C1262F229526952770220F220F862FE7
:1032B0008F70C82ED12CE12CF12C022E04C0CC0C26
:1032C000DD1CEE1CFF1C0A94D2F764FF10C06FE0F7
:1032D00070E080E090E004C0660F771F881F991FA0
:1032E0002A95D2F7609570958095909503C060E01F
:1032F00070E0CB01242F26952695237030E02230F4
:10330000310569F02330310589F06C297D298E293A
:103310009F292130310571F00E949F1FC3C06C2985
:103320007D298E299F290E94B11FBCC00E949F1F2A
:10333000C701B6010E948D1FB5C0062F10E0F8012D
:10334000E05EF109E531F10508F055C0E158FF4FA5
:103350000C94CD31162F1F70842F8F71DD2031F02A
:103360000E94381F812F0E94C11790C00E94531FD6
:10337000812F0E94C8178AC0DD2049F0F4E0FC15B7
:1033800008F484C0842F8F710E94721F7FC025E0D3
:103390002C1508F47BC0F6CFDD2039F0842F8F7117
:1033A0000E94381F73C0DD20C9F3842F8F710E94E3
:1033B000531F6CC0DD2029F0842F8F710E94291FBC
:1033C00065C00E94241F62C0DD2051F0142F1F71C0
:1033D000812F0E94381F63E0812F0E94962056C0E3
:1033E00081E00E949F2081E08C1508F04FC082E0B0
:1033F0000E949F204BC0DD2031F0CC2079F2862F37
:103400000E94681643C0CC2081F2693349F49FEFD3
:10341000E7EEF3E09150E040F040E1F700C000003B
:10342000862F0E94601732C04F70C4010E942D0782
:103430000E944F1E3BC0D11039C0942F9F70892F1E
:1034400090E08230910599F03CF4009769F0019783
:10345000E9F40E94CA262AC08430910571F054F024
:103460000597A1F480E00AC00E94AE261FC00E940A
:10347000E6261CC00E94002719C085E00E9425276F
:1034800015C04F70C4010E943B0710C028E0E2162F
:10349000F10441F05CF09AE0E91AF108E2E0EE167E
:1034A000F10420F40E9419150E94E20ABB20F1F0F9
:1034B0000E94922080FD1AC0F40112820E948C208A
:1034C0000E94381FC4010E94841A0E948C200F9011
:1034D0000F90DF91CF911F910F91FF90EF90DF90B0
:1034E000CF90BF909F908F900C94531F0F900F9090
:1034F000DF91CF911F910F91FF90EF90DF90CF90D0
:10350000BF909F908F9008950F931F93CF93DF9359
:10351000EC01288139818B819C81892B31F03F3FDF
:1035200011F080E003C02F3FE1F781E0811113C06B
:10353000CE010E94AC07882371F0688179818A816D
:103540000E9469208C010E94C31F0E94DC1EB801EA
:10355000CE010E94CF17DF91CF911F910F91089557
:103560000E9410210E94202180910201909103016C
:103570000E94FE210E94BD200E9485260E94F12506
:1035800080E090E00E943B1580E090E00C945115A3
:103590000E9400210C94B01A0E945E20E92FE2954F
:1035A000EF70F0E03297EE30F105B8F4EC56FF4FD3
:1035B0000C94CD31803F59F018F4803E70F407C070
:1035C000843F59F404C0803E10F0813F31F481E023
:1035D000089593FB882780F9089580E00895CF939C
:1035E000DF9300D000D01F92CDB7DEB70F900F90C1
:1035F0000F900F900F90DF91CF910895CF93DF93AD
:1036000000D000D000D0CDB7DEB726960FB6F89424
:10361000DEBF0FBECDBFDF91CF9108951F93CF9333
:10362000DF93C091970116E080919801C81799F037
:10363000D0E01C9FF0011D9FF00D1124E756FE4FB6
:103640004081518162817381848195810E94FE1A3B
:103650002196C770E9CFDF91CF911F9108954091D6
:10366000C9015091CA016091CB017091CC01809148
:10367000CD019091CE010C94FE1ACF938091CE0192
:1036800082958F7009F05FC08091CB01882309F487
:103690005AC020919701A09198016091C901709141
:1036A000CA018091CC019091CD0131E06F3F09F0CA
:1036B00030E0B32FC6E02A1709F445C0009721F087
:1036C0007F3F21F44B2F03C041E001C040E030E0D8
:1036D00040FD35C0C29FF001C39FF00D1124E75695
:1036E000FE4F418174132BC04081641328C0428176
:1036F000411125C0438154814817590710F44150A6
:103700005109481B590B483C5105C8F48091CE0122
:103710008F7080618093CE0186E0829FF001839F4D
:10372000F00D1124E256FE4F80818F7080618083FE
:1037300089EC91E00E94841ACF910C940E1B2F5FAC
:103740003F4F2770B8CFCF910895CF92DF92EF927D
:10375000FF920F931F93CF93DF93CDB7DEB762979E
:103760000FB6F894DEBF0FBECDBF8C0185E0F80127
:10377000DE011D9601900D928A95E1F7D8014C91DA
:1037800011965C91119712966C9112971396ED9089
:10379000FC9014977091C901E091CA012091CC016D
:1037A0003091CD012115310531F0EF3F31F481E049
:1037B0007F3F19F403C081E001C080E0B82FB170F1
:1037C000CB2E80FD6BC1D090CB01DD2009F4F5C07C
:1037D000F091CE01E216F30638F0C701821B930B7D
:1037E000883C910548F09DC0209530952E0D3F1DD9
:1037F000283C310508F095C08F2F807F09F052C01A
:10380000E51314C0741312C0D62E61110FC0FF70DF
:10381000F061F093CE010E942F1B89EC91E00E9491
:10382000841A8091CE01F80185837CC1EF2831F0A4
:103830005F3F31F481E04F3F19F403C081E001C0E4
:1038400080E080FD03C081E0862701C080E0F82F82
:10385000F170FF2E80FF1CC080919701209198018C
:1038600036E0821709F438C190E0389FF001399FA3
:10387000F00D1124E756FE4F7181571306C0708179
:10388000471303C07281671303C001968770E9CFA5
:10389000D62E662309F446C18091CE0181608093C3
:1038A000CE0155C0E51308C0741306C0611104C0F1
:1038B000D8011596FC93AEC04D875E878D859E8599
:1038C0006A8B0E94CC1A6A89882329F1D62E662336
:1038D00011F12091CE01822F82958F7090E0029796
:1038E0000CF462C08091C9019091CA0198878F83BE
:1038F0001986FB86EA862C87CE01079653C0E5170A
:1039000041F14D875E878D859E856A8B0E94CC1A1A
:103910006A89811130C0C8010E94841ADD24D394C1
:1039200001C18F2F807F59F77E2DF98AE88A898916
:103930000E94EF1A89EC91E00E94841AE9ECF1E010
:1039400086E0DF011D928A95E9F70E942F1BD12C9A
:10395000E9C07413D6CF6111D4CFD8011596FC936A
:10396000C8010E94841AE9ECF1E086E0DF011D92B3
:103970008A95E9F7D7C0D62E662369F22091CE0149
:10398000822F82958F7090E0029774F08091C90128
:103990009091CA019A8389831B82FD82EC822E83D7
:1039A000CE0101960E94841A86E0F801A9ECB1E0EC
:1039B00001900D928A95E1F78AC0E216F30628F08D
:1039C000C701821B930B9C0104C0209530952E0DDE
:1039D0003F1D283C310508F053C0D62E662309F45C
:1039E0009ACFE5132CC074132AC08091CE0180FDBC
:1039F0001DC0982F92959F70C9F0D80115968C9391
:103A000015979F3039F09F5F9295907F8F70892B2B
:103A100015968C93C8010E94841A86E0F801A9ECDF
:103A2000B1E001900D928A95E1F753C086E0F8016C
:103A3000A9ECB1E001900D928A95E1F773C04D8732
:103A40005E878D859E850E94CC1A882381F096E042
:103A5000F801A9ECB1E001900D929A95E1F78A8BFB
:103A60000E943D1B0E942F1B8A89D82E5BC080912B
:103A7000CE0181608093CE01C8010E94841A52C099
:103A80007E2DF98AE88A89890E94EF1AE9ECF1E033
:103A900086E0DF011D928A95E9F71BC0662309F4D1
:103AA0003ACF4D875E878D859E850E94CC1AD82E91
:103AB000882309F430CF86E0F801A9ECB1E0019049
:103AC0000D928A95E1F789EC91E00E9462160E94BE
:103AD0003D1B0E942F1B26C04D875E878D859E85CE
:103AE0000E945E20292F22952F7030E02230310570
:103AF0002CF49F7041F0811106C00CC024303105B8
:103B00002CF49F7049F4805E883020F0C8010E9438
:103B1000841ACF2CDC2C06C0D80115969C91907F7E
:103B200091F7F8CF8D2D62960FB6F894DEBF0FBED9
:103B3000CDBFDF91CF911F910F91FF90EF90DF905C
:103B4000CF9008951F93CF93DF93CDB7DEB72C9717
:103B50000FB6F894DEBF0FBECDBF4F83588769877D
:103B60007A878B879C87CE0107960E94A51B8823A6
:103B7000C1F02F8138858A859B85892B31F03F3FA5
:103B800011F080E003C02F3FE1F781E0811147C0D1
:103B90004F81588569857A858B859C850E94FE1AA0
:103BA0003EC086E0FE013796DE01119601900D922F
:103BB0008A95E1F7FF81E8854A855B8541155105C6
:103BC00031F0EF3F31F481E0FF3F19F403C081E0B1
:103BD00001C080E080FD23C02091980130E0C90140
:103BE0000196877099276091970170E08617970773
:103BF000F1F1F983EA835D834C8396E0929FD001D3
:103C0000939FB00D1124A756BE4FFE01319601902F
:103C10000D929A95E1F7809398010E940E1B16E091
:103C20008091970190919801891779F1189FC001AF
:103C3000112487569E4F0E94A51B882331F1E091E5
:103C400097011E9FF0011124E756FE4F40815181DC
:103C500062817381848195810E94FE1A809197010F
:103C600090E001968770992780939701D9CF0E94A1
:103C7000C81A1092980110929701E9ECF1E086E0E1
:103C8000DF011D928A95E9F7CACF2C960FB6F894FA
:103C9000DEBF0FBECDBFDF91CF911F910895EF9290
:103CA000FF920F931F93CF93DF93FC01009709F4CA
:103CB0006FC0F12CEE24E394EF01219684918437B8
:103CC00040F4843008F055C0813081F0823021F119
:103CD0005FC0853709F447C0C0F19CE7980F903763
:103CE00008F056C08F770E94601745C08F010E5FA5
:103CF0001F4FFE01849190E2980F983050F4877026
:103D0000FE2D01C0FF0F8A95EAF78F2F0E94132125
:103D100015C00E94681614C08F010E5F1F4FFE0170
:103D2000849190E2980F983068F48770FE2D01C05E
:103D3000FF0F8A95EAF78F2F0E9419210E94BD205C
:103D4000E80119C00E946017FBCFCF010296FE0167
:103D5000C491CC2361F0EFE9FFE03197F1F700C0A7
:103D60000000C150F6CFCF010296FE01F490EC01A5
:103D700002C00E9468168F2D882341F0EFE9FFE012
:103D80003197F1F700C000008150F6CFFE0194CFCB
:103D9000DF91CF911F910F91FF90EF9008950895BB
:103DA0000E94CF1E60930502709306028093070263
:103DB000909308020C94B01A08950C94D01E0F939F
:103DC0001F93009105021091060220910702309185
:103DD0000802602B712B822B932B1F910F910C9457
:103DE000D01E0F931F93009105021091060220919F
:103DF00007023091080260237123822393231F91CD
:103E00000F910C94D01E0F931F93009105021091F7
:103E1000060220910702309108026027712782274D
:103E200093271F910F910C94D01E08950C94151F89
:103E30000E94161F60930102709302028093030296
:103E4000909304020C94B01A60E070E0CB010C94E3
:103E5000181F41E050E060E070E004C0440F551FBF
:103E6000661F771F8A95D2F7CB01BA010C94181FF1
:103E700041E050E060E070E004C0440F551F661F51
:103E8000771F8A95D2F78091010290910202A0914A
:103E90000302B0910402482B592B6A2B7B2BCB01D8
:103EA000BA010C94181F41E050E060E070E004C0DB
:103EB000440F551F661F771F8A95D2F7409550957E
:103EC000609570958091010290910202A091030289
:103ED000B0910402482359236A237B23CB01BA0102
:103EE0000C94181F41E050E060E070E004C0440F03
:103EF000551F661F771F8A95D2F780910102909116
:103F00000202A0910302B0910402482759276A27B0
:103F10007B27CB01BA010C94181F0F931F930091BC
:103F20000102109102022091030230910402602BE1
:103F3000712B822B932B1F910F910C94181F0F93B1
:103F40001F9300910102109102022091030230910F
:103F5000040260237123822393231F910F910C94F9
:103F6000181F0F931F9300910102109102022091DC
:103F700003023091040260277127822793271F9143
:103F80000F910C94181F08952FE0929F800D11241B
:103F9000482F4695469546958770B1E001C0BB0F06
:103FA0008A95EAF785E0489FA001112441535E4FAE
:103FB00080E090E070E0FA01E80FF91FA0819B011A
:103FC000082E02C0369527950A94E2F72170332710
:103FD00021952A272B232A272083019685309105B6
:103FE00051F708952FE0929F800D1124682F669558
:103FF00066956695982F977085E0689FB0011124AB
:1040000061537E4F40E050E080E0FB01E40FF51F7C
:10401000208130E0092E02C0369527950A94E2F7F8
:1040200021703327042E01C0220F0A94EAF7822B55
:104030004F5F5F4F4530510541F70895CF92DF92B2
:10404000EF92FF920F931F93CF93DF93EC01C090F9
:104050000502D0900602E0900702F09008028091DD
:10406000010290910202A0910302B0910402C82AB9
:10407000D92AEA2AFB2A0FE110E0B701A601002E97
:1040800004C076956795579547950A94D2F740FDF9
:1040900005C00150110988F780E007C0BE01802FDC
:1040A0000E94FE0A0197A9F3802FDF91CF911F9103
:1040B0000F91FF90EF90DF90CF900895CF93DF9313
:1040C000EC010E941E20BE010E94FE0ADF91CF91EA
:1040D00008951F93CF93DF93EB019091960199235D
:1040E00021F0CB010E945E2013C0882349F0CB0150
:1040F0000E941E20182F682FCE010E94C41F04C0EA
:10410000CB010E94F21F182FBE01812F0E94FE0AD0
:10411000DF91CF911F910895809109028595859532
:1041200085950895809109028770089598E0899F88
:1041300090011124622B609309020C94381F409166
:1041400009028095842380930902982F977069F45F
:1041500050E0282F332727FD30954217530729F0C9
:104160008595859585950C94531F08959091090226
:10417000977081E009F480E00895E0910201F091E8
:10418000030180912D028083E0910201F0910301EF
:10419000808190912C02892B8083E0910201F09123
:1041A0000301808190912B02892B808390910A02D8
:1041B000992381F0E0910201F09103018081892B24
:1041C000808380910201909103010E9481218111DD
:1041D00010920A0280910201909103010C9425151E
:1041E00080912D02089590912D02982B90932D028D
:1041F0000895809590912D02982390932D02089513
:1042000010922D02089590912C02982B90932C02DD
:104210000895809590912C02982390932C020895F4
:1042200010922C02089590912B02982B90932B02C0
:104230000895809590912B02982390932B020895D6
:1042400010922B02089580930A02089510920A0298
:10425000089580910A0208956DEE7EEF80E090E06F
:104260000E941F3260E082E090E00E94013260E034
:1042700083E090E00E94013260E084E090E00E94E0
:10428000013260E085E090E00E94013260E086E06B
:1042900090E00E94013240E050E0BA0188E090E0F6
:1042A0000C94133280E090E00E94FB3121E08D3EBF
:1042B0009E4F09F020E0822F089582E090E00C9458
:1042C000ED31682F82E090E00C94013283E090E0C1
:1042D0000C94ED31682F83E090E00C94013284E07F
:1042E00090E00C94ED31682F84E090E00C94013262
:1042F00086E090E00C94ED31682F86E090E00C941D
:10430000013220E030E040E0FC01E20FF31F518178
:1043100051114F5F2F5F3F4F2F313105A9F7842F88
:10432000089520E030E04FEFFC01E20FF31F5281CF
:10433000561799F04F3F19F4511101C0422F2F5FCA
:104340003F4F2E31310581F74F3F39F0FC01E40F2B
:10435000F11D47FDFA9562830895089520E030E04D
:10436000FC01E20FF31F4281461301C012822F5F4E
:104370003F4F2E313105A1F70895262F269526951A
:1043800026952F3170F4FC01E20FF11D677021E0DA
:1043900030E0062E01C0220F0A94EAF78181822BB9
:1043A00081830895262F2695269526952F3178F41A
:1043B000FC01E20FF11D677021E030E0062E01C024
:1043C000220F0A94EAF720958181282321830895FA
:1043D00020911401222329F02091970227FD0C94AB
:1043E000BD210C94912120911401222329F02091C8
:1043F000970227FD0C94D2210C94AE2120E030E0EE
:10440000FC01E20FF31F11822F5F3F4F2F31310567
:10441000B9F7089508950C940A2280919E02843081
:1044200049F110922F0220E488E190E00FB6F89451
:10443000A895809360000FBE2093600080E00E94EA
:10444000720A80E00E94E20A0E940B2283B7817FF9
:10445000846083BF83B7816083BF7894889583B776
:104460008E7F83BF88E10FB6F8948093600010922E
:1044700060000FBE089508950895CF930E943B22D7
:104480000E94180E0E943C22C0E08C2F0E94C40E95
:10449000892B29F4CF5FC530C1F780E001C081E0EE
:1044A000CF91089508950C9452220E94C81A0E9438
:1044B00091260E9419150E94E20A0C9453221F9221
:1044C0000F920FB60F9211248F939F93AF93BF93C8
:1044D00080912F02811113C08091930290919402D8
:1044E000A0919502B09196024196A11DB11D8093B5
:1044F000930290939402A0939502B0939602BF9179
:10450000AF919F918F910F900FBE0F901F901895B4
:1045100082E084BD93E095BD9AEF97BD80936E00D5
:1045200008952FB7F8948091930290919402A091EE
:104530009502B09196022FBF0895CF92DF92EF922D
:10454000FF920F931F932FB7F894409193025091CD
:10455000940260919502709196022FBF6A017B01CF
:10456000EE24FF248C0120E030E0C016D106E206E4
:10457000F30610F441505109481B590BCA011F9111
:104580000F91FF90EF90DF90CF90089578941F9255
:104590000F920FB60F9211248F939F93AF93BF93F7
:1045A0008091930290919402A0919502B09196020D
:1045B0000196A11DB11D8093930290939402A09344
:1045C0009502B0939602BF91AF919F918F910F90FA
:1045D0000FBE0F901F90189581E08093E00080E25D
:1045E0008093D8001092C9008FE19EE40197F1F703
:1045F00000C0000087E090EBDC018093A70290935D
:10460000A802A093A902B093AA022CE088E190E04E
:104610000FB6F894A895809360000FBE20936000B9
:10462000FFCFBF92CF92DF92EF92FF920F931F9333
:10463000CF93DF93B12C01E010E0E82EF12C8B2D0D
:104640000E94C40E6C01C0E0D0E098010C2E02C0A4
:10465000220F331F0A94E2F72C213D21232B29F44A
:104660002196CF30D10589F70AC06C2F7B2D80E0D1
:104670000E94E40AE816F90699F781E005C0B394B0
:1046800085E0B812DCCF80E0DF91CF911F910F91D0
:10469000FF90EF90DF90CF90BF900895CF93C82FF9
:1046A0008CE20E941123882321F08C2FCF910C944F
:1046B000112380E0CF910895CF930E945221811160
:1046C00002C00E942C21C5E6C15049F00E94180E7C
:1046D0008FE39CE90197F1F700C00000F5CF89E274
:1046E0000E944E2381110DC18AE20E944E23811146
:1046F0000E942C2185E00E944E2381110E94EC2211
:104700000E945D2180932E0287E00E944E23882321
:1047100099F18BE10E944E23882351F090912E0253
:1047200091FB882780F921E0822780FB91F922C044
:104730008EE00E944E23882351F090912E0292FB2E
:10474000882780F921E0822780FB92F913C080E15D
:104750000E944E2390912E02882341F093FB8827DC
:1047600080F921E0822780FB93F904C0892F80958E
:1047700080FB90F990932E0280912E020E9461217D
:104780000E946F2190E0909398028093970280EEB0
:104790000E944E23882341F080919702982F909594
:1047A00090FB80F98093970289E30E944E2388232F
:1047B00059F09091970291FB882780F921E0822798
:1047C00080FB91F99093970282EE0E944E238823FA
:1047D00059F09091970292FB882780F921E0822777
:1047E00080FB92F99093970286EE0E944E238823D5
:1047F00059F09091970293FB882780F921E0822756
:1048000080FB93F99093970283EE0E944E238823B6
:1048100059F09091970294FB882780F921E0822734
:1048200080FB94F99093970285E30E944E2388239E
:1048300059F09091970295FB882780F921E0822713
:1048400080FB95F99093970281E30E944E23882381
:1048500059F09091970296FB882780F921E08227F2
:1048600080FB96F99093970281E10E944E23882362
:1048700059F09091970297FB882780F921E08227D1
:1048800080FB97F990939702809197020E94732181
:1048900087E20E944E23C82F8EE10E944E23811191
:1048A000C2608FE10E944E238111C46080E20E94A9
:1048B0004E238111C86081E20E944E238111C061A4
:1048C00082E20E944E238111C06283E20E944E2345
:1048D0008111C06484E20E944E23882311F0C068D5
:1048E00002C0CC2329F08C2F0E946A216C2F03C0B8
:1048F0000E946621682F70E080E090E0CF910C94D8
:10490000DD1ECF9108958091320280FF0BC060912F
:10491000070185E0689FB00111247595679575952D
:1049200067952AC081FF09C06091070185E0689FF3
:10493000B0011124759567951FC082FF07C0609173
:10494000070185E0689FB001112416C04091330231
:104950004423C9F060910601461788F720910701AA
:1049600085E0289F90011124429FC001439F900D34
:10497000112470E00E9497316038710540F4611590
:10498000710539F002C065E070E0862F08958FE769
:10499000089581E008958091320280FF08C06091FF
:1049A000050170E0759567957595679521C081FF44
:1049B00006C06091050170E07595679519C082FF8A
:1049C00004C06091050170E010C08091330288231B
:1049D000C1F0609104018617A0F790910501989F9E
:1049E000C001112470E00E9497316038710528F4ED
:1049F0006115710521F0862F08958FE7089581E0F4
:104A0000089561E070E0F4CF803F21F40E94832498
:104A1000819504C0813F29F40E948324809336024B
:104A20000895823F21F40E948324819504C0833F2E
:104A300029F40E948324809335020895893F19F454
:104A40000E94CB2405C08A3F31F40E94CB2481957B
:104A50008093370208958B3F21F40E94CB248195E7
:104A600004C08C3F29F40E94CB248093380208951F
:104A7000843F21F480913402816017C0853F21F486
:104A800080913402826011C0863F21F4809134020B
:104A900084600BC0873F21F480913402886005C098
:104AA000883F31F48091340280618093340208950C
:104AB0008D3F21F48091320281600BC08E3F21F442
:104AC00080913202826005C08F3F29F480913202CA
:104AD0008460809332020895803F39F480913602D9
:104AE00087FF6CC01092360269C0813F29F4809123
:104AF00036021816BCF362C090913502823F29F449
:104B000097FF5CC01092350259C0833F19F4191603
:104B1000CCF354C0893F41F48091370218160CF051
:104B20004DC0109237024AC08A3F29F48091370263
:104B300087FF44C0F6CF8B3F39F48091380287FF5E
:104B40003DC0109238023AC08C3F29F4809138025F
:104B50001816BCF333C0843F21F4809134028E7F59
:104B600017C0853F21F4809134028D7F11C0863FAC
:104B700021F4809134028B7F0BC0873F21F4809118
:104B80003402877F05C0883F31F4809134028F7EE4
:104B90008093340213C08D3F21F4809132028E7FC6
:104BA0000BC08E3F21F4809132028D7F05C08F3F74
:104BB00029F4809132028B7F8093320280913502FA
:104BC00081110EC08091360281110AC08091370296
:104BD000811106C080913802811102C01092330207
:104BE000089584E392E00E9430150E9491229093F0
:104BF00031028093300208951F93CF93DF93809109
:104C00003002909131020E949D2240913302442350
:104C100021F02091080130E006C0209109015AE0FE
:104C2000259F900111248217930708F46AC0809190
:104C3000350210913602D0913702C09138028111AD
:104C400007C0111105C0D11103C0CC2309F459C00C
:104C50004F3F19F04F5F40933302181624F40E941F
:104C60008324809335028091350287FF05C00E941E
:104C70008324819580933502111624F40E948324A5
:104C8000809336028091360287FF05C00E948324FC
:104C900081958093360220913502222379F040914C
:104CA0003602442359F055EB25039001112430932B
:104CB00035024503C0011124909336021D1624F4D9
:104CC0000E94CB24809337028091370287FF05C072
:104CD0000E94CB248195809337021C1624F40E94F5
:104CE000CB24809338028091380287FF05C00E9450
:104CF000CB24819580933802DF91CF911F910C9442
:104D0000F125DF91CF911F910895E4E3F2E085E072
:104D1000DF011D928A95E9F7109233021092320258
:104D200008950E945221811102C00E942C210E94EC
:104D3000782180939902282F269530E0263031057E
:104D400024F081708A60809399028091990280FF9B
:104D500002C0869501C080E00C94720A20919902ED
:104D6000322F3695832F90E0059744F491E0930F0E
:104D7000990F822F8170892B8093990280919902DB
:104D80008160809399020E947C218091990286958E
:104D90000C94720A80919902982F969591F09158EF
:104DA000990F8170892B809399028E7F91E009F48D
:104DB00090E08091990290FB80F9809399020E9483
:104DC0007C218091990286950C94720A80919902B7
:104DD000982F909590FB80F980939902813019F477
:104DE00083E080939902809199020E947C218091B6
:104DF000990280FF02C0869501C080E00C94720A7F
:104E000030919902232F26952F5F2F77822F90E0E4
:104E1000317006972CF4220F232B2093990202C0A5
:104E200030939902809199028E7F91E009F490E08D
:104E30008091990290FB80F9809399020E947C21D5
:104E40008091990286950C94720A863008F085E06C
:104E5000880F909199029170982B909399029E7F60
:104E600021E009F420E08091990220FB80F98093F1
:104E700099020E947C218091990286950C94720A75
:104E80008091590208950F931F93CF93DF9300D021
:104E90001F92CDB7DEB78C010E94B929823011F084
:104EA000843019F583E089831B830A838093E900AA
:104EB0008FEF9091E800815095FD06C095ED9A9591
:104EC000F1F700008111F5CF8091E80085FF0DC05A
:104ED00040E050E063E070E0CE0101960E94D629E8
:104EE0008091E8008E778093E8000F900F900F90EC
:104EF000DF91CF911F910F910895CF93DF9300D051
:104F00001F92CDB7DEB720919E02243031F522E00A
:104F10002983805891099B838A8383E08093E900E9
:104F20008FEF9091E800815095FD06C095ED9A9520
:104F3000F1F700008111F5CF8091E80085FF0DC0E9
:104F400040E050E063E070E0CE0101960E94D62977
:104F50008091E8008E778093E8000F900F900F907B
:104F6000DF91CF910895CF93DF93EC010E94B9298F
:104F7000823011F08430F9F482E08093E9008FEF01
:104F80009091E800815095FD06C095ED9A95F1F756
:104F900000008111F5CF8091E80085FF0CC040E052
:104FA00050E065E070E0CE010E94D6298091E800D3
:104FB0008E778093E800DF91CF910895CF93DF93B0
:104FC000EC010E94B929823019F0843009F047C001
:104FD000809114018823E1F08091970287FF18C027
:104FE00084E08093E9008FEF9091E800815095FD77
:104FF00006C095E19A95F1F700008111F5CF8091F7
:10500000E80085FF2CC040E050E060E270E017C08F
:1050100081E08093E9008FEF9091E800815095FD49
:1050200006C095ED9A95F1F700008111F5CF8091BA
:10503000E80085FF14C040E050E068E070E0CE0179
:105040000E94D6298091E8008E778093E80080E264
:10505000FE01A9E3B2E001900D928A95E1F7DF919C
:10506000CF91089580919D02811109C00E94682B03
:105070000E94C52B8091E20084608093E200089535
:1050800010929D020895089508950C94552242E0CF
:1050900061EC81E00E94E22A42E061EC82E00E9441
:1050A000E22A42E061EC83E00E94E22A42E261EC03
:1050B00084E00C94E22A8091A002833009F455C068
:1050C00030F4813071F0823009F48EC008958A3056
:1050D00009F47AC08B3009F460C0893009F09CC0B3
:1050E00020C080919F02813A09F096C08091E8002B
:1050F000877F8093E8008091A3029091A402892B7E
:1051000021F060E080E090E003C060E289E392E09B
:1051100070E00E941F2A8091E8008B778093E8005E
:10512000089580919F02813209F076C08091A30298
:105130009091A402009719F0039709F06DC0809137
:10514000E800877F8093E8008091E80082FD05C039
:1051500080919E028111F8CF5FC08091F100809311
:1051600059028091E8008B7753C080919F02813A69
:1051700009F052C08091A3029091A402892B09F0FA
:105180004BC08091E800877F8093E8008091E80021
:1051900080FFFCCF8091140136C080919F02813244
:1051A000D9F58091A3029091A402892BA9F5809151
:1051B000E800877F8093E8000E94172B8091A1026E
:1051C000809314010C94C81A80919F02813221F5BA
:1051D0008091E800877F8093E8000E94172B8091E0
:1051E000A20280935A02089580919F02813AA1F40D
:1051F0008091E800877F8093E8008091E80080FF3D
:10520000FCCF80915A028093F1008091E8008E7764
:105210008093E8000C94172B089584B7877F84BF90
:1052200088E10FB6F89480936000109260000FBE82
:1052300080E880936100109261000E9468150E94CE
:10524000682B0E94C52B8091E20084608093E2006D
:1052500078940E94482E0E946C158AE091E00E948A
:10526000141580919E02853069F40E940D22809170
:105270009C028823B1F30E943D22882391F30E946F
:10528000C029EFCF0E9476150E94A214EACF0C9499
:105290004929292F332723303105A9F06CF4213017
:1052A000310509F448C02230310509F049C08DE6C6
:1052B00090E023E53CE048C021323105F9F022328C
:1052C000310549F13DC099278130910571F02CF4E9
:1052D000892BB1F5EFE4FCE00DC08230910541F07F
:1052E000039771F5E3E3FCE005C0E5E4FCE002C0F0
:1052F000E9E3FCE0849190E09F0126C064307105F1
:10530000F8F4FB01EE0FFF1FEB5CFE4F20813181B3
:1053100089E090E019C06430710590F4FB01EE0F54
:10532000FF1FE35DFE4F20813181FB01E75DFE4FF2
:10533000808190E009C082E190E020EC3CE004C074
:1053400080E090E020E030E0FA013183208308958E
:105350000895CF93C82F0E94A829C0935B02CF91D4
:10536000089580919E02843011F482E0089581E0D6
:10537000089580915B02811102C00C94B1290895B7
:1053800080E189BD82E189BD09B400FEFDCF809135
:10539000D8008F7D8093D8008091E0008260809358
:1053A000E0008091E00081FDFCCF0895CF92DF9274
:1053B000EF92FF920F931F93CF93DF937C018B01AA
:1053C000EA010E94382B811131C0209731F0888189
:1053D0009981081B190BE80EF91EC12CD12C01155F
:1053E000110519F18091E80085FD14C08091E80055
:1053F0008E778093E800209741F0888199818C0D09
:105400009D1D9983888385E011C00E94382B8823D5
:1054100031F30CC0F70181917F018093F1000150BD
:105420001109FFEFCF1ADF0ADACF80E0DF91CF91C9
:105430001F910F91FF90EF90DF90CF9008952091F2
:10544000A5023091A6022617370748F061157105AD
:1054500039F42091E8002E772093E80001C0B901CB
:10546000FC0120E061157105B9F180919E0288234D
:1054700009F440C0853009F43FC08091E80083FD05
:105480003DC08091E80082FF06C08091E80082FF65
:1054900026C080E008958091E80080FFE3CF20914E
:1054A000F3008091F20090E0922B6115710551F0AC
:1054B0008830910538F421912093F10061507109F1
:1054C0000196F3CF21E0089709F020E08091E800F1
:1054D0008E778093E800C6CF2111C7CFD6CF8091B9
:1054E0009E02882339F0853039F08091E80083FFEF
:1054F000CCCF04C082E0089583E0089581E0089550
:105500002091A5023091A6022617370748F06115B1
:10551000710539F42091E8002E772093E80001C04E
:10552000B901FC0120E061157105C1F180919E0275
:10553000882309F441C0853009F440C08091E80017
:1055400083FD3EC08091E80082FF06C08091E800A4
:1055500082FF27C080E008958091E80080FFE3CFBC
:105560002091F3008091F20090E0922B611571057B
:1055700059F08830910540F424912093F100319640
:10558000615071090196F2CF21E0089709F020E0FF
:105590008091E8008E778093E800C5CF2111C6CFB7
:1055A000D5CF80919E02882339F0853039F08091E3
:1055B000E80083FFCBCF04C082E0089583E0089524
:1055C00081E00895982F973058F59093E900981747
:1055D00039F07091EC002091ED005091F00003C083
:1055E000242F762F50E021FF19C03091EB003E7F31
:1055F0003093EB003091ED003D7F3093ED00309122
:10560000EB0031603093EB007093EC002093ED00E1
:105610005093F0002091EE0027FF07C09F5FD3CF8B
:105620008F708093E90081E0089580E00895809173
:105630009F0287FD05C08091E80080FF0EC012C068
:105640008091E80082FD05C080919E028111F8CF13
:1056500008958091E8008B7708C080919E028111A7
:10566000EACF08958091E8008E778093E80008954E
:105670008091E4009091E50045E62091EC0020FF48
:1056800021C02091E80020FD21C020919E0222230C
:1056900089F0253089F02091EB0025FD0FC0209185
:1056A000E4003091E5002817390739F3415041F003
:1056B000C901E3CF82E0089583E0089581E0089571
:1056C00084E008952091E80022FFDFCF80E0089574
:1056D0000E94D62B0E94DE2BE0EEF0E080818160FC
:1056E0008083E8EDF0E080818F77808319BCA7ED9F
:1056F000B0E08C918E7F8C9380818F7E808310921E
:105700009D0208950F931F93CF93DF930E94D62B92
:105710000E94DE2BC8EDD0E088818F778883888156
:105720008068888388818F7D888319BC10929E024F
:1057300010929A0210929C0210929B0200EE10E0CE
:10574000F80180818B7F808388818160888342E03B
:1057500060E080E00E94E22AE1EEF0E080818E7F4E
:105760008083E2EEF0E080818160808380818860C8
:105770008083F80180818E7F808388818061888327
:10578000DF91CF911F910F910895E8EDF0E08081B6
:105790008F7E8083E7EDF0E080818160808384E00C
:1057A00082BF81E080939D020C94822BE8EDF0E0B3
:1057B00080818E7F80831092E20008951092DA003B
:1057C0001092E10008951F920F920FB60F921124CC
:1057D0002F933F934F935F936F937F938F939F93F9
:1057E000AF93BF93EF93FF938091E10082FF0BC0D3
:1057F0008091E20082FF07C08091E1008B7F80935F
:10580000E1000E94472E8091DA0080FF1FC0809146
:10581000D80080FF1BC08091DA008E7F8093DA0071
:105820008091D90080FF0DC080E189BD82E189BDF2
:1058300009B400FEFDCF81E080939E020E943228D1
:1058400005C019BC10929E020E9440288091E10080
:1058500080FF19C08091E20080FF15C08091E200B6
:105860008E7F8093E2008091E20080618093E2006D
:105870008091D80080628093D80019BC85E0809325
:105880009E020E9444288091E10084FF30C08091F4
:10589000E20084FF2CC080E189BD82E189BD09B4AA
:1058A00000FEFDCF8091D8008F7D8093D80080913D
:1058B000E1008F7E8093E1008091E2008F7E8093F3
:1058C000E2008091E20081608093E20080919A0280
:1058D000882311F084E007C08091E30087FF02C0B5
:1058E00083E001C081E080939E020E944528809160
:1058F000E10083FF29C08091E20083FF25C08091F1
:10590000E100877F8093E10082E080939E02109205
:105910009A028091E1008E7F8093E1008091E20005
:105920008E7F8093E2008091E20080618093E200AC
:1059300042E060E080E00E94E22A8091F00088600E
:105940008093F0000E944328FF91EF91BF91AF91A7
:105950009F918F917F916F915F914F913F912F9187
:105960000F900FBE0F901F9018951F920F920FB6B9
:105970000F9211242F933F934F935F936F937F93D5
:105980008F939F93AF93BF93CF93EF93FF93C09168
:10599000E900CF708091EC001092E9008091F00056
:1059A000877F8093F00078940E94F12C1092E90098
:1059B0008091F00088608093F000C093E900FF912F
:1059C000EF91CF91BF91AF919F918F917F916F9107
:1059D0005F914F913F912F910F900FBE0F901F90AD
:1059E00018951F93CF93DF93CDB7DEB7AA970FB665
:1059F000F894DEBF0FBECDBFEFE9F2E08091F10079
:105A0000819322E0E73AF207C9F70E945B28809170
:105A1000E80083FF24C120919F023091A002832FD0
:105A200090E08A30910508F01AC1FC01EE55FF4F55
:105A30000C94CD31203821F0223809F010C108C073
:105A400080919B0290919C02992389F082600FC003
:105A50008091A3028F70873008F001C18093E90024
:105A60008091EB0085FB882780F91092E9009091E6
:105A7000E800977F9093E8008093F1001092F10086
:105A8000CCC0822F8D7F09F0EAC0222319F022308A
:105A900061F0E5C08091A102813009F0E0C03330AF
:105AA00009F080E080939C022AC08091A1028111BC
:105AB00026C02091A3022F708FEF820F863008F04E
:105AC000CEC02093E9008091EB0080FF18C0809148
:105AD000EB00333011F4806210C080618093EB00E2
