:100000000C94E8060C942C070C942C070C942C07E9
:100010000C942C070C942C070C942C070C942C0794
:100020000C942C070C942C070C94EF2B0C94C12CE3
:100030000C946B220C942C070C942C070C942C071A
:100040000C942C070C942C070C942C070C942C0764
:100050000C942C070C94D2220C942C070C942C0793
:100060000C942C070C942C070C942C070C942C0744
:100070000C942C070C942C070C942C070C942C0734
:100080000C942C070C942C070C942C070C942C0724
:100090000C942C070C942C070C942C070C942C0714
:1000A0000C942C070C942C070C942C0755075F0715
:1000B000690773077C078607910755085B085F0887
:1000C000620866086A086E08720877087B087F086D
:1000D000830886088A088E08920896089B081D18CF
:1000E0001D18571857189A18BC18521A521A021984
:1000F000521AA919A919201A271A521A4D1AB619F3
:10010000B619B619B619B619B619B619B619B61977
:10011000B619B619B619B619B619B619B619C81955
:10012000D819DF19E619F019E61AE61AF91AF91AB8
:10013000EF1AF91AF91AF91AE61AE61AF51AF91A5B
:10014000F91AF51A262D4D2D3B2E4D2D3B2E952DB2
:10015000B82D3B2E0E2E1D2E07634236B79BD8A717
:100160001A39685618AEBAAB558C1D3CB7CC5763DC
:10017000BD6DEDFD753EF6177231BF000000803F8A
:1001800005A84CCDB2D44EB93836A9020C50B9915D
:100190008688083CA6AAAA2ABE000000803F00016B
:1001A000E3010F740F02E3020F0000F001F002F010
:1001B00003F004F005F006F029001E001F002000E7
:1001C00021002200230024002500260027002D0006
:1001D0002E0035002A002B00000014001A00080031
:1001E000150017001C0018000C00120013002F004F
:1001F000300031003900000004001600070009003B
:100200000A000B000D000E000F0033003400280020
:100210000000E100E1001D001B00060019000500C0
:1002200011001000360037000000386252004C0008
:10023000E000E3000000E2002C000000025100009A
:100240002C000000E2000151500051004F0001005D
:100250003A003B003C003D003E003F0040004100B2
:10026000420043004400450001000100010000007D
:100270000100010001000100010001000100010076
:100280000100010001000100010001000000010067
:100290000100010001000100010001000100010056
:1002A0000100010001000000010001000100010047
:1002B0000100010001000100010001000100000037
:1002C00000300100010001000100000001000100F8
:1002D0000000010000000100000001000100010019
:1002E0000100010001000100010001000100010006
:1002F00001000100010001000100010001000100F6
:10030000010001000000C05CC15CC45CC35CC65C51
:10031000C55CC85CC75CCB5CCC5C01000100010023
:1003200001000000AA00A900AC00AB00AE00010073
:1003300001000100010001000100010000000100B6
:1003400001000100010001000100010001000100A5
:100350000100010000000100010001000100010096
:100360000000010001000000010000000100000089
:100370000100010001000100010001000100010075
:100380000100010001000100010001000100010065
:100390000100010001000100010000000100010056
:1003A0000100010001000100010001000100010045
:1003B0000100010001000100000001000100010036
:1003C0000100010001000100010001000100010025
:1003D0000100000001000100010001000100010016
:1003E0000100010001000100010000000100010006
:1003F00001000100010000000100010000000100F7
:1004000000000100000001000100010001000100E6
:1004100001000100010001000100010001000100D4
:1004200001000100010001000100010001000100C4
:1004300000000100010001000100010001000100B5
:1004400001000100010001000100010001000000A5
:100450000100010001000100010001000100010094
:100460000100010001000100000001000100010085
:100470000100010001000100010001000100010074
:100480000000010001000100010001000000010066
:100490000100000001000000010000000100010057
:1004A0000100010001000100010001000100010044
:1004B0000100010001000100010001000100010034
:1004C0000100010001000000010001000100010025
:1004D0000100010001000100010001000100010014
:1004E0000100010000000100010001000100010005
:1004F00001000100010001000100010001000000F5
:1005000001000100010001000100010001000100E3
:1005100001000100010000000100010001000100D4
:1005200001000000010001000000010000000100C6
:1005300000000100010001000100010001000100B4
:1005400001000100010001000100010001000100A3
:100550000100010001000100010001000000010094
:100560000100010001000100010001000100010083
:100570000100010001000100010000000100010074
:100580000100010001000100010001000100010063
:100590000100010000000100010001000100010054
:1005A0000100010001000100010001000000010044
:1005B0000100010001000100000001000100000035
:1005C0000100000001000000010001000100010025
:1005D0000100010001000100010001000100010013
:1005E0000100010001000100010001000100010003
:1005F00001000000010001000100010001000100F4
:1006000001000100010001000100010001000100E2
:1006100000000100010001000100010001000100D3
:1006200001000100010001000100000001000100C3
:1006300001000100010001000100010001000100B2
:1006400001000000010001000100010001000000A4
:100650000100010000000100000001000000010095
:100660000100010001000100010001000100010082
:100670000100010001000100010001000100010072
:100680000100010001000100000001000100010063
:100690000100010001000100010001000100010052
:1006A0000100010001000000010001000100010043
:1006B0000100010001000100010001000100010032
:1006C0000000010001000100010001000100010023
:1006D0000100010001000100000001000100010013
:1006E0000100010000000100010000000100000005
:1006F00001000000010001000100010001000100F3
:1007000001000100010001000100010001000100E1
:1007100001000100010001000100010001000000D2
:1007200001000100010001000100010001000100C1
:1007300001000100010001000100010000000100B2
:1007400001000100010001000100010001000100A1
:100750000100010001000000010001000100010092
:100760000100010001000100010001000100000082
:100770000100010001000100010000000100010072
:100780000000010000000100000001000100010064
:100790000100010001000100010001000100010051
:1007A0000100010001000100010001000100010041
:1007B0000100010000000100010001000100010032
:1007C0000100010001000100010001000100010021
:1007D0000100000001000100010001000100010012
:1007E0000100010001000100010001000000010002
:1007F00001000100010001000100010001000100F1
:1008000001000100000001000100010001000100E1
:1008100000000100010000000100000001000000D4
:1008200001000100010001000100010001000100C0
:1008300001000100010001000100010001000100B0
:1008400001000100010001000100000001000100A1
:100850000100010001000100010001000100010090
:100860000100010001000100000001000100010081
:100870000100010001000100010001000100010070
:100880000100000001000100010001000100010061
:100890000100010001000100010000000100010051
:1008A0000100010001000000010001000000010042
:1008B0000000010000000100010001000100010032
:1008C0000100010001000100010001000100010020
:1008D0000100010001000100010001000100010010
:1008E0000000010001000100010001000100010001
:1008F00001000100010001000100010001000000F1
:1009000001000100010001000100010001000100DF
:1009100001000100010001000000010001000100D0
:1009200001000100010001000100010001000100BF
:1009300000000100010001000100010000000100B1
:1009400001000000010000000100000001000100A2
:10095000010001000100010001000100010001008F
:10096000010001000100010001000100010001007F
:100970000100010001000000010001000100010070
:10098000010001000100010001000100010001005F
:100990000100010000000100010001000100010050
:1009A0000100010001000100010001000100000040
:1009B000010001000100010001000100010001002F
:1009C0000100010001000000010001000100010020
:1009D0000100000001000100000001000000010012
:1009E0000000010001000100010001000100010000
:1009F00001000100010001000100010001000100EF
:100A000001000100010001000100010000000100DF
:100A100001000100010001000100010001000100CE
:100A200001000100010001000100000001000100BF
:100A300001000100010001000100010001000100AE
:100A4000010001000000010001000100010001009F
:100A5000010001000100010001000100000001008F
:100A60000100010001000100000001000100000080
:100A70000100000001000000010001000100010070
:100A8000010001000100010001000100010001005E
:100A9000010001000100010001000100010001004E
:100AA000010000000100010001000100010001003F
:100AB000010001000100010001000100010001002E
:100AC000000001000100010001000100010001001F
:100AD000010001000100010001000000010001000F
:100AE00001000100010001000100010001000100FE
:100AF00001000000010001000100010001000000F0
:100B000001000100000001000000010000000100E0
:100B1000010001000100010000046801F000B400C0
:100B200078005A007F3F1F643214643214783C1EF0
:100B30001E140A050000000000010101010101016D
:100B40000101020202020202020202030303030382
:100B5000030303040404040404050505050506064F
:100B600006060607070707080808080909090A0A08
:100B70000A0A0B0B0B0C0C0C0D0D0D0E0E0F0F0FAC
:100B80001010111111121213131414151516161733
:100B900017181819191A1A1B1C1C1D1D1E1F1F209F
:100BA000202122222324252526272728292A2B2BEA
:100BB0002C2D2E2F2F30313233343536363738390D
:100BC0003A3B3C3D3E3F4041424344464748494A08
:100BD0004B4C4D4F50515253555657585A5B5C5ED3
:100BE0005F606263646667696A6C6D6E707173746E
:100BF0007678797B7C7E8081838486888A8B8D8FD2
:100C000091929496989A9B9D9FA1A3A5A7A9ABADFD
:100C1000AFB1B3B5B7B9BBBDBFC1C4C6C8CACCCFED
:100C2000D1D3D6D8DADCDFE1E4E6E8EBEDF0F2F59B
:100C3000F7FAFCFF0403300000000A0364007A00A6
:100C4000360030000000080364006F0075000000EB
:100C50000403090409026D00040100A0FA0904005C
:100C600000010301010009211101000122400007D8
:100C700005810308000A09040100010301020009BB
:100C80002111010001224D000705820308000A0915
:100C900004020001030000000921110100012236B5
:100CA000000705830308000A09040300010300008C
:100CB00000092111010001223900070584032000E9
:100CC000011201100100000008EDFE60600100014A
:100CD00002030105010906A101050719E029E7152D
:100CE000002501950875018102050819012905955E
:100CF00005750191029501750391010507190029F8
:100D0000F71500250195F875018102C005010980DC
:100D1000A10185021601002603001A81002A830022
:100D2000751095018100C0050C0901A1018503160C
:100D30000100269C021A01002A9C0275109501816F
:100D400000C005010902A1010901A100050919015D
:100D50002905150025019505750181029501750389
:100D600081010501093009311581257F950275083A
:100D7000810609381581257F950175088106050CC6
:100D80000A38021581257F950175088106C0C005C6
:100D9000010906A101050719E029E71500250195BC
:100DA000087501810295017508810105081901295D
:100DB00005950575019102950175039101050719C6
:100DC0000029FF150026FF00950675088100C00068
:100DD00011241FBECFEFDAE0DEBFCDBF04B603FEA5
:100DE00024C08091A7029091A802A091A902B0917D
:100DF000AA028730904BA740B04BB9F41092A702DB
:100E00001092A8021092A9021092AA0214BE84B7EE
:100E1000877F84BF88E10FB6F894809360001092BA
:100E200060000FBEE0E0F8E3099511E0A0E0B1E05A
:100E3000E6E8F4E602C005900D92AE33B107D9F7AB
:100E400022E0AEE3B1E001C01D92A73AB207E1F79C
:100E50000E9419290C9441320C940000662319F069
:100E6000613031F00CC0FC01828181110BC007C0E0
:100E7000FC018281882319F08EE991E0089580E0D9
:100E800090E008958FE991E0089508950895462F20
:100E900050E04730510508F050C0FA01EA5AFF4FC0
:100EA000DC0112968C910C94D931882309F445C049
:100EB0000E94B51181E00E949F1140E03AC0882352
:100EC000E1F10E94B51181E00E949F1140E061E6CE
:100ED00031C0882391F10E94B51181E00E949F11D9
:100EE00040E06FEF27C0882341F10E94B51181E0F7
:100EF0000E949F1140E008C08823F9F00E94B511BC
:100F000081E00E949F114FEF6FEF09C08823A9F085
:100F10000E94B51181E00E949F114FEF60E080E0D8
:100F20000AC0882351F00E94B51181E00E949F11F0
:100F300040EF60E08FEF0C94C30F089581FF02C073
:100F4000229A01C022982A98089581E0089581E0AC
:100F500008950C94A7070E94D41A2FEF84E39CE015
:100F6000215080409040E1F700C000000C94F8222E
:100F7000FF920F931F93CF93DF938C01FC01C081ED
:100F8000D18180919601811113C08281882349F01B
:100F9000CE010E942A20F82E682FCE010E94D01F79
:100FA00004C0CE010E94FE1FF82EBE018F2D04C08A
:100FB000CE010E942A20BE010E94F00AEC01B80175
:100FC0000E94A907882309F490C2B801CE010E94AB
:100FD000860D882309F489C2C93CFCE5DF0741F48A
:100FE000F8018281882309F480C20E947D0F7DC2AE
:100FF000CA3C8CE5D80708F037C1C13C9CE5D9074D
:1010000061F4F8018281882309F46FC20E94FC20F8
:101010008272F1F00E94AC1168C2C23CECE5DE07BE
:10102000D0F0F8018281C53CFCE5DF0709F4F1C08E
:1010300008F001C1C33CECE5DE0709F4F0C008F09C
:10104000F4C0882309F451C20E94FC20827211F37B
:101050000E94A2114AC2C531FCE5DF0708F0A4C016
:10106000C2308CE5D80708F478C0F8018281882363
:1010700009F47FC00E945E21811102C00E943821C4
:101080000E947B2190E09093980280939702FE014A
:10109000E350FC45E231F10520F4E35AFF4F0C9494
:1010A000D93180919702816003C08091970282605C
:1010B000809397024BC0809197028460F9CF809112
:1010C000970213C0809197028061F2CF80919702BE
:1010D0008062EECF809197028064EACF8091970280
:1010E0008068E6CF8091970284608860E1CF80912C
:1010F00097028E7FDDCF809197028D7FD9CF80912F
:1011000097028B7FD5CF8091970213C08091970271
:101110008F7ECECF809197028F7DCACF809197022C
:101120008F7BC6CF809197028F77C2CF8091970235
:101130008B7F877FBDCF9091970297FB882780F99F
:1011400021E0822780FB97F9909397028091970284
:101150000E947F210E94D41AC8C1C1159CE5D907FD
:1011600081F0C130DC45A9F081E080934301809398
:101170004401C801DF91CF911F910F91FF900C9412
:10118000A507F8018281882309F4AFC10E94AB074B
:10119000ACC1F8018281882309F4A7C180912E0295
:1011A000816080932E02A1C1C531FCE5DF0729F5DE
:1011B0000E94FC20382FF801228180910201909139
:1011C0000301222371F03A7A21E009F420E0209310
:1011D0003E01222311F065E301C069E20E94F4217F
:1011E00009C020913E01222311F065E301C069E2AC
:1011F0000E94FF210E94C92078C1C03CDC4509F053
:10120000B3CFF8018281882309F46FC10E940D12C7
:101210006CC1882309F469C10E94E51066C1882366
:1012200009F463C10E94AD1060C1882309F45DC157
:101230000E94C6105AC1C73C9CE5D90731F48823E7
:1012400009F453C10E941A1150C1C83CDC4530F466
:10125000882309F44AC10E94001147C1882309F478
:1012600044C10E94351141C1C13DFCE5DF0749F48D
:10127000F8018281882309F438C188E10E949F1116
:1012800034C1C23D8CE5D80708F087C0F8018281DF
:10129000CD3CFCE5DF07A1F4882309F426C10E94B8
:1012A0006F0F663071058105910540F00E946F0F48
:1012B000683071058105910508F4CACE86E0DECF5D
:1012C000CE3C9CE5D90730F5CB3CECE5DE0729F4B4
:1012D000882309F40AC181E0D1CFCC3CDC4530F44D
:1012E000882309F402C10E94920FFFC0882309F4E9
:1012F000FCC00E946F0F623071058105910540F0BE
:101300000E946F0F653071058105910508F4A0CE2C
:1013100082E0B4CFCF3C9CE5D907A1F4882309F43F
:10132000E4C00E946F0F6F3071058105910540F098
:101330000E946F0F643171058105910508F488CE14
:101340008FE09CCFC03DDC45A0F4882309F4CDC0DC
:101350000E946F0F693071058105910540F00E9470
:101360006F0F6E3071058105910508F471CE89E02B
:1013700085CF882309F4B9C00E946F0F65317105CC
:101380008105910540F00E946F0F6731710581055D
:10139000910508F45DCE85E171CFC53DFCE5DF0721
:1013A00039F5F8018281882361F0109244010E948E
:1013B0009D22909342018093410180E20E94CD17CB
:1013C00094C08091440181110FC08091410190919E
:1013D00042010E94A922883C910530F487E20E94D4
:1013E000741687E20E946C1780E20E94D4177DC0B9
:1013F000C63D8CE5D80708F043C0F8018281C33DA3
:10140000FCE5DF0729F4882309F46FC083E236CFB7
:10141000C43DDC45A0F4882309F467C00E946F0F27
:10142000693171058105910540F00E946F0F6232AC
:1014300071058105910508F40BCE89E11FCF882342
:1014400051F0109243010E949D229093400180939D
:101450003F0182E0B3CF8091430181110FC08091A1
:101460003F01909140010E94A922883C910530F4EF
:1014700086E20E94741686E20E946C1782E0B5CF65
:10148000C93DECE5DE0731F4F8018281882369F17A
:1014900080E009C0CA3DFCE5DF0741F4F801828124
:1014A000882319F182E00E94B5291FC0C63DDC45A2
:1014B00009F05ACEF8018281811177CF80914401E1
:1014C000811192CF80914101909142010E94A92205
:1014D000883C910508F088CF80E20E94D41788E20A
:1014E0000E94741688E20E946C1780E0DF91CF9111
:1014F0001F910F91FF9008950C94D40DCF92DF921D
:10150000EF92FF92863030F4811105C090918000F7
:101510009F7D04C085E09091800090629093800050
:10152000282F30E0AFEFBFEF0E94DF3125E030E041
:1015300040E050E00E94B731C9012C3764E1360722
:1015400028F469E070E00E948F3129C0DA01C901F6
:101550008A50974DAF4FBF4F6627782F892F9A2F0C
:1015600025EF38E241E050E00E94B73169017A018D
:10157000CA01B9010E947F319B01AC01C701B601CC
:101580000E947F31BB27A92F982F872F009721E03A
:10159000A207B10511F0BC0102C06FEF7FEF70939D
:1015A0008B0060938A00FF90EF90DF90CF900895BA
:1015B000269A2E9882E28093800089E180938100B0
:1015C0008FEF9FEF90938700809386000C949D2669
:1015D0000E94D80A0C94D20D0C949E070C94EC0A2D
:1015E0009FE0799FF00111249BE4899FE00DF11D9C
:1015F0001124E60FF11DEE0FFF1FE854FE4F8591F9
:1016000094910895880F991F86559E4FFC018591EE
:1016100094910895CF93DF930E94F00A0E94E60C04
:10162000EC01811521E5920708F043C0811530E5F2
:10163000930708F021C1883E910508F5803E910589
:1016400008F0C0C1883A910578F4853A910508F010
:101650009EC08130910509F4B5C108F46CC1843095
:10166000910508F0AFC167C18D3B910508F49AC0A0
:10167000803C910508F45FC1805C9109ECC0C11504
:1016800080E3D80780F4C11520E2D20708F0E1C05A
:10169000C03FD10508F44FC1CF3FD10511F008F08C
:1016A00091C1D0658FC1C11530E4D30708F0E1C006
:1016B000D6C0C11589E5D80740F5C11528E5D20780
:1016C00008F025C1C11534E5D30778F4C11583E5C9
:1016D000D80708F002C1C11522E5D20708F0E8C01A
:1016E000DC2FCC27C16FD06A6DC1C11535E5D3079A
:1016F00008F408C1C11586E5D80708F01CC1CF71F0
:10170000DD27DC2FCC27D0625DC1CB3B2CE5D20797
:1017100009F408C1D8F4C93B8CE5D80709F4FCC02A
:1017200008F0FDC0C1153AE5D30708F004C18C2FBD
:101730008F70806E90E0906A34E0D695C7953A95A8
:10174000E1F7CF709C013C2BE9013CC1CE3B8CE51D
:10175000D80709F4EDC060F4CC3B3CE5D30709F4AD
:10176000E4C0CD3BDC4509F0E6C0C0E0D2ED2AC1C3
:10177000CE0190568115904208F0DDC08D2F8F71FB
:101780000E94620DDD27D0628F71D82B1BC1853A74
:10179000910509F4D3C0863A910509F4D2C0C3E893
:1017A000D0E410C1883A910509F4CEC0893A910578
:1017B00009F4CDC08A3A910509F4CCC08B3A910561
:1017C00009F4CBC08C3A910509F4CAC08B3B910552
:1017D00009F4C9C08C3B910509F4C8C08D3A910544
:1017E00009F4C7C0803B910509F4C6C08E3A910543
:1017F00009F4C5C08F3A910509F4C4C0813B910535
:1018000009F4C3C0823B910509F4C2C0833B910532
:1018100009F4C1C0843B910509F4C0C0853B910522
:1018200009F4BFC0863B910509F4BEC0873B910512
:1018300009F4BDC0883B910509F4BCC0893B910502
:1018400009F4BBC08A3B910509F0BAC0CAE2D6E4EC
:10185000B9C0CE019F700E94020BEC01B3C0CE0153
:101860009927D3FF03C0EC01D86CACC0EC01D06C5D
:10187000A9C0DF70D06AA6C0282F237081E090E055
:1018800002C0880F991F2A95E2F79C689E01E4E048
:1018900036952795EA95E1F72370922BCF70C69580
:1018A000C69530E2C39FE0011124C82BD92B8AC012
:1018B0008C2F8695869520E2829FC00111249E017F
:1018C00023703327C1E0D0E002C0CC0FDD1F2A9582
:1018D000E2F7C82BD92BDC6875C08C2F86958695CE
:1018E00030E2839FC00111249E0123703327C1E0A1
:1018F000D0E002C0CC0FDD1F2A95E2F7C82BD92B10
:10190000DA6860C0DC2FCC27C46FD06A5BC0DC2FE4
:10191000CC27C06FD06A56C0C0E0D4ED53C0C0E041
:10192000D5ED50C0C0E0D1ED4DC0C0E0D0ED4AC013
:10193000C0E0D3ED47C0C0E0D0E044C0C1E8D0E48F
:1019400041C0C2E8D0E43EC0C2EED4E43BC0C9EE20
:10195000D4E438C0CAEED4E435C0C5EBD4E432C018
:10196000C6EBD4E42FC0C3EBD4E42CC0C4EBD4E466
:1019700029C0C7EBD4E426C0CCECD4E423C0CDEC22
:10198000D4E420C0C3E8D5E41DC0CAE8D5E41AC039
:10199000C2E9D5E417C0C4E9D5E414C0C1E2D6E475
:1019A00011C0C3E2D6E40EC0C4E2D6E40BC0C5E267
:1019B000D6E408C0C6E2D6E405C0C7E2D6E402C059
:1019C000C0E0D4E4CE01DF91CF9108958238910533
:1019D00049F1B0F48133910509F459C048F48932D2
:1019E000910509F44FC08A32910509F455C0089554
:1019F0008533910509F441C08933910599F0089523
:101A0000833E910531F138F4803E910591F0823E9C
:101A10009105A9F00895863E910501F1873E910553
:101A200039F108952091970220FD3BC021FD39C076
:101A300008958091970280FF34C089E341C080916E
:101A4000970282FF32C08091970284FF2CC080E011
:101A500037C08091970282FD28C0F5CF8091970210
:101A600083FF25C08091970284FDF1CF87EE28C0C7
:101A70008091970283FD1BC0F5CF8091970285FF6F
:101A800018C019C08091970285FF15C012C08091BF
:101A9000970286FF12C013C08091970286FF0FC085
:101AA0000CC080EE0DC083EE0BC082EE09C086EE46
:101AB00007C085E305C089E203C081E301C08AE273
:101AC00090E008959091970292FF0DC0282F287101
:101AD000283019F4877F846006C0282F24712430B1
:101AE00011F48B7F886093FF0DC0282F2871283157
:101AF00019F4877E846106C0282F2471243111F4E3
:101B00008B7E886194FD877E08950895CF93DF933F
:101B1000EC01FB018281811102C081E040C0809113
:101B20005201811125C0C631DC45B9F70E94850DEF
:101B300081E0809352010E949D22909351018093F5
:101B400050011092450110924701109246011092E7
:101B500049011092480110924B0110924A011092D3
:101B60004D0110924C0110924F0110924E0116C07F
:101B700080915001909151010E94A9228C32914094
:101B800060F680914501E82FF0E0EE0FFF1FEA5B61
:101B9000FE4FD183C0838F5F8093450180E0DF914A
:101BA000CF9108950C9445070C94460785B780683B
:101BB00085BF85B7806885BFA4E2B1E021E030E051
:101BC0008D91E82FE295EF70F0E041A18F70B9019F
:101BD00002C0660F771F8A95E2F7CB01962F90958A
:101BE000492341A392A1982B92A371E0A932B70790
:101BF00039F7A5E1B1E021E030E08D91E82FE295E1
:101C0000EF70F0E041A18F70B90102C0660F771F3D
:101C10008A95E2F7CB01962F9095492341A392A193
:101C2000982B92A371E0A432B70739F7EDE5F1E004
:101C3000A3E5B1E0119211921D921D9281E0E73669
:101C4000F807C1F70C94E80A4F925F927F928F9247
:101C50009F92AF92BF92CF92DF92EF92FF920F933B
:101C60001F93CF93DF9304E211E0C3E5D1E0EE24AC
:101C7000E394F12C99249394BE01A880B980198231
:101C80001882D8012D918D01E22FE295EF70F0E0DE
:101C900081A12F70A70102C0440F551F2A95E2F7BA
:101CA0009A01842B81A382A1842E8094882182A30F
:101CB00050EA5A95F1F745E1442E41E0542E80E078
:101CC00090E0D2014D912D01C42EC2943FE0C32279
:101CD000D12CD60190967C90C880D9804F70D701C6
:101CE00002C0AA0FBB1F4A95E2F77A2241F4A7016E
:101CF000082E02C0440F551F0A94E2F702C040E0CC
:101D000050E04C295D295983488301968F30910515
:101D1000C1F681A1882181A382A1822B82A3229670
:101D2000FB0180819181A816B90641F0909267016C
:101D30000E949D229093690180936801F1E009322D
:101D40001F0709F099CF809167018823B1F0809136
:101D50006801909169010E94A922069770F0E3E55D
:101D6000F1E0ADE5B1E0819191918D939D9341E0DA
:101D7000ED35F407C1F7109267010E947C0A81E0FB
:101D8000DF91CF911F910F91FF90EF90DF90CF9057
:101D9000BF90AF909F908F907F905F904F900895ED
:101DA000E82FF0E0EE0FFF1FE35AFE4F8081918194
:101DB00008950895DF92EF92FF920F931F93CF93B0
:101DC000DF93662309F44AC0E42FF0E0AFEFB0E000
:101DD000A61BB109BF01A69FE001A79FD00DB69F2A
:101DE000D00D1124FD2FDD2E7B01ED1AF1080CE33F
:101DF00010E0B8010E948F31EB01BC01E69EC001EA
:101E0000E79E900DF69E900D1124B8010E948F312F
:101E1000C230D105B1F040F4209779F0219709F54F
:101E20008F2FD42E461B20C0C430D10599F068F006
:101E30002597B9F4842F861B17C08F2FD62EDF0E5F
:101E400013C0862F8F0FD42E03C0D42ED61A842F02
:101E50004F2F0AC0842F462F4F0F06C0842FD42E39
:101E600003C080E0D12C40E0E42FF0E0EC5CF44FC4
:101E70004491ED2DF0E0EC5CF44F9491E82FF0E00C
:101E8000EC5CF44FE491D90111964C9311979C931B
:101E90001296EC93DF91CF911F910F91FF90EF90ED
:101EA000DF90089588E090E00C940132AB01BC0112
:101EB00088E090E00C941F32ECE5F2E083E0808350
:101EC00010925D028FEF80935E0280935F0210920A
:101ED000600260817181828193810C94560F6091C0
:101EE0005C0260FF06C066956F7370E080E090E072
:101EF000089560E070E0CB0108958091600290E069
:101F000001968430910514F083E090E080936002A4
:101F100060915C0270915D0280915E0290915F021F
:101F20000C94560F8091600290E0019797FF02C0D9
:101F300080E090E08430910514F083E090E080939D
:101F4000600260915C0270915D0280915E029091EE
:101F50005F020C94560F80915C0280FF06C060E126
:101F600070E081E692E00C941D15E3E6F2E0DF01FB
:101F700011971C9211971C921082339682E0E339DC
:101F8000F807A9F7ECCF90915C0290FF0FC0E3E651
:101F9000F2E0DF0111978C9311976C934083339695
:101FA00092E0E339F907A9F70C94AB0F0895CF93AA
:101FB000DF9300D01F92CDB7DEB720915C0220FFE7
:101FC0000AC09E012F5F3F4F0E94DA0E4B8169814C
:101FD0008A810E94C30F0F900F900F90DF91CF91D5
:101FE00008955F926F927F928F929F92AF92BF926D
:101FF000CF92DF92EF92FF920F931F93CF93DF93D5
:1020000000D01F92CDB7DEB78C01662E742E522EF3
:1020100080915C0280FF8BC0982F9E77923061F494
:102020009E012F5F3F4FC8010E94DA0E4B816981EC
:102030008A810E94C30F5BC0E82FE695EF739EE391
:102040009E0F9F73943018F470905F0250C09AE313
:102050009E0F9F73993068F4881F8827881F90917E
:102060005D02292F220F022F082B97FB112710F951
:102070003EC087E28E0F8F738A30C8F5F0E0799703
:10208000E0FF02C04FEF01C041E0EE7FE65EF44F9B
:10209000859194919C0184E0369527958A95E1F786
:1020A00042035001439FB00C1124680188E9C81A0B
:1020B0008EEFD80A91E6E92E92E0F92E28E6822EDC
:1020C00099249394C601B4010E948F319701472D42
:1020D000662D0E94DA0ECA0CDB1C83E0E80EF11CB0
:1020E00081E9E81682E0F80669F70E94AB0F80915B
:1020F0005C0200FB87F980935C02902F969580919B
:102100005D028078892B10FB87F980935D026092D5
:102110005E0270925F02552051F060915C027091F6
:102120005D0280915E0290915F020E94560F0F90B7
:102130000F900F90DF91CF911F910F91FF90EF9033
:10214000DF90CF90BF90AF909F908F907F906F90D7
:102150005F90089521E00C94F10F20915C02221F02
:102160002227221F30915D02432F440F842F822BA0
:1021700037FB992790F9089668E671E00E94A33131
:1021800040915F0260915E020C94AA1020915C0263
:10219000221F2227221F30915D02432F440F842FDC
:1021A000822B37FB992790F9883091051CF4805ACF
:1021B0009E4F01C0089768E671E00E94A3314091EC
:1021C0005F0260915E020C94AA1060915E02862FFD
:1021D00090E0883F910514F4685F01C06FEF809133
:1021E0005C02881F8827881F90915D02292F220F8B
:1021F00097FB992790F940915F02822B0C94AA10CB
:1022000060915E02862F90E0089714F0685001C03C
:1022100060E080915C02881F8827881F90915D0292
:10222000292F220F97FB992790F940915F02822B6B
:102230000C94AA1040915F02842F90E0883F910592
:1022400014F4485F01C04FEF80915C02881F88271B
:10225000881F90915D02292F220F97FB992790F9F3
:1022600060915E02822B0C94AA1040915F02842F31
:1022700090E0089714F0485001C040E080915C0263
:10228000881F8827881F90915D02292F220F97FBB6
:10229000992790F960915E02822B0C94AA1020E09D
:1022A0000C94F10F90915C0290FF48C091788111DD
:1022B00002C0926003C0843220F0966490935C0266
:1022C00005C08F73880F892B80935C02662351F0C1
:1022D00060915C0270915D0280915E0290915F025C
:1022E0000E94560F80915C02382F3E77323019F4ED
:1022F0001092830112C0982F96959F732EE3290F99
:102300002F73273110F0363421F491E0909383013C
:1023100004C0995D9F739A3058F3881F8827881FDF
:1023200090915D02292F220F97FB992790F94091F8
:102330005F0260915E02822B0C944F11089561E060
:102340000C94521180915C0286958F738F5F84325A
:1023500008F081E00C949F1180915C0286958F7348
:10236000815009F483E20C949F11ECE5F2E0808146
:102370008160808386958F730C949F1160E00C942C
:10238000521180912E02816080932E0281E0809311
:1023900084010E945E21811104C00E9438210E94A4
:1023A0005C0F0E94520F60935C0270935D028093F9
:1023B0005E0290935F026E7761F40E945C0F0E9450
:1023C000520F60935C0270935D0280935E02909363
:1023D0005F0281E08093830180915C0280FF04C0F2
:1023E00086958F730C94BE110895ECE5F2E0808120
:1023F0008E7F808360817181828193810E94560FDC
:10240000109283012FEF80E792E0215080409040AE
:10241000E1F700C000000C94AB0F80915C0280FDDE
:102420000C94F5110C94B511CF93C82F80918101B4
:10243000909182010E94A922EC2FF0E0E05DF44F20
:10244000E491F0E08E179F0708F442C00E949D229D
:1024500090938201809381016091800170E080E01F
:1024600090E00E949D2F20E030E04FE753E40E946F
:10247000D62E2BED3FE049E450E40E94BE300E948E
:1024800021310E94432F2BE43AE34EE25FE30E94A6
:10249000712E20EF3BEF48ED52E40E94BE300E94C7
:1024A0006F2F462F80915C02881F8827881F90918C
:1024B0005D02292F220F97FB992790F960915E0208
:1024C000822B0E94D70F809180018F5F80938001C3
:1024D000CF910895CF93C82F80917E0190917F0175
:1024E0000E94A922EC2FF0E0E35DF44FE491F0E0CC
:1024F0008E179F07E8F00E949D2290937F018093A2
:102500007E0140915F0260915E0280917C0190911A
:102510007D010E94D70F80917C0190917D010196F1
:1025200068E671E00E948F3190937D0180937C0179
:10253000CF910895DF92EF92FF920F931F93CF9365
:10254000DF93D82E80917A0190917B010E94A9227D
:10255000ED2DE695F0E0E65DF44FE491F0E08E17A6
:102560009F07F0F10E949D2290937B0180937A0156
:1025700001E612E0C0E0D0E068E6E62EFF24F39426
:1025800080917801909179018C0F9D1FB7010E9475
:102590008F31980140915F0260915E020E94DA0ED5
:1025A00066960D5F1F4FC03681E0D80749F70E943D
:1025B000AB0F2091780130917901D0FE0BC0C90199
:1025C000019668E671E00E948F31909379018093C3
:1025D000780106C0215031093093790120937801A8
:1025E000DF91CF911F910F91FF90EF90DF900895B1
:1025F000AF92BF92CF92DF92EF92FF920F931F9311
:10260000CF93DF93C82F80FD03C0BB24B39402C0D7
:10261000BB24BA9480917601909177010E94A922FF
:10262000C695EC2FF0E0E95DF44FE491F0E08E17F1
:102630009F0708F465C00E949D22909377018093C4
:102640007601F1E6EF2EF2E0FF2E03E612E0C0E0A5
:10265000D0E0F80131971082F7011082F801108262
:10266000E4E0CE2ED12CA12C809175018A0D87FD3E
:10267000805F992787FD9095C817D907E9F4809165
:102680005F028C9DA0018D9D500D1124559547959D
:102690005595479580915C02881F8827881F9091E7
:1026A0005D02592F550F97FB992790F9970160917B
:1026B0005E02852B0E94DA0EAB0CF1E0CF1AD10836
:1026C000C114D10489F6219683E0E80EF11C0D5F58
:1026D0001F4FC031D10509F0BCCF0E94AB0F8091D4
:1026E000750191E0B91206C0811102C08FE006C0E9
:1026F000815004C090E001968F70992780937501F6
:10270000DF91CF911F910F91FF90EF90DF90CF90CD
:10271000BF90AF900895EF92FF920F931F93CF93C6
:10272000DF93C82F80917301909174010E94A922B8
:10273000EC2FF0E0EC5DF44FE491F0E08E179F0792
:1027400008F465C00E949D229093740180937301E8
:10275000E3E6F2E0DF0111971C9211971C921082C0
:10276000339682E0E339F807A9F703E612E0A1E621
:10277000EA2EA2E0FA2EC0E0D0E080917201992703
:1027800087FD9095C817D907ECF080910101992732
:1027900087FD90958C179D07ACF080915C02881F97
:1027A0008827881F90915D02592F550F97FB992715
:1027B00090F9970140915F0260915E02852B0E9423
:1027C000DA0E07C0F80131971082F7011082F80184
:1027D00010822196F3E0EF0EF11C0D5F1F4FC03108
:1027E000D10559F60E94AB0F209100018091720132
:1027F000820F8093720190910101920F90930101D9
:10280000191614F48F301CF0219520930001DF91EC
:10281000CF911F910F91FF90EF900895EF92FF924B
:102820000F931F93CF93DF9380917001909171016B
:102830000E94A922883E9340C8F10E949D22909355
:10284000710180937001C0916E01D0916F0121964A
:10285000C170DD27D0936F01C0936E0101E612E0D5
:10286000F12CB8E7EB2E8F2D8695FE01E80FF11DB8
:10287000CF0181709927980140915F0260915E02BB
:10288000FC01EE9EC001EF9E900D11240E94DA0E15
:10289000F3940D5F1F4FF0E1FF12E5CFDF91CF9171
:1028A0001F910F91FF90EF900C94AB0FDF91CF91A0
:1028B0001F910F91FF90EF900895CF93DF9300D079
:1028C0001F92CDB7DEB780916C0190916D010E948F
:1028D000A922E8E1FBE02591349182179307C0F12A
:1028E00080916B0181110CC09E012F5F3F4F4FEF14
:1028F0006FEF80E090E00E94DA0E8A8180936B0196
:102900000E949D2290936D0180936C0180916A01D9
:10291000813051F028F0823061F440916B010AC09F
:1029200080916B0140E007C060916B0140E080E066
:1029300003C040E080E060E00E94C30F80916A0124
:1029400090E0019663E070E00E94A33180936A01F9
:102950000F900F900F90DF91CF9108958091830198
:102960008823B9F120915C02822F86958F739EE3B4
:10297000980F9F73943018F482500C9414129AE3B9
:10298000980F9F73933018F486500C946A1297E353
:10299000980F9F73963018F489500C949A1291E313
:1029A000980F9F73963018F48F500C94F8129BE296
:1029B000980F9F73933018F485510C948B13822FCA
:1029C0008E77803311F40C940E14863411F40C9429
:1029D0005D1408953EB1242F209523233EB1342B5E
:1029E0004FB7F894FC01680F791FE617F70789F0D5
:1029F000819198E03EB9000000C087FF2EB9880F92
:102A0000000000C000C000C02EB900C09A9591F728
:102A1000ECCF4FBF08952DB1242B2DB99B01220F70
:102A2000331F260F371FB9010E94EA1487EC90E08C
:102A30000197F1F700C00000089544E00C940B15D5
:102A400090938A01809389010895E0918901F09122
:102A50008A01309721F00190F081E02D099480E007
:102A60000895E0918901F0918A01309721F0028068
:102A7000F381E02D09940895E0918901F0918A0194
:102A8000309721F00480F581E02D0994089520917C
:102A90008701309188018217930771F09093880124
:102AA00080938701E0918901F0918A01309721F0AC
:102AB0000680F781E02D09940895209185013091D9
:102AC00086018217930771F09093860180938501A8
:102AD000E0918901F0918A01309721F00084F1851D
:102AE000E02D0994089508950C94731581E00895DC
:102AF0000E9494220E94D60D0E9468230E949D2667
:102B00000C94C1115F926F927F928F929F92AF92BD
:102B1000BF92CF92DF92EF92FF920F931F93CF93CA
:102B2000DF93CDB7DEB72A970FB6F894DEBF0FBE9E
:102B3000CDBF0E94240E0E947615811111C08FEF27
:102B400089838A831B820E949D228160782F9D83C6
:102B50008C8349815A816B818D810E94401657C0B8
:102B60009CE8C92E91E0D92E00E010E0AA24A3949D
:102B7000B12C502E802F0E94D00E3C01F601E19026
:102B8000F1906F01E826F926E114F10431F40F5FAA
:102B90001F4F0530110569F7D2CF80912E0281FDBC
:102BA0000E94D90E20E030E04501022E02C0880CC0
:102BB000991C0A94E2F7C4018E219F21892B09F107
:102BC0002E835F826820792081E0672809F480E005
:102BD00088870E949D228160782F9A8789874E81FD
:102BE0005F8168858A850E944016F801EE0FFF1FFD
:102BF000E457FE4F808191818825992591838083B8
:102C000006C02F5F3F4F2F30310571F6C0CF0E94B5
:102C1000082610918B010E9425151817D9F00E94E3
:102C2000251580938B012A960FB6F894DEBF0FBE50
:102C3000CDBFDF91CF911F910F91FF90EF90DF906B
:102C4000CF90BF90AF909F908F907F906F905F904C
:102C50000C94EE0A2A960FB6F894DEBF0FBECDBFD5
:102C6000DF91CF911F910F91FF90EF90DF90CF9068
:102C7000BF90AF909F908F907F906F905F900895DE
:102C8000CF93DF93CDB7DEB72B970FB6F894DEBFA7
:102C90000FBECDBF4F83588769877A878B87DE0148
:102CA000119686E0FD0111928A95E9F785E0FE0113
:102CB000379601900D928A95E1F749815A816B818F
:102CC0007C818D819E810E94AE1D2B960FB6F8945B
:102CD000DEBF0FBECDBFDF91CF910895FC01808193
:102CE00091810E946A200895882309F4F4C08238F3
:102CF000C1F40E94251581FDEEC069E380910201B7
:102D0000909103010E94F4210E94C9202FEF81EECF
:102D100094E0215080409040E1F700C0000069E35A
:102D200019C08338F9F40E94251580FDD4C063E5ED
:102D300080910201909103010E94F4210E94C92018
:102D40002FEF81EE94E0215080409040E1F700C0E9
:102D5000000063E580910201909103010E94FF2130
:102D60000C94C9208438C1F40E94251582FDB3C09B
:102D700067E480910201909103010E94F4210E9476
:102D8000C9202FEF81EE94E0215080409040E1F780
:102D900000C0000067E4DECF9CEF980F913A40F44A
:102DA000682F80910201909103010E94F421D8CFF5
:102DB00090E2980F983050F4877091E001C0990F1D
:102DC0008A95EAF7892F0E94FF20CACF9BE5980FCA
:102DD000933070F4853A29F0863A31F482E890E035
:102DE00005C081E890E002C083E890E00C944715AC
:102DF00098E5980F953108F06EC0883A61F1893AEC
:102E000069F18A3A71F18B3A79F18C3A81F18B3B15
:102E100089F18C3B91F18D3A99F1803BA1F18E3A89
:102E2000A9F18F3AB1F1813BB9F1823BC1F1833B0A
:102E3000C9F1843BD1F1853BD9F1863BE1F1873B78
:102E4000E9F1883BF1F1893BF9F18A3B09F03FC098
:102E50008AE292E03EC082EE90E03BC089EE90E0D4
:102E600038C08AEE90E035C085EB90E032C086EB4A
:102E700090E02FC083EB90E02CC084EB90E029C061
:102E800087EB90E026C08CEC90E023C08DEC90E0C6
:102E900020C083E891E01DC08AE891E01AC082E971
:102EA00091E017C084E991E014C081E292E011C082
:102EB00083E292E00EC084E292E00BC085E292E0F1
:102EC00008C086E292E005C087E292E002C080E09E
:102ED00090E00C945D150895882309F45DC0823854
:102EE00079F40E94251581FF57C069E380910201A2
:102EF000909103010E94F4210E94C92069E310C04F
:102F00008338B1F40E94251580FF46C063E58091A7
:102F10000201909103010E94F4210E94C92063E5FF
:102F200080910201909103010E94FF210C94C9201D
:102F3000843879F40E94251582FF2EC067E48091C1
:102F40000201909103010E94F4210E94C92067E4CC
:102F5000E7CF9CEF980F913A10F4682FE1CF90E201
:102F6000980F983050F4877091E001C0990F8A95BE
:102F7000EAF7892F0E940521D9CF9BE5980F93305E
:102F800020F480E090E00C944715885A853120F4B5
:102F900080E090E00C945D150895882321F00E9454
:102FA000FF200C94C9200895882321F00E94052158
:102FB0000C94C92008958F929F92BF92CF92DF9276
:102FC000EF92FF920F931F93CF93DF9300D0CDB773
:102FD000DEB74C01472FFC01C580C2949FE0C92297
:102FE000D280DD2031F079836A830E941C216A81BE
:102FF000498149836A830E94C22049816A8188236A
:1030000089F0DD2079F080E2860F883058F082E088
:103010000E94AB200E94C220BB24B394B8264981F1
:103020006A8101C0B12CE42EE2948FE0E822F12CF9
:10303000F701E159FF4F0C94D931842F807F142F71
:103040001F70882311F01295107FDD20C1F011232D
:1030500009F4E1C180E2860F883010F0611105C0EB
:10306000812F6A830E94FF2004C0812F6A830E94FF
:103070000F216A816A830E94C9206A81CCC1862F90
:103080006A830E946C176A81112309F40BC280E2E3
:10309000860F883010F0611104C0812F0E94052135
:1030A00003C0812F0E9415210E94C920FBC1842FDB
:1030B000807F142F1F70803211F01295107F6623CD
:1030C00019F06130D9F026C0DD2079F0CC2049F02C
:1030D000F1E0CF1206C00E943521812B0E942F21E2
:1030E000E1C10E943521812B4AC1CC2021F021E091
:1030F000C21609F4D7C10E94322146C1DD2029F051
:1031000085E08C1508F4CEC139C194E09C1508F413
:10311000C9C13AC1DD2051F0CC2009F42FC1F4011E
:10312000858180FF78C18F70858328C1CC2009F408
:103130002BC182C1242F26952695237030E02115BE
:10314000310521F02130310561F0ACC1DD2021F0E5
:10315000862F942F937002C080E090E00E94471564
:10316000B1C1DD2021F0862F942F937002C080E042
:1031700090E00E945D15A6C1DD20F9F0653F51F099
:10318000663F71F0643FA9F48091910290919202A0
:1031900081600BC08091910290919202826005C083
:1031A0008091910290919202846090939202809318
:1031B0009102862F0E94102522C0653F51F0663F84
:1031C00091F0643FC9F480919102909192028E7FB8
:1031D00005C080919102909192028D7F909392020E
:1031E0008093910209C020919102309192022B7F2D
:1031F0003093920220939102862F0E9478250E949C
:10320000FD2560C1842F837009F04EC0D11056C1D6
:10321000262F229526952770220F220F862F8F703A
:10322000C82ED12CE12CF12C022E04C0CC0CDD1CBC
:10323000EE1CFF1C0A94D2F764FF10C06FE070E030
:1032400080E090E004C0660F771F881F991F2A95C1
:10325000D2F7609570958095909503C060E070E01E
:10326000CB01242F26952695237030E0223031059E
:1032700069F02330310589F06C297D298E299F2939
:103280002130310571F00E94FD1E18C16C297D2985
:103290008E299F290E940F1F11C10E94FD1EC70188
:1032A000B6010E94EB1E0AC1DD2019F0842F817047
:1032B00001C08695882309F401C1262F2295269501
:1032C0002770220F220F862F8F70C82ED12CE12C51
:1032D000F12C022E04C0CC0CDD1CEE1CFF1C0A9449
:1032E000D2F764FF10C06FE070E080E090E004C0AF
:1032F000660F771F881F991F2A95D2F760957095E2
:103300008095909503C060E070E0CB01242F269556
:103310002695237030E02230310569F023303105E5
:1033200089F06C297D298E299F292130310571F082
:103330000E94AB1FC3C06C297D298E299F290E9442
:10334000BD1FBCC00E94AB1FC701B6010E94991FE0
:10335000B5C0062F10E0F801E05EF109E531F10596
:1033600008F055C0E158FF4F0C94D931162F1F704B
:10337000842F8F71DD2031F00E94441F812F0E9425
:10338000CD1790C00E945F1F812F0E94D4178AC062
:10339000DD2049F0F4E0FC1508F484C0842F8F711F
:1033A0000E947E1F7FC025E02C1508F47BC0F6CF5D
:1033B000DD2039F0842F8F710E94441F73C0DD20FF
:1033C000C9F3842F8F710E945F1F6CC0DD2029F02C
:1033D000842F8F710E94351F65C00E94301F62C00C
:1033E000DD2051F0142F1F71812F0E94441F63E0D4
:1033F000812F0E94A22056C081E00E94AB2081E074
:103400008C1508F04FC082E00E94AB204BC0DD203D
:1034100031F0CC2079F2862F0E94741643C0CC2064
:1034200081F2693349F49FEFE7EEF3E09150E04019
:10343000F040E1F700C00000862F0E946C1732C0F8
:103440004F70C4010E942E070E945B1E3BC0D1102A
:1034500039C0942F9F70892F90E08230910599F0A8
:103460003CF4009769F00197E9F40E94D6262AC03F
:103470008430910571F054F00597A1F480E00AC002
:103480000E94BA261FC00E94F2261CC00E940C2770
:1034900019C085E00E94312715C04F70C4010E94F9
:1034A000470710C028E0E216F10441F05CF09AE012
:1034B000E91AF108E2E0EE16F10420F40E94251565
:1034C0000E94EE0ABB20F1F00E949E2080FD1AC0EF
:1034D000F40112820E9498200E94441FC4010E949D
:1034E000901A0E9498200F900F90DF91CF911F911A
:1034F0000F91FF90EF90DF90CF90BF909F908F90B3
:103500000C945F1F0F900F90DF91CF911F910F913F
:10351000FF90EF90DF90CF90BF909F908F90089595
:103520000F931F93CF93DF93EC01288139818B8117
:103530009C81892B31F03F3F11F080E003C02F3F89
:10354000E1F781E0811113C0CE010E94B807882302
:1035500071F0688179818A810E9475208C010E94B6
:10356000CF1F0E94E81EB801CE010E94DB17DF9139
:10357000CF911F910F9108950E941C210E942C2130
:1035800080910201909103010E940A220E94C920A9
:103590000E9491260E94FD2580E090E00E94471540
:1035A00080E090E00C945D150E940C210C94BC1AF4
:1035B0000E946A20E92FE295EF70F0E03297EE303A
:1035C000F105B8F4EC56FF4F0C94D931803F59F017
:1035D00018F4803E70F407C0843F59F404C0803E64
:1035E00010F0813F31F481E0089593FB882780F942
:1035F000089580E00895CF93DF9300D000D01F920C
:10360000CDB7DEB70F900F900F900F900F90DF9116
:10361000CF910895CF93DF9300D000D000D0CDB7E5
:10362000DEB726960FB6F894DEBF0FBECDBFDF9192
:10363000CF9108951F93CF93DF93C091970116E028
:1036400080919801C81799F0D0E01C9FF0011D9F50
:10365000F00D1124E756FE4F408151816281738144
:10366000848195810E940A1B2196C770E9CFDF9162
:10367000CF911F9108954091C9015091CA01609165
:10368000CB017091CC018091CD019091CE010C9431
:103690000A1BCF938091CE0182958F7009F05FC095
:1036A0008091CB01882309F45AC020919701A09101
:1036B00098016091C9017091CA018091CC019091EB
:1036C000CD0131E06F3F09F030E0B32FC6E02A179B
:1036D00009F445C0009721F07F3F21F44B2F03C030
:1036E00041E001C040E030E040FD35C0C29FF00144
:1036F000C39FF00D1124E756FE4F418174132BC078
:103700004081641328C04281411125C04381548106
:103710004817590710F441505109481B590B483CB0
:103720005105C8F48091CE018F7080618093CE01E5
:1037300086E0829FF001839FF00D1124E256FE4F38
:1037400080818F708061808389EC91E00E94901A63
:10375000CF910C941A1B2F5F3F4F2770B8CFCF919A
:103760000895CF92DF92EF92FF920F931F93CF9322
:10377000DF93CDB7DEB762970FB6F894DEBF0FBE0A
:10378000CDBF8C0185E0F801DE011D9601900D9200
:103790008A95E1F7D8014C9111965C911197129698
:1037A0006C9112971396ED90FC9014977091C9014B
:1037B000E091CA012091CC013091CD012115310554
:1037C00031F0EF3F31F481E07F3F19F403C081E035
:1037D00001C080E0B82FB170CB2E80FD6BC1D090BE
:1037E000CB01DD2009F4F5C0F091CE01E216F3061D
:1037F00038F0C701821B930B883C910548F09DC0AF
:10380000209530952E0D3F1D283C310508F095C0C0
:103810008F2F807F09F052C0E51314C0741312C0BB
:10382000D62E61110FC0FF70F061F093CE010E949F
:103830003B1B89EC91E00E94901A8091CE01F80127
:1038400085837CC1EF2831F05F3F31F481E04F3F49
:1038500019F403C081E001C080E080FD03C081E075
:10386000862701C080E0F82FF170FF2E80FF1CC07A
:10387000809197012091980136E0821709F438C1B0
:1038800090E0389FF001399FF00D1124E756FE4F6C
:103890007181571306C07081471303C0728167138B
:1038A00003C001968770E9CFD62E662309F446C17E
:1038B0008091CE0181608093CE0155C0E51308C090
:1038C000741306C0611104C0D8011596FC93AEC0F4
:1038D0004D875E878D859E856A8B0E94D81A6A897E
:1038E000882329F1D62E662311F12091CE01822F53
:1038F00082958F7090E002970CF462C08091C901AC
:103900009091CA0198878F831986FB86EA862C8757
:10391000CE01079653C0E51741F14D875E878D852F
:103920009E856A8B0E94D81A6A89811130C0C801AD
:103930000E94901ADD24D39401C18F2F807F59F704
:103940007E2DF98AE88A89890E94FB1A89EC91E028
:103950000E94901AE9ECF1E086E0DF011D928A9561
:10396000E9F70E943B1BD12CE9C07413D6CF61113B
:10397000D4CFD8011596FC93C8010E94901AE9ECA7
:10398000F1E086E0DF011D928A95E9F7D7C0D62ED7
:10399000662369F22091CE01822F82958F7090E08C
:1039A000029774F08091C9019091CA019A8389832A
:1039B0001B82FD82EC822E83CE0101960E94901A1A
:1039C00086E0F801A9ECB1E001900D928A95E1F74B
:1039D0008AC0E216F30628F0C701821B930B9C01F4
:1039E00004C0209530952E0D3F1D283C310508F070
:1039F00053C0D62E662309F49ACFE5132CC0741356
:103A00002AC08091CE0180FD1DC0982F92959F7095
:103A1000C9F0D80115968C9315979F3039F09F5FA8
:103A20009295907F8F70892B15968C93C8010E9478
:103A3000901A86E0F801A9ECB1E001900D928A9508
:103A4000E1F753C086E0F801A9ECB1E001900D92D6
:103A50008A95E1F773C04D875E878D859E850E94AC
:103A6000D81A882381F096E0F801A9ECB1E0019022
:103A70000D929A95E1F78A8B0E94491B0E943B1B8D
:103A80008A89D82E5BC08091CE0181608093CE015F
:103A9000C8010E94901A52C07E2DF98AE88A89894D
:103AA0000E94FB1AE9ECF1E086E0DF011D928A95A5
:103AB000E9F71BC0662309F43ACF4D875E878D85F1
:103AC0009E850E94D81AD82E882309F430CF86E02C
:103AD000F801A9ECB1E001900D928A95E1F789EC2B
:103AE00091E00E946E160E94491B0E943B1B26C05B
:103AF0004D875E878D859E850E946A20292F22959D
:103B00002F7030E0223031052CF49F7041F081118C
:103B100006C00CC0243031052CF49F7049F4805E3F
:103B2000883020F0C8010E94901ACF2CDC2C06C0EF
:103B3000D80115969C91907F91F7F8CF8D2D6296C4
:103B40000FB6F894DEBF0FBECDBFDF91CF911F91AE
:103B50000F91FF90EF90DF90CF9008951F93CF9338
:103B6000DF93CDB7DEB72C970FB6F894DEBF0FBE4C
:103B7000CDBF4F83588769877A878B879C87CE0113
:103B800007960E94B11B8823C1F02F8138858A8552
:103B90009B85892B31F03F3F11F080E003C02F3F20
:103BA000E1F781E0811147C04F81588569857A85A9
:103BB0008B859C850E940A1B3EC086E0FE013796DD
:103BC000DE01119601900D928A95E1F7FF81E8855B
:103BD0004A855B854115510531F0EF3F31F481E0B5
:103BE000FF3F19F403C081E001C080E080FD23C0E5
:103BF0002091980130E0C901019687709927609162
:103C0000970170E086179707F1F1F983EA835D83E6
:103C10004C8396E0929FD001939FB00D1124A7563C
:103C2000BE4FFE01319601900D929A95E1F7809377
:103C300098010E941A1B16E08091970190919801BB
:103C4000891779F1189FC001112487569E4F0E9451
:103C5000B11B882331F1E09197011E9FF0011124DF
:103C6000E756FE4F40815181628173818481958145
:103C70000E940A1B8091970190E001968770992716
:103C800080939701D9CF0E94D41A10929801109274
:103C90009701E9ECF1E086E0DF011D928A95E9F7F2
:103CA000CACF2C960FB6F894DEBF0FBECDBFDF9102
:103CB000CF911F910895EF92FF920F931F93CF938F
:103CC000DF93FC01009709F46FC0F12CEE24E3941C
:103CD000EF0121968491843740F4843008F055C078
:103CE000813081F0823021F15FC0853709F447C00F
:103CF000C0F19CE7980F903708F056C08F770E946C
:103D00006C1745C08F010E5F1F4FFE01849190E23A
:103D1000980F983050F48770FE2D01C0FF0F8A95E0
:103D2000EAF78F2F0E941F2115C00E94741614C03D
:103D30008F010E5F1F4FFE01849190E2980F983023
:103D400068F48770FE2D01C0FF0F8A95EAF78F2F68
:103D50000E9425210E94C920E80119C00E946C1709
:103D6000FBCFCF010296FE01C491CC2361F0EFE9B5
:103D7000FFE03197F1F700C00000C150F6CFCF014E
:103D80000296FE01F490EC0102C00E9474168F2D81
:103D9000882341F0EFE9FFE03197F1F700C0000020
:103DA0008150F6CFFE0194CFDF91CF911F910F91FB
:103DB000FF90EF90089508950E94DB1E6093050226
:103DC0007093060280930702909308020C94BC1A29
:103DD00008950C94DC1E0F931F930091050210911F
:103DE00006022091070230910802602B712B822B72
:103DF000932B1F910F910C94DC1E0F931F93009136
:103E000005021091060220910702309108026023FA
:103E10007123822393231F910F910C94DC1E0F9327
:103E20001F93009105021091060220910702309124
:103E3000080260277127822793271F910F910C9406
:103E4000DC1E08950C94211F0E94221F6093010222
:103E50007093020280930302909304020C94BC1AA4
:103E600060E070E0CB010C94241F41E050E060E082
:103E700070E004C0440F551F661F771F8A95D2F764
:103E8000CB01BA010C94241F41E050E060E070E0E7
:103E900004C0440F551F661F771F8A95D2F7809183
:103EA000010290910202A0910302B0910402482BFA
:103EB000592B6A2B7B2BCB01BA010C94241F41E0B8
:103EC00050E060E070E004C0440F551F661F771F8C
:103ED0008A95D2F740955095609570958091010232
:103EE00090910202A0910302B09104024823592349
:103EF0006A237B23CB01BA010C94241F41E050E0DC
:103F000060E070E004C0440F551F661F771F8A955C
:103F1000D2F78091010290910202A0910302B09128
:103F20000402482759276A277B27CB01BA010C9442
:103F3000241F0F931F930091010210910202209100
:103F4000030230910402602B712B822B932B1F9163
:103F50000F910C94241F0F931F9300910102109155
:103F60000202209103023091040260237123822314
:103F700093231F910F910C94241F0F931F93009173
:103F80000102109102022091030230910402602785
:103F90007127822793271F910F910C94241F089556
:103FA0002FE0929F800D1124482F46954695469507
:103FB0008770B1E001C0BB0F8A95EAF785E0489FA2
:103FC000A001112441535E4F80E090E070E0FA01BF
:103FD000E80FF91FA0819B01082E02C03695279596
:103FE0000A94E2F72170332721952A272B232A27C9
:103FF000208301968530910551F708952FE0929F17
:10400000800D1124682F669566956695982F977098
:1040100085E0689FB001112461537E4F40E050E07D
:1040200080E0FB01E40FF51F208130E0092E02C083
:10403000369527950A94E2F721703327042E01C0A4
:10404000220F0A94EAF7822B4F5F5F4F45305105EC
:1040500041F70895CF92DF92EF92FF920F931F9353
:10406000CF93DF93EC01C0900502D0900602E09060
:104070000702F09008028091010290910202A09143
:104080000302B0910402C82AD92AEA2AFB2A0FE1C6
:1040900010E0B701A601002E04C0769567955795EC
:1040A00047950A94D2F740FD05C00150110988F7E1
:1040B00080E007C0BE01802F0E940A0B0197A9F380
:1040C000802FDF91CF911F910F91FF90EF90DF90A4
:1040D000CF900895CF93DF93EC010E942A20BE0178
:1040E0000E940A0BDF91CF9108951F93CF93DF9326
:1040F000EB0190919601992321F0CB010E946A2057
:1041000013C0882349F0CB010E942A20182F682F62
:10411000CE010E94D01F04C0CB010E94FE1F182FA9
:10412000BE01812F0E940A0BDF91CF911F9108954C
:10413000809109028595859585950895809109025C
:104140008770089598E0899F90011124622B6093F5
:1041500009020C94441F40910902809584238093A6
:104160000902982F977069F450E0282F332727FD14
:1041700030954217530729F08595859585950C94C0
:104180005F1F089590910902977081E009F480E023
:104190000895E0910201F091030180912D02808346
:1041A000E0910201F0910301808190912C02892B12
:1041B0008083E0910201F0910301808190912B02B4
:1041C000892B808390910A02992381F0E09102016A
:1041D000F09103018081892B80838091020190916D
:1041E00003010E948D21811110920A028091020127
:1041F000909103010C94311580912D0208959091B6
:104200002D02982B90932D020895809590912D0268
:10421000982390932D02089510922D020895909165
:104220002C02982B90932C020895809590912C024B
:10423000982390932C02089510922C020895909147
:104240002B02982B90932B020895809590912B022E
:10425000982390932B02089510922B020895809337
:104260000A02089510920A02089580910A020895A0
:104270006DEE7EEF80E090E00E942B3260E082E005
:1042800090E00E940D3260E083E090E00E940D32E9
:1042900060E084E090E00E940D3260E085E090E014
:1042A0000E940D3260E086E090E00E940D3240E016
:1042B00050E0BA0188E090E00C941F3280E090E07A
:1042C0000E94073221E08D3E9E4F09F020E0822FB0
:1042D000089582E090E00C94F931682F82E090E03C
:1042E0000C940D3283E090E00C94F931682F83E058
:1042F00090E00C940D3284E090E00C94F931682F3A
:1043000084E090E00C940D3286E090E00C94F9315A
:10431000682F86E090E00C940D3220E030E040E021
:10432000FC01E20FF31F518151114F5F2F5F3F4F8F
:104330002F313105A9F7842F089520E030E04FEFA9
:10434000FC01E20FF31F5281561799F04F3F19F409
:10435000511101C0422F2F5F3F4F2E31310581F7A0
:104360004F3F39F0FC01E40FF11D47FDFA956283E0
:104370000895089520E030E0FC01E20FF31F428130
:10438000461301C012822F5F3F4F2E313105A1F736
:104390000895262F2695269526952F3170F4FC0139
:1043A000E20FF11D677021E030E0062E01C0220F00
:1043B0000A94EAF78181822B81830895262F26951E
:1043C000269526952F3178F4FC01E20FF11D6770D8
:1043D00021E030E0062E01C0220F0A94EAF7209572
:1043E000818128232183089520911401222329F01B
:1043F0002091970227FD0C94C9210C949D212091B6
:104400001401222329F02091970227FD0C94DE212C
:104410000C94BA2120E030E0FC01E20FF31F11827E
:104420002F5F3F4F2F313105B9F7089508950C9450
:10443000162280919E02843049F110922F0220E4CE
:1044400088E190E00FB6F894A895809360000FBEC5
:104450002093600080E00E947E0A80E00E94EE0AC5
:104460000E94172283B7817F846083BF83B78160F6
:1044700083BF7894889583B78E7F83BF88E10FB61A
:10448000F89480936000109260000FBE0895089524
:104490000895CF930E9447220E94240E0E94482232
:1044A000C0E08C2F0E94D00E892B29F4CF5FC5303D
:1044B000C1F780E001C081E0CF91089508950C9488
:1044C0005E220E94D41A0E949D260E9425150E94F9
:1044D000EE0A0C945F221F920F920FB60F921124D6
:1044E0008F939F93AF93BF9380912F02811113C03D
:1044F0008091930290919402A0919502B0919602BE
:104500004196A11DB11D8093930290939402A093B4
:104510009502B0939602BF91AF919F918F910F90AA
:104520000FBE0F901F90189582E084BD93E095BD5B
:104530009AEF97BD80936E0008952FB7F8948091FD
:10454000930290919402A0919502B09196022FBF90
:104550000895CF92DF92EF92FF920F931F932FB7A0
:10456000F894409193025091940260919502709159
:1045700096022FBF6A017B01EE24FF248C0120E00C
:1045800030E0C016D106E206F30610F4415051099E
:10459000481B590BCA011F910F91FF90EF90DF90BC
:1045A000CF90089578941F920F920FB60F92112416
:1045B0008F939F93AF93BF938091930290919402B6
:1045C000A0919502B09196020196A11DB11D809314
:1045D000930290939402A0939502B0939602BF9198
:1045E000AF919F918F910F900FBE0F901F901895D4
:1045F00081E08093E00080E28093D8001092C900AF
:104600008FE19EE40197F1F700C0000087E090EB96
:10461000DC018093A7029093A802A093A902B09313
:10462000AA022CE088E190E00FB6F894A895809358
:1046300060000FBE20936000FFCFBF92CF92DF9249
:10464000EF92FF920F931F93CF93DF93B12C01E072
:1046500010E0E82EF12C8B2D0E94D00E6C01C0E0F2
:10466000D0E098010C2E02C0220F331F0A94E2F70B
:104670002C213D21232B29F42196CF30D10589F718
:104680000AC06C2F7B2D80E00E94F00AE816F90624
:1046900099F781E005C0B39485E0B812DCCF80E0E3
:1046A000DF91CF911F910F91FF90EF90DF90CF900E
:1046B000BF900895CF93C82F8CE20E941D238823BA
:1046C00021F08C2FCF910C941D2380E0CF91089581
:1046D000CF930E945E21811102C00E943821C5E65D
:1046E000C15049F00E94240E8FE39CE90197F1F735
:1046F00000C00000F5CF89E20E945A2381110DC14C
:104700008AE20E945A2381110E94382185E00E948A
:104710005A2381110E94F8220E94692180932E025F
:1047200087E00E945A23882399F18BE10E945A2343
:10473000882351F090912E0291FB882780F921E087
:10474000822780FB91F922C08EE00E945A238823A1
:1047500051F090912E0292FB882780F921E0822768
:1047600080FB92F913C080E10E945A2390912E029F
:10477000882341F093FB882780F921E0822780FB82
:1047800093F904C0892F809580FB90F990932E02B5
:1047900080912E020E946D210E947B2190E09093D7
:1047A00098028093970280EE0E945A23882341F05A
:1047B00080919702982F909590FB80F980939702B3
:1047C00089E30E945A23882359F09091970291FB24
:1047D000882780F921E0822780FB91F99093970246
:1047E00082EE0E945A23882359F09091970292FBFF
:1047F000882780F921E0822780FB92F99093970225
:1048000086EE0E945A23882359F09091970293FBD9
:10481000882780F921E0822780FB93F99093970203
:1048200083EE0E945A23882359F09091970294FBBB
:10483000882780F921E0822780FB94F990939702E2
:1048400085E30E945A23882359F09091970295FBA3
:10485000882780F921E0822780FB95F990939702C1
:1048600081E30E945A23882359F09091970296FB86
:10487000882780F921E0822780FB96F990939702A0
:1048800081E10E945A23882359F09091970297FB67
:10489000882780F921E0822780FB97F9909397027F
:1048A000809197020E947F2187E20E945A23C82F9D
:1048B0008EE10E945A238111C2608FE10E945A2327
:1048C0008111C46080E20E945A238111C86081E294
:1048D0000E945A238111C06182E20E945A238111F1
:1048E000C06283E20E945A238111C06484E20E9464
:1048F0005A23882311F0C06802C0CC2329F08C2FE2
:104900000E9476216C2F03C00E947221682F70E0F4
:1049100080E090E0CF910C94E91ECF9108958091B2
:10492000320280FF0BC06091070185E0689FB001F3
:10493000112475956795759567952AC081FF09C003
:104940006091070185E0689FB00111247595679516
:104950001FC082FF07C06091070185E0689FB0011A
:10496000112416C0409133024423C9F0609106011E
:10497000461788F72091070185E0289F90011124B0
:10498000429FC001439F900D112470E00E94A3310B
:104990006038710540F46115710539F002C065E0B9
:1049A00070E0862F08958FE7089581E00895809143
:1049B000320280FF08C06091050170E0759567952F
:1049C0007595679521C081FF06C06091050170E073
:1049D0007595679519C082FF04C06091050170E06C
:1049E00010C0809133028823C1F0609104018617C2
:1049F000A0F790910501989FC001112470E00E94DA
:104A0000A3316038710528F46115710521F0862FF6
:104A100008958FE7089581E0089561E070E0F4CF94
:104A2000803F21F40E948F24819504C0813F29F4A6
:104A30000E948F24809336020895823F21F40E94C1
:104A40008F24819504C0833F29F40E948F24809392
:104A500035020895893F19F40E94D72405C08A3F82
:104A600031F40E94D72481958093370208958B3FBB
:104A700021F40E94D724819504C08C3F29F40E9420
:104A8000D724809338020895843F21F48091340222
:104A9000816017C0853F21F480913402826011C08B
:104AA000863F21F48091340284600BC0873F21F45B
:104AB00080913402886005C0883F31F480913402CF
:104AC00080618093340208958D3F21F480913202F9
:104AD00081600BC08E3F21F480913202826005C05C
:104AE0008F3F29F4809132028460809332020895CE
:104AF000803F39F48091360287FF6CC010923602F5
:104B000069C0813F29F4809136021816BCF362C057
:104B100090913502823F29F497FF5CC010923502D4
:104B200059C0833F19F41916CCF354C0893F41F49E
:104B30008091370218160CF04DC0109237024AC00F
:104B40008A3F29F48091370287FF44C0F6CF8B3F1C
:104B500039F48091380287FF3DC0109238023AC084
:104B60008C3F29F4809138021816BCF333C0843F7F
:104B700021F4809134028E7F17C0853F21F480910B
:104B800034028D7F11C0863F21F4809134028B7FE7
:104B90000BC0873F21F480913402877F05C0883F96
:104BA00031F4809134028F7E8093340213C08D3FA4
:104BB00021F4809132028E7F0BC08E3F21F48091D0
:104BC00032028D7F05C08F3F29F4809132028B7FA6
:104BD000809332028091350281110EC0809136029D
:104BE00081110AC080913702811106C0809138027C
:104BF000811102C010923302089584E392E00E9472
:104C00003C150E949D2290933102809330020895BA
:104C10001F93CF93DF9380913002909131020E94D5
:104C2000A92240913302442321F02091080130E071
:104C300006C0209109015AE0259F90011124821796
:104C4000930708F46AC08091350210913602D09122
:104C50003702C0913802811107C0111105C0D1116E
:104C600003C0CC2309F459C04F3F19F04F5F409364
:104C70003302181624F40E948F2480933502809109
:104C8000350287FF05C00E948F24819580933502ED
:104C9000111624F40E948F248093360280913602EC
:104CA00087FF05C00E948F24819580933602209152
:104CB0003502222379F040913602442359F055EB16
:104CC000250390011124309335024503C0011124BE
:104CD000909336021D1624F40E94D7248093370245
:104CE0008091370287FF05C00E94D7248195809369
:104CF00037021C1624F40E94D72480933802809136
:104D0000380287FF05C00E94D7248195809338021E
:104D1000DF91CF911F910C94FD25DF91CF911F91D1
:104D20000895E4E3F2E085E0DF011D928A95E9F75A
:104D3000109233021092320208950E945E21811176
:104D400002C00E9438210E94842180939902282F5A
:104D5000269530E02630310524F081708A608093FA
:104D600099028091990280FF02C0869501C080E07F
:104D70000C947E0A20919902322F3695832F90E071
:104D8000059744F491E0930F990F822F8170892B3E
:104D900080939902809199028160809399020E9488
:104DA00088218091990286950C947E0A80919902BF
:104DB000982F969591F09158990F8170892B809337
:104DC00099028E7F91E009F490E08091990290FB26
:104DD00080F9809399020E9488218091990286959A
:104DE0000C947E0A80919902982F909590FB80F9FF
:104DF00080939902813019F483E080939902809125
:104E000099020E9488218091990280FF02C08695B4
:104E100001C080E00C947E0A30919902232F2695E0
:104E20002F5F2F77822F90E0317006972CF4220F9E
:104E3000232B2093990202C030939902809199020A
:104E40008E7F91E009F490E08091990290FB80F9C7
:104E5000809399020E9488218091990286950C94F2
:104E60007E0A863008F085E0880F90919902917053
:104E7000982B909399029E7F21E009F420E0809185
:104E8000990220FB80F9809399020E9488218091E9
:104E9000990286950C947E0A8091590208950F9389
:104EA0001F93CF93DF9300D01F92CDB7DEB78C0155
:104EB0000E94C529823011F0843019F583E089837E
:104EC0001B830A838093E9008FEF9091E800815063
:104ED00095FD06C095ED9A95F1F700008111F5CF8B
:104EE0008091E80085FF0DC040E050E063E070E095
:104EF000CE0101960E94E2298091E8008E7780938E
:104F0000E8000F900F900F90DF91CF911F910F91BC
:104F10000895CF93DF9300D01F92CDB7DEB72091D5
:104F20009E02243031F522E02983805891099B8329
:104F30008A8383E08093E9008FEF9091E8008150AD
:104F400095FD06C095ED9A95F1F700008111F5CF1A
:104F50008091E80085FF0DC040E050E063E070E024
:104F6000CE0101960E94E2298091E8008E7780931D
:104F7000E8000F900F900F90DF91CF910895CF939D
:104F8000DF93EC010E94C529823011F08430F9F4DE
:104F900082E08093E9008FEF9091E800815095FDC9
:104FA00006C095ED9A95F1F700008111F5CF80913B
:104FB000E80085FF0CC040E050E065E070E0CE0105
:104FC0000E94E2298091E8008E778093E800DF91CB
:104FD000CF910895CF93DF93EC010E94C5298230D1
:104FE00019F0843009F047C0809114018823E1F062
:104FF0008091970287FF18C084E08093E9008FEFCB
:105000009091E800815095FD06C095E19A95F1F7E1
:1050100000008111F5CF8091E80085FF2CC040E0B1
:1050200050E060E270E017C081E08093E9008FEF0C
:105030009091E800815095FD06C095ED9A95F1F7A5
:1050400000008111F5CF8091E80085FF14C040E099
:1050500050E068E070E0CE010E94E2298091E80013
:105060008E778093E80080E2FE01A9E3B2E0019030
:105070000D928A95E1F7DF91CF91089580919D027D
:10508000811109C00E94742B0E94D12B8091E200F3
:1050900084608093E200089510929D02089508951F
:1050A00008950C94612242E061EC81E00E94EE2AB6
:1050B00042E061EC82E00E94EE2A42E061EC83E093
:1050C0000E94EE2A42E261EC84E00C94EE2A809188
:1050D000A002833009F455C030F4813071F0823081
:1050E00009F48EC008958A3009F47AC08B3009F42F
:1050F00060C0893009F09CC020C080919F02813A35
:1051000009F096C08091E800877F8093E800809145
:10511000A3029091A402892B21F060E080E090E04E
:1051200003C060E289E392E070E00E942B2A809144
:10513000E8008B778093E800089580919F02813288
:1051400009F076C08091A3029091A402009719F013
:10515000039709F06DC08091E800877F8093E80095
:105160008091E80082FD05C080919E028111F8CFF8
:105170005FC08091F100809359028091E8008B77A5
:1051800053C080919F02813A09F052C08091A302DE
:105190009091A402892B09F04BC08091E800877F91
:1051A0008093E8008091E80080FFFCCF809114019B
:1051B00036C080919F028132D9F58091A3029091EF
:1051C000A402892BA9F58091E800877F8093E800ED
:1051D0000E94232B8091A102809314010C94D41A75
:1051E00080919F02813221F58091E800877F809332
:1051F000E8000E94232B8091A20280935A02089516
:1052000080919F02813AA1F48091E800877F80938A
:10521000E8008091E80080FFFCCF80915A028093E3
:10522000F1008091E8008E778093E8000C94232BA6
:10523000089584B7877F84BF88E10FB6F894809380
:105240006000109260000FBE80E8809361001092B1
:1052500061000E9474150E94742B0E94D12B8091D2
:10526000E20084608093E20078940E94542E0E94B1
:1052700078158AE091E00E94201580919E02853089
:1052800069F40E94192280919C028823B1F30E9444
:105290004922882391F30E94CC29EFCF0E948215E6
:1052A0000E94AE14EACF0C945529292F33272330BE
:1052B0003105A9F06CF42130310509F448C02230E1
:1052C000310509F049C08DE690E024E53CE048C096
:1052D00021323105F9F02232310549F13DC09927DB
:1052E0008130910571F02CF4892BB1F5E0E5FCE0FB
:1052F0000DC08230910541F0039771F5E4E3FCE0C5
:1053000005C0E6E4FCE002C0EAE3FCE0849190E042
:105310009F0126C064307105F8F4FB01EE0FFF1FFA
:10532000EB5CFE4F2081318189E090E019C0643050
:10533000710590F4FB01EE0FFF1FE35DFE4F20812E
:105340003181FB01E75DFE4F808190E009C082E181
:1053500090E021EC3CE004C080E090E020E030E010
:10536000FA013183208308950895CF93C82F0E94B6
:10537000B429C0935B02CF91089580919E0284303E
:1053800011F482E0089581E0089580915B0281111B
:1053900002C00C94BD29089580E189BD82E189BDD8
:1053A00009B400FEFDCF8091D8008F7D8093D80096
:1053B0008091E00082608093E0008091E00081FDB8
:1053C000FCCF0895CF92DF92EF92FF920F931F933D
:1053D000CF93DF937C018B01EA010E94442B811162
:1053E00031C0209731F088819981081B190BE80E94
:1053F000F91EC12CD12C0115110519F18091E8007D
:1054000085FD14C08091E8008E778093E800209796
:1054100041F0888199818C0D9D1D9983888385E059
:1054200011C00E94442B882331F30CC0F7018191F5
:105430007F018093F10001501109FFEFCF1ADF0ABD
:10544000DACF80E0DF91CF911F910F91FF90EF9025
:10545000DF90CF9008952091A5023091A6022617E3
:10546000370748F06115710539F42091E8002E776F
:105470002093E80001C0B901FC0120E0611571052D
:10548000B9F180919E02882309F440C0853009F467
:105490003FC08091E80083FD3DC08091E80082FF1D
:1054A00006C08091E80082FF26C080E008958091C8
:1054B000E80080FFE3CF2091F3008091F20090E0BC
:1054C000922B6115710551F08830910538F42191C6
:1054D0002093F100615071090196F3CF21E0089704
:1054E00009F020E08091E8008E778093E800C6CF35
:1054F0002111C7CFD6CF80919E02882339F0853005
:1055000039F08091E80083FFCCCF04C082E0089599
:1055100083E0089581E008952091A5023091A602CC
:105520002617370748F06115710539F42091E80016
:105530002E772093E80001C0B901FC0120E061153D
:105540007105C1F180919E02882309F441C0853024
:1055500009F440C08091E80083FD3EC08091E800DE
:1055600082FF06C08091E80082FF27C080E0089596
:105570008091E80080FFE3CF2091F3008091F2005A
:1055800090E0922B6115710559F08830910540F437
:1055900024912093F1003196615071090196F2CF68
:1055A00021E0089709F020E08091E8008E77809351
:1055B000E800C5CF2111C6CFD5CF80919E028823A8
:1055C00039F0853039F08091E80083FFCBCF04C0FB
:1055D00082E0089583E0089581E00895982F973040
:1055E00058F59093E900981739F07091EC002091EC
:1055F000ED005091F00003C0242F762F50E021FFE2
:1056000019C03091EB003E7F3093EB003091ED00FC
:105610003D7F3093ED003091EB0031603093EB0033
:105620007093EC002093ED005093F0002091EE0079
:1056300027FF07C09F5FD3CF8F708093E90081E081
:10564000089580E0089580919F0287FD05C08091B4
:10565000E80080FF0EC012C08091E80082FD05C006
:1056600080919E028111F8CF08958091E8008B7798
:1056700008C080919E028111EACF08958091E800D0
:105680008E778093E80008958091E4009091E50082
:1056900045E62091EC0020FF21C02091E80020FD8C
:1056A00021C020919E02222389F0253089F020918B
:1056B000EB0025FD0FC02091E4003091E500281794
:1056C000390739F3415041F0C901E3CF82E0089531
:1056D00083E0089581E0089584E008952091E80032
:1056E00022FFDFCF80E008950E94E22B0E94EA2B88
:1056F000E0EEF0E0808181608083E8EDF0E0808181
:105700008F77808319BCA7EDB0E08C918E7F8C934E
:1057100080818F7E808310929D0208950F931F9346
:10572000CF93DF930E94E22B0E94EA2BC8EDD0E0DA
:1057300088818F77888388818068888388818F7D3E
:10574000888319BC10929E0210929A0210929C02B9
:1057500010929B0200EE10E0F80180818B7F808325
:1057600088818160888342E060E080E00E94EE2AC8
:10577000E1EEF0E080818E7F8083E2EEF0E08081D8
:1057800081608083808188608083F80180818E7F42
:105790008083888180618883DF91CF911F910F91F1
:1057A0000895E8EDF0E080818F7E8083E7EDF0E002
:1057B00080818160808384E082BF81E080939D024C
:1057C0000C948E2BE8EDF0E080818E7F8083109228
:1057D000E20008951092DA001092E10008951F92FD
:1057E0000F920FB60F9211242F933F934F935F9315
:1057F0006F937F938F939F93AF93BF93EF93FF9399
:105800008091E10082FF0BC08091E20082FF07C01F
:105810008091E1008B7F8093E1000E94532E809164
:10582000DA0080FF1FC08091D80080FF1BC08091EC
:10583000DA008E7F8093DA008091D90080FF0DC05E
:1058400080E189BD82E189BD09B400FEFDCF81E020
:1058500080939E020E943E2805C019BC10929E02B1
:105860000E944C288091E10080FF19C08091E200E5
:1058700080FF15C08091E2008E7F8093E2008091CE
:10588000E20080618093E2008091D8008062809382
:10589000D80019BC85E080939E020E945028809118
:1058A000E10084FF30C08091E20084FF2CC080E1E1
:1058B00089BD82E189BD09B400FEFDCF8091D80089
:1058C0008F7D8093D8008091E1008F7E8093E100EE
:1058D0008091E2008F7E8093E2008091E2008160FF
:1058E0008093E20080919A02882311F084E007C03F
:1058F0008091E30087FF02C083E001C081E08093D4
:105900009E020E9451288091E10083FF29C080916E
:10591000E20083FF25C08091E100877F8093E10052
:1059200082E080939E0210929A028091E1008E7F25
:105930008093E1008091E2008E7F8093E20080916D
:10594000E20080618093E20042E060E080E00E943B
:10595000EE2A8091F00088608093F0000E944F282A
:10596000FF91EF91BF91AF919F918F917F916F9137
:105970005F914F913F912F910F900FBE0F901F900D
:1059800018951F920F920FB60F9211242F933F93E9
:105990004F935F936F937F938F939F93AF93BF9337
:1059A000CF93EF93FF93C091E900CF708091EC000B
:1059B0001092E9008091F000877F8093F000789446
:1059C0000E94FD2C1092E9008091F0008860809385
:1059D000F000C093E900FF91EF91CF91BF91AF919B
:1059E0009F918F917F916F915F914F913F912F91F7
:1059F0000F900FBE0F901F9018951F93CF93DF93BA
:105A0000CDB7DEB7AA970FB6F894DEBF0FBECDBFF5
:105A1000EFE9F2E08091F100819322E0E73AF207AA
:105A2000C9F70E9467288091E80083FF24C1209174
:105A30009F023091A002832F90E08A30910508F0F8
:105A40001AC1FC01EE55FF4F0C94D931203821F0DA
:105A5000223809F010C108C080919B0290919C02ED
:105A6000992389F082600FC08091A3028F708730E4
:105A700008F001C18093E9008091EB0085FB882745
:105A800080F91092E9009091E800977F9093E800E8
:105A90008093F1001092F100CCC0822F8D7F09F02D
:105AA000EAC0222319F0223061F0E5C08091A10202
:105AB000813009F0E0C0333009F080E080939C022F
:105AC0002AC08091A102811126C02091A3022F70CB
:105AD0008FEF820F863008F0CEC02093E9008091CE
