:100000000C94DC050C9423060C9423060C94230614
:100010000C9423060C9423060C9423060C942306BC
:100020000C9423060C9423060C94A01F0C947320AC
:100030000C9416170C9423060C9423060C94230698
:100040000C9423060C9423060C9423060C9423068C
:100050000C9423060C947C170C9423060C94230612
:100060000C9423060C9423060C9423060C9423066C
:100070000C9423060C9423060C9423060C9423065C
:100080000C9423060C9423060C9423060C9423064C
:100090000C9423060C9423060C9423060C9423063C
:1000A0000C9423060C9423060C94230629001E00AE
:1000B0001F0020002100220023002400250026002C
:1000C00027002D002E0035002A002B000000140010
:1000D0001A000800150017001C0018000C00120080
:1000E00013002F003000310039000000040016001A
:1000F000070009000A000B000D000E000F0033007E
:100100003400280000003470E1001D001B000600D0
:100110001900050011001000360037000000E10052
:1001200052004C00E00034700000E2002C0000009F
:10013000007000002C000000E600347050005100F8
:100140004F00010001000100010001000100010059
:100150000100010001000100010001000100010097
:100160000100000001000100010001000100010088
:100170000100010001000100010001000100010077
:100180000000010001000100010001000100010068
:100190000100010001000100010000000100010058
:1001A0000100010001000100010001000100010047
:1001B0000100000001000100010001000100000039
:1001C000010001000000010000000100000001002A
:1001D0000100010001000100010001000100010017
:1001E0000100010001000100010001000100010007
:1001F00001000100010001000000010001000100F8
:1002000001000100010001000100010001000100E6
:1002100001000100010000000100010001000100D7
:1002200001000100010001000100010001000100C6
:1002300000000100010001000100010001000100B7
:1002400001000100010001000000010001000100A7
:100250000100010000000100010000000100000099
:100260000100000001000100010001000100010087
:100270000100010001000100010001000100010076
:100280000100010001000100010001000100000067
:100290000100010001000100010001000100010056
:1002A0000100010001000100010001000000010047
:1002B0000100010001000100010001000100010036
:1002C0000100010001000000010001000100010027
:1002D0000100010001000100010001000100000017
:1002E0000100010001000100010000000100010007
:1002F00000000100000001000000010001000100F9
:1003000001000100010001000100010001000100E5
:1003100001000100010001000100010001000100D5
:1003200001000100000001000100010001000100C6
:1003300001000100010001000100010001000100B5
:1003400001000000010001000100010001000100A6
:100350000100010001000100010001000000010096
:100360000100010001000100010001000100010085
:100370000100010000000100010001000100010076
:100380000000010001000000010000000100000069
:100390000100010001000100010001000100010055
:1003A0000100010001000100010001000100010045
:1003B0000100010001000100010000000100010036
:1003C0000100010001000100010001000100010025
:1003D0000100010001000100000001000100010016
:1003E0000100010001000100010001000100010005
:1003F00001000000010001000100010001000100F6
:1004000001000100010001000100000001000100E5
:1004100001000100010000000100010000000100D6
:1004200000000100000001000100010001000100C6
:1004300001000100010001000100010001000100B4
:1004400001000100010001000100010001000100A4
:100450000000010001000100010001000100010095
:100460000100010001000100010001000100000085
:100470000100010001000100010001000100010074
:100480000100010001000100000001000100010065
:100490000100010001000100010001000100010054
:1004A0000000010001000100010001000000010046
:1004B0000100000001000000010000000100010037
:1004C0000100010001000100010001000100010024
:1004D0000100010001000100010001000100010014
:1004E0000100010001000000010001000100010005
:1004F00001000100010001000100010001000100F4
:1005000001000100000001000100010001000100E4
:1005100001000100010001000100010001000000D4
:1005200001000100010001000100010001000100C3
:1005300001000100010000000100010001000100B4
:1005400001000000010001000000010000000100A6
:100550000000010001000100010001000100010094
:100560000100010001000100010001000100010083
:100570000100010001000100010001000000010074
:100580000100010001000100010001000100010063
:100590000100010001000100010000000100010054
:1005A0000100010001000100010001000100010043
:1005B0000100010000000100010001000100010034
:1005C0000100010001000100010001000000010024
:1005D0000100010001000100000001000100000015
:1005E0000100000001000000010001000100010005
:1005F00001000100010001000100010001000100F3
:1006000001000100010001000100010001000100E2
:1006100001000000010001000100010001000100D3
:1006200001000100010001000100010001000100C2
:1006300000000100010001000100010001000100B3
:1006400001000100010001000100000001000100A3
:100650000100010001000100010001000100010092
:100660000100000001000100010001000100000084
:100670000100010000000100000001000000010075
:100680000100010001000100010001000100010062
:100690000100010001000100010001000100010052
:1006A0000100010001000100000001000100010043
:1006B0000100010001000100010001000100010032
:1006C0000100010001000000010001000100010023
:1006D0000100010001000100010001000100010012
:1006E0000000010001000100010001000100010003
:1006F00001000100010001000000010001000100F3
:1007000001000100000001000100000001000000E4
:1007100001000000010001000100010001000100D2
:1007200001000100010001000100010001000100C1
:1007300001000100010001000100010001000000B2
:1007400001000100010001000100010001000100A1
:100750000100010001000100010001000000010092
:100760000100010001000100010001000100010081
:100770000100010001000000010001000100010072
:100780000100010001000100010001000100000062
:100790000100010001000100010000000100010052
:1007A0000000010000000100000001000100010044
:1007B0000100010001000100010001000100010031
:1007C0000100010001000100010001000100010021
:1007D0000100010000000100010001000100010012
:1007E0000100010001000100010001000100010001
:1007F00001000000010001000100010001000100F2
:1008000001000100010001000100010000000100E1
:1008100001000100010001000100010001000100D0
:1008200001000100000001000100010001000100C1
:1008300000000100010000000100000001000000B4
:1008400001000100010001000100010001000100A0
:100850000100010001000100010001000100010090
:100860000100010001000100010000000100010081
:100870000100010001000100010001000100010070
:100880000100010001000100000001000100010061
:100890000100010001000100010001000100010050
:1008A0000100000001000100010001000100010041
:1008B0000100010001000100010000000100010031
:1008C0000100010001000000010001000000010022
:1008D0000000010000000100010001000100010012
:1008E0000100010001000100010001000100010000
:1008F00001000100010001000100010001000100F0
:1009000000000100010001000100010001000100E0
:1009100001000100010001000100010001000000D0
:1009200001000100010001000100010001000100BF
:1009300001000100010001000000010001000100B0
:10094000010001000100010001000100010001009F
:100950000000010001000100010001000000010091
:100960000100000001000000010000000100010082
:10097000010001000100010001000100010001006F
:10098000010001000100010001000100010001005F
:100990000100010001000000010001000100010050
:1009A000010001000100010001000100010001003F
:1009B0000100010000000100010001000100010030
:1009C0000100010001000100010001000100000020
:1009D000010001000100010001000100010001000F
:1009E0000100010001000000010001000100010000
:1009F00001000000010001000000010000000100F2
:100A000000000100010001000100010012036B0061
:100A10006500790062006F006100720064000000F0
:100A2000160371006D006B006200750069006C00B8
:100A300064006500720000000403090409026D00EF
:100A4000040100A0FA0904000001030101000921CA
:100A5000110100012240000705810308000A090472
:100A600001000103010200092111010001224D00D2
:100A70000705820308000A090402000103000000C0
:100A80000921110100012236000705830308000A2D
:100A900009040300010300000009211101000122E3
:100AA0003900070584032000011201100100000035
:100AB00008EDFE606001000102000105010906A1C8
:100AC00001050719E029E715002501950875018141
:100AD0000205081901290595057501910295017511
:100AE0000391010507190029F71500250195F875EF
:100AF000018102C005010980A101850216010026BD
:100B000003001A81002A8300751095018100C00539
:100B10000C0901A1018503160100269C021A01009F
:100B20002A9C02751095018100C005010902A101EE
:100B30000901A100050919012905150025019505DF
:100B400075018102950175038101050109300931A3
:100B50001581257F95027508810609381581257F45
:100B6000950175088106050C0A38021581257F95C7
:100B70000175088106C0C005010906A10105071914
:100B8000E029E71500250195087501810295017599
:100B9000088101050819012905950575019102953E
:100BA00001750391010507190029FF150026FF00B3
:100BB000950675088100C00011241FBECFEFDAE052
:100BC000DEBFCDBF04B603FE27C080914E029091D8
:100BD0004F02A0915002B09151028730904BA74034
:100BE000B04BD1F410924E0210924F02109250026C
:100BF0001092510214BE84B7877F84BF0FB6F89459
:100C0000A8958091600088618093600010926000D8
:100C10000FBEE0E0F8E3099511E0A0E0B1E0ECEFF1
:100C2000F7E402C005900D92AC33B107D9F722E08A
:100C3000ACE3B1E001C01D92AE34B207E1F70E940F
:100C4000EF1C0C94AD230C94000090E080E008951C
:100C50000895089581E00895089581E008950C9421
:100C60002A060E94C90F2FEF84E39CE021508040A8
:100C70009040E1F700C000000C949F17FF920F9383
:100C80001F93CF93DF938C01FC01C081D1818091B0
:100C9000760181113FC082818823B9F1CE010E9483
:100CA000F914F82E682FCE010E94A514BE018F2DD5
:100CB0000E947307EC01B8010E942F06882309F4F3
:100CC0004AC0B801CE010E947F09882309F443C0BD
:100CD000C531F0E7DF0718F5C23080E7D80708F024
:100CE0004BC0C115E0E7DE0789F1C130D047D1F133
:100CF00081E080933E0180933F01C801DF91CF9155
:100D00001F910F91FF900C942D06CE010E94D114DB
:100D1000F82ECCCFCE010E94F914BE01C9CFCC333E
:100D200080E7D80709F49AC0CD33D04709F7F80116
:100D30008281882309F4B9C010923F010E944617AE
:100D400090933D0180933C0180E295C0F80182813F
:100D500081110E94310680E0DF91CF911F910F91A8
:100D6000FF900895F80182818823A9F380910E02F3
:100D7000816080930E02EFCFF8018281882309F40D
:100D8000BCCF0E94A716811102C00E948D160E943E
:100D9000C41690E09093400280933F02FE01E3501E
:100DA000F04780913F028160E231F10538F4E1556E
:100DB000FC4D0C945D2380913F02826080933F0242
:100DC00080913F020E94C8160E94C90FC4CF809133
:100DD0003F028460F3CF80913F028860EFCF809123
:100DE0003F028061EBCF80913F028062E7CF80912C
:100DF0003F028064E3CF80913F028068DFCF809123
:100E00003F028C60DBCF80913F028E7FD7CF8091F5
:100E10003F028D7FD3CF80913F028B7FCFCF8091D8
:100E20003F02877FCBCF80913F028F7EC7CF8091DB
:100E30003F028F7DC3CF80913F028F7BBFCF8091D8
:100E40003F028F77BBCF80913F02837FB7CF9091D6
:100E50003F02892F97FB87F98058B0CFF801828134
:100E6000882361F010923E010E94461790933D0145
:100E700080933C0182E00E947F0D6DCF80913E0106
:100E800081110FC080913C0190913D010E94521749
:100E9000883C910530F486E20E94540C86E20E9460
:100EA000300D82E00E94860D56CF80913F01811166
:100EB0000FC080913C0190913D010E945217883CE7
:100EC000910530F487E20E94540C87E20E94300DB5
:100ED00080E2E8CF0C94CE090C94D0090C942C0637
:100EE0000C946E070895972F70E02FE0929F600D8D
:100EF000711D1124FB019BE4899FE00DF11D11245C
:100F0000EE0FFF1FE455FF4F859194910895FC016A
:100F1000EE0FFF1FE45FF54F8591949108950E94B5
:100F200073070E940309811520E4920708F08FC01F
:100F3000811540E3940708F0ECC0803E910508F06D
:100F400073C0803C910508F0D0C0883A910590F4B8
:100F5000853A910508F0CEC08130910509F470C042
:100F6000009709F46DC08430910508F069C090E0E5
:100F700080E008958D3B9105D0F7883A910509F4FA
:100F800003C1893A910509F402C18A3A910509F42D
:100F900001C18B3A910509F400C18C3A910509F41D
:100FA000FFC08B3B910509F4FEC08C3B910509F411
:100FB000FDC08D3A910509F4FCC0803B910509F410
:100FC000FBC08E3A910509F4FAC08F3A910509F4F5
:100FD000F9C0813B910509F4F8C0823B910509F401
:100FE000F7C0833B910509F4F6C0843B910509F4F1
:100FF000F5C0853B910509F4F4C0863B910509F4E1
:10100000F3C0873B910509F4F2C0883B910509F4D0
:10101000F1C0893B910509F4F0C08A3B910509F4C0
:10102000EFC080E094E408958F3F910509F048F403
:10103000803F910508F069C0883E910508F097CF80
:101040000895811560E2960708F061C00895811542
:1010500073E5970770F5811522E5920708F064C0E3
:10106000811541E5940708F05AC0811560E596079F
:1010700008F452C09C0154E0369527955A95E1F743
:10108000922F9370282F26952695237070E2279F24
:1010900090011124392B837041E050E0BA0102C065
:1010A000660F771F8A95E2F7CB01822B932B9C6802
:1010B0000895811575E5970750F4811524E5920789
:1010C00008F443C0982F8827846F906A089581158B
:1010D00046E5940708F44DC09C0130569F702115D9
:1010E000304108F044CF90620895805C91090E94DD
:1010F00087070895853A910509F440C0863A91051D
:1011000009F03FC082E890E40895906508959F70CB
:10111000EECF9927906C08959F70906A0895982F4C
:101120008827816F906A0895AC014370552721E0AC
:1011300030E002C0220F331F4A95E2F7869586956C
:1011400070E2879FC0011124B0CFAC0143705527D6
:1011500021E030E002C0220F331F4A95E2F7869566
:10116000869540E2849FC0011124822B932B9A68BC
:101170000895982F882788279F71B5CF81E890E43C
:10118000089583E890E4089582EE94E4089589EE4A
:1011900094E408958AEE94E4089585EB94E4089528
:1011A00086EB94E4089583EB94E4089584EB94E44F
:1011B000089587EB94E408958CEC94E408958DEC05
:1011C00094E4089583E895E408958AE895E4089501
:1011D00082E995E4089584E995E4089581E296E42E
:1011E000089583E296E4089584E296E4089585E202
:1011F00096E4089586E296E4089587E296E40895D9
:101200008AE296E41DCF8238910549F1B0F481332A
:10121000910509F462C048F48932910509F456C079
:101220008A32910509F460C008958533910509F467
:1012300046C08933910599F00895833E910531F1B7
:1012400038F4803E910591F0823E9105B1F0089509
:10125000863E910521F1873E910551F10895209137
:101260003F022370D9F080EE90E0089520913F0274
:1012700020FF14C089E390E0089520913F0222FFEF
:101280000DC024FD09C083EE90E0089520913F0237
:1012900022FD31C024FF02C090E080E0089520913B
:1012A0003F0223FFFBCF24FDF7CF87EE90E00895A8
:1012B00020913F0223FFEECF86EE90E0089520912B
:1012C0003F0225FFEBCF89E290E0089520913F0295
:1012D00025FFE4CF85E390E0089520913F0226FFAB
:1012E000DDCF8AE290E0089520913F0226FFD6CF1D
:1012F00081E390E0089582EE90E0089508950F93C1
:101300001F93CF938C01FB018281811106C0C1E044
:101310008C2FCF911F910F910895C0914D01C11154
:1013200025C00531104799F70E947E0981E080931E
:101330004D010E94461790934C0180934B011092EF
:10134000400110924201109241011092440110920A
:1013500043011092460110924501109248011092EB
:10136000470110924A0110924901D2CF80914B015E
:1013700090914C010E945217883C910540F6809153
:101380004001E82FF0E0EE0FFF1FEF5BFE4F1183EF
:1013900000838F5F80934001C0E0BACF0C94280691
:1013A0000C942906CF93DF9385B7806885BF85B7F6
:1013B000806885BFA2E2B1E047E251E0C1E0D0E041
:1013C0008D91E82FE295EF70F0E061A18F709E01A2
:1013D00001C0220F8A95EAF7922F9095962391A348
:1013E00082A1822B82A34A175B0751F7A3E1B1E0E8
:1013F00061E070E08D91E82FE295EF70F0E041A19F
:101400008F709B0101C0220F8A95EAF7922F909569
:10141000942391A382A1822B82A381E0A232B807F8
:1014200049F7109259011092580110924F011092F1
:101430004E0110925B0110925A01109251011092CC
:10144000500110925D0110925C01109253011092B4
:10145000520110925F0110925E011092550110929C
:101460005401109261011092600110925701109284
:101470005601DF91CF910C946A074F925F927F9251
:101480008F929F92AF92BF92CF92DF92EF92FF9294
:101490000F931F93CF93DF939EE4492E91E0592E33
:1014A00022E2E22E21E0F22E01E010E09924939452
:1014B000E201A990B9902E01DE011E921E92F70161
:1014C00081917F01E82FE295EF70F0E091A18F709C
:1014D000980101C0220F8A95EAF7892F822B81A3F8
:1014E00082A1822E8094882182A380EA8A95F1F7D6
:1014F00083E1C82E81E0D82E90E080E0E60179916A
:101500006E01472F42954F7050E0EA0178A04D914F
:101510005C9111977F70E80102C0CC0FDD1F7A95B6
:10152000E2F7BE01672109F072C0B801082E02C0BF
:10153000660F771F0A94E2F7462B572B11965C93A0
:101540004E9301968F309105C9F681A1882281A220
:1015500082A1282B22A38D919C91A816B90641F057
:10156000909262010E9446179093640180936301F8
:10157000D8E54D16D1E05D0609F09ACF8091620161
:10158000882391F180916301909164010E94521728
:10159000069750F180914E0190914F01909359011F
:1015A00080935801809150019091510190935B017B
:1015B00080935A01809152019091530190935D0163
:1015C00080935C01809154019091550190935F014B
:1015D00080935E0180915601909157019093610133
:1015E00080936001109262010E946C0781E0DF919C
:1015F000CF911F910F91FF90EF90DF90CF90BF9010
:10160000AF909F908F907F905F904F90089570E083
:1016100060E092CFE82FF0E0EE0FFF1FE85AFE4F98
:10162000808191810895089590936A018093690162
:101630000895E0916901F0916A01309721F00190DD
:10164000F081E02D099480E00895E0916901F09126
:101650006A01309721F00280F381E02D099408950A
:10166000E0916901F0916A01309721F00480F581E1
:10167000E02D0994089520916701309168012817A1
:10168000390771F09093680180936701E0916901D7
:10169000F0916A01309721F00680F781E02D0994DE
:1016A000089520916501309166012817390771F07E
:1016B0009093660180936501E0916901F0916A0160
:1016C000309721F00084F185E02D09940895089564
:1016D0000C94670B0E943D170E94D2090C940C18C1
:1016E0005F926F927F928F929F92AF92BF92CF92B2
:1016F000DF92EF92FF920F931F93CF93DF93CDB7BB
:10170000DEB72A970FB6F894DEBF0FBECDBF0E949A
:101710003D0A9CE6A92E91E0B92E10E000E0882455
:101720008394912C502E802F0E940A0B7C01F5018E
:10173000C190D1905F01C816D90609F45EC08091AE
:101740000E0281FD0E94130B90E080E0CE24DF2486
:101750003401082E02C0660C771C0A94E2F7960149
:1017600026213721232B09F443C08E835F82E62094
:10177000F72081E0EF2809F480E088870E9446176F
:101780008160782F9A8789874E815F8168858A85F5
:101790000E942A0C000F111FF801E459FE4F8081AE
:1017A000918168267926718260820E948A1A0E943D
:1017B000190B90916B018917B9F10E94190B809355
:1017C0006B012A960FB6F894DEBF0FBECDBFDF9136
:1017D000CF911F910F91FF90EF90DF90CF90BF902E
:1017E000AF909F908F907F906F905F900C94700758
:1017F00001968F30910509F0ABCF0F5F1F4F053079
:10180000110509F08FCF8FEF89838A831B820E9495
:1018100046178160782F9D838C8349815A816B8123
:101820008D810E942A0CC1CF2A960FB6F894DEBF94
:101830000FBECDBFDF91CF911F910F91FF90EF9021
:10184000DF90CF90BF90AF909F908F907F906F90E0
:101850005F900895CF93DF93CDB7DEB72B970FB688
:10186000F894DEBF0FBECDBF4F83588769877A8754
:101870008B871E821D8285E0FE013796DE01119660
:1018800001900D928A95E1F749815A816B817C81A3
:101890008D819E812B960FB6F894DEBF0FBECDBF13
:1018A000DF91CF910C945912882309F4D8C0823863
:1018B00071F40E94190B81FDD2C089E30E94991531
:1018C0000E945E1689E30E94D6150C945E1683383A
:1018D00059F40E94190B80FDC2C083E50E9499153E
:1018E0000E945E1683E5EFCF843859F40E94190BED
:1018F00082FDB5C087E40E9499150E945E1687E4B8
:10190000E2CF9CEF980F913A18F40E949915DDCF21
:1019100090E2980F983050F4877091E001C0990FD1
:101920008A95EAF7892F0E941816CFCF9BE5980F6A
:10193000933070F4853A31F0863A39F083E890E0DC
:101940000C943B0B81E890E0FBCF82E890E0F8CF6D
:1019500098E5980F953108F082C0883A09F440C0A4
:10196000893A09F440C08A3A09F440C08B3A09F434
:1019700040C08C3A09F440C08B3B09F440C08C3B1A
:1019800009F440C08D3A09F440C0803B09F440C0DE
:101990008E3A09F440C08F3A09F440C0813B09F403
:1019A00040C0823B09F440C0833B09F440C0843B03
:1019B00009F440C0853B09F440C0863B09F440C0AF
:1019C000873B09F440C0883B09F440C0893B09F4D7
:1019D00040C08A3B09F440C090E080E00C94510B79
:1019E00082EE90E0FBCF89EE90E0F8CF8AEE90E0B7
:1019F000F5CF85EB90E0F2CF86EB90E0EFCF83EB75
:101A000090E0ECCF84EB90E0E9CF87EB90E0E6CF7D
:101A10008CEC90E0E3CF8DEC90E0E0CF83E891E0B8
:101A2000DDCF8AE891E0DACF82E991E0D7CF84E98F
:101A300091E0D4CF81E292E0D1CF83E292E0CECFA9
:101A400084E292E0CBCF85E292E0C8CF86E292E0DA
:101A5000C5CF87E292E0C2CF8AE292E0BFCF08957D
:101A6000882309F44BC0823871F40E94190B81FF5E
:101A700045C089E30E9499150E945E1689E30E9481
:101A8000D6150C945E16833859F40E94190B80FF0A
:101A900035C083E50E9499150E945E1683E5EFCF5D
:101AA000843859F40E94190B82FF28C087E40E94F1
:101AB00099150E945E1687E4E2CF9CEF980F913A49
:101AC000F0F290E2980F983050F4877091E001C0E6
:101AD000990F8A95EAF7892F0E941E16D2CF9BE5AF
:101AE000980F933020F490E080E00C943B0B885AE0
:101AF000853120F490E080E00C94510B0895882308
:101B000021F00E9418160C945E160895882321F087
:101B10000E941E160C945E1608958F929F92AF92AB
:101B2000BF92DF92EF92FF920F931F93CF93DF93B9
:101B30007C01D62FC72FFC01058102950F70128101
:101B400011110E9435160E949215D82E882371F02B
:101B50001123A1F080E28D0F883080F082E00E9496
:101B60007C150E94921591E0D82ED926EC2FE29593
:101B7000EF70F0E0EF53FC4D0C945D23D12CF6CFC9
:101B80000C2F0F70C07F11F00295007F1123A9F078
:101B9000002359F080E28D0F883010F0D11109C078
:101BA000802F0E9418160E945E168D2F0E94540CE2
:101BB00014C0802F0E942816F6CF8D2F0E94300D62
:101BC000002359F080E28D0F883010F0D11124C02D
:101BD000802F0E941E160E945E16DD2009F48FC120
:101BE0000E946F1580FD8BC1F70112820E9469155A
:101BF0000E94E913C7010E948B0F0E946915DF91B3
:101C0000CF911F910F91FF90EF90DF90BF90AF9019
:101C10009F908F900C940A14802F0E942E16DBCF79
:101C2000FC2FFF70BF2EC07FC03219F0B29480EF3E
:101C3000B822DD2369F0D13029F1112369F10023A5
:101C400059F0F701858180FFB0CF8F70858304C084
:101C5000112361F0011104C08B2D0E947F0DBDCFB7
:101C60008B2D0130D1F70E944816B7CF011106C065
:101C70000E944B168B2D0E94860DAFCF013009F4C8
:101C8000ACCFF6CF112321F0063008F0A6CFE4CF79
:101C9000053008F0A2CFEECF002361F38D2F0E9414
:101CA000300D9BCF8C2F86958695837069F081309F
:101CB00009F093CF8D2F9C2F9370111102C090E0EB
:101CC00080E00E94510B89CF8D2F9C2F93701111B2
:101CD00002C090E080E00E943B0B7FCF8D2F11234C
:101CE00029F00E9498190E947F1A77CF0E94001A4B
:101CF000FACF8C2F837009F047C011116ECF2D2FB2
:101D0000229526952770220F220F6D2F6F70862E39
:101D1000912CB12CA12C022E04C0880C991CAA1C59
:101D2000BB1C0A94D2F760E070E0CB01D4FF0FC077
:101D30006FE070E080E090E004C0660F771F881FBE
:101D4000991F2A95D2F76095709580959095C695C4
:101D5000C695C370C23051F080F4682979298A2968
:101D60009B29C13071F00E94921337CF68297929DD
:101D70008A299B290E94AE1330CF0E949213C5017D
:101D8000B4010E94761329CF8695112311F08C2F70
:101D90008170882309F421CF2D2F22952695277055
:101DA000220F220F6D2F6F70862E912CB12CA12C3B
:101DB000022E04C0880C991CAA1CBB1C0A94D2F7E2
:101DC00060E070E0CB01D4FF0FC06FE070E080E016
:101DD00090E004C0660F771F881F991F2A95D2F7DD
:101DE0006095709580959095C695C695C370C230E4
:101DF00051F080F4682979298A299B29C13071F032
:101E00000E946C14EACE682979298A299B290E94AC
:101E10008814E3CE0E946C14C501B4010E945014D2
:101E2000DCCEE0E2ED0FE53108F04DC0F0E0EF521E
:101E3000FC4D0C945D23DF708C2F8F71112321F0EA
:101E40000E94E9138D2F09CF0E940A148D2F13CF02
:101E5000112341F0053008F0C0CE8C2F8F710E9405
:101E60002F14BBCE063008F0B8CEF7CF8C2F8F7171
:101E7000112339F00E94E913B0CE8C2F8F711123FA
:101E8000C9F30E940A14A9CE112329F08C2F8F7157
:101E90000E94D413A2CE0E94CA139FCE112349F0F0
:101EA000CF718C2F0E94E91363E08C2F0E94731571
:101EB00094CE81E00E947C15023008F48ECE82E040
:101EC0000E947C158ACE112329F001116ECE8C2F31
:101ED0008F71D0CF0111E2CE8C2F8F71D2CF4C2FCA
:101EE0004F706D2FC7010E9425060E94F31275CE18
:101EF0004C2F4F706D2FC7010E9472076ECEDF917D
:101F0000CF911F910F91FF90EF90DF90BF90AF9016
:101F10009F908F9008950F931F93CF93DF93EC01C1
:101F20008B819C81892B29F08881998189238F3F1E
:101F300029F4DF91CF911F910F910895CE010E9456
:101F40003E068823B1F3688179818A810E94451514
:101F50008C010E94A4140E946B13B801CE01DF9182
:101F6000CF911F910F910C948D0D0E9435160E94F8
:101F700045160E940A160E945E160E942B1B0E94A4
:101F80007F1A90E080E00E943B0B90E080E00C9490
:101F9000510B0E9425160C94B50F0E943B15E92F9A
:101FA000E295EF70E250EE3070F4F0E0EA51FC4D53
:101FB0000C945D23803F19F020F4803E20F481E0F2
:101FC0000895843FE1F380E00895803EC0F3813FAF
:101FD000D1F7F5CF93FB882780F90895CF93DF934E
:101FE00000D000D00F92CDB7DEB70F900F900F90BA
:101FF0000F900F90DF91CF910895CF93DF9300D092
:1020000000D000D0CDB7DEB726960FB6F894DEBF6D
:102010000FBECDBFDF91CF9108951F93CF93DF9374
:10202000C091770116E0809178018C1304C0DF9194
:10203000CF911F910895D0E01C9FF0011D9FF00DDE
:102040001124E758FE4F4081518162817381848160
:1020500095810E94FD0F2196C770E5CF4091A9019F
:102060005091AA016091AB017091AC018091AD01DA
:102070009091AE010C94FD0F1F93CF93DF9380914D
:10208000AE01807FC1F48091AB018823A1F08091E3
:102090007701C09178016091A9017091AA014091E6
:1020A000AC015091AD01D62FD723DA01A095B095A0
:1020B00016E0C81304C0DF91CF911F91089590E0FE
:1020C0004115510511F0DF3F31F401968770F1CFD2
:1020D0002A0F3B1F17C0189FF001199FF00D112404
:1020E000E758FE4F21812713F0CF20812613EDCF33
:1020F00022812111EACF238134812417350740F34F
:10210000241B350B283C310500F72091AE012F70C0
:1021100020612093AE0126E0289FF001299FF00D59
:102120001124E258FE4F80818F708061808389EA9C
:1021300091E00E948B0FDF91CF911F910C940D10B5
:10214000BF92CF92DF92EF92FF920F931F93CF93A4
:10215000DF93CDB7DEB761970FB6F894DEBF0FBE41
:10216000CDBF8C0185E0F801DE011D9601900D9236
:102170008A95E1F7D8014C9111965C9111971296CE
:10218000EC9012978091AC019091AD01009709F409
:102190007FC12091A9013091AA01622F63236F3F73
:1021A00009F476C11396CD90DC90B090AB01BB20C2
:1021B00009F413C1C816D906D0F1F601E81BF90BD2
:1021C000CF01FF24F394883C910508F0F12C809115
:1021D000AE01982F907FFF2009F4B6C091117FC007
:1021E000FE2C351329C0241327C0E11025C08F70A1
:1021F00080618093AE010E942E1089EA91E00E94D6
:102200008B0F8091AE01D80115968C938F2D61961E
:102210000FB6F894DEBF0FBECDBFDF91CF911F91F7
:102220000F91FF90EF90DF90CF90BF900895809531
:1022300090958C0D9D1DC5CFCD2829F0852F842329
:102240008F3F09F033C180E0B82FB170DB2E80FFE3
:102250003CC0809177012091780136E0821315C04F
:102260004D875E878D859E850E943B15292F22957F
:102270002F702230F0F0243018F59F70F1F0F80143
:102280009581907FD1F4D12C1EC090E0389FF00151
:10229000399FF00D1124E758FE4F6181651306C088
:1022A0006081641303C06281E6120FC001968770DB
:1022B000D5CF9F7011F0882331F3805E883018F3FA
:1022C000C8010E948B0FFD2CA1CFEE2009F49ECFF8
:1022D0008091AE0181608093AE01F12C97CF3513D0
:1022E00006C0241304C0D801EE2009F49CC04D8719
:1022F0005E878D859E850E94CD0F882309F4D2C00C
:10230000EE2009F4CFC08091AE01803270F02091B0
:10231000A9013091AA0138872F831986DB86CA86E6
:102320008C87CE0107960E948B0F86E0F801A9EA00
:10233000B1E001900D928A95E1F70E943C100E9455
:102340002E10FF24F39462CF911115C07C2DD98AF1
:10235000C88A6E2D89890E94EE0F89EA91E00E9459
:102360008B0F86E0E9EAF1E0DF011D928A95E9F73B
:102370000E942E104BCF351312C0241310C0E11051
:102380000EC0F8018583C8010E948B0FE9EAF1E0D5
:1023900086E0DF011D928A95E9F7FB2C37CF4D8748
:1023A0005E878D859E850E94CD0F882309F47AC0B3
:1023B000EE2009F477C08091AE01803208F4B5CFE9
:1023C0002091A9013091AA013A8329831B82DD82E1
:1023D000CC828E83CE010196A6CFC816D90688F18D
:1023E000F601E81BF90BCF01F12C883C910508F0B0
:1023F00047C0FE2CEE2009F455C0351330C024131D
:102400002EC08091AE0180FD21C0982F907FF1F009
:10241000D80115968C931597903F39F0982F907F9F
:10242000905F8F70892B15968C93C8010E948B0F3B
:1024300086E0F801A9EAB1E001900D928A95E1F7F2
:1024400097CF809590958C0D9D1DCECF86E0F8019D
:10245000A9EAB1E001900D928A95E1F7D7CE4D87B8
:102460005E878D859E850E94CD0F81115ECF809104
:10247000AE0181608093AE01C8010E948B0FC6CE71
:102480007C2DD98AC88A6E2D89890E94EE0F69CF6A
:10249000EE2041F04D875E878D859E850E94CD0F91
:1024A000811143CFC8010E948B0F4BCF81E08E2555
:1024B000CBCE1F93CF93DF93CDB7DEB72C970FB65C
:1024C000F894DEBF0FBECDBF4F83588769877A87E8
:1024D0008B879C87CE0107960E94A010882369F005
:1024E0008A859B85892B39F04F815885842F8523D8
:1024F0008F3F09F071C016E05FC086E0FE0137969D
:10250000DE01119601900D928A95E1F78A859B85EF
:10251000892B89F388859F8189238F3F61F32091DF
:10252000780130E0C90101968770992740917701C1
:102530004817190671F40E94C90F10927801109281
:10254000770186E0E9EAF1E0DF011D928A95E9F77B
:10255000D2CF96E0929FD001939FB00D1124A7583F
:10256000BE4FFE01319601900D929A95E1F780934E
:1025700078010E940D10BFCF819FC00111248758A0
:102580009E4F0E94A0108823E9F0E09177011E9FE2
:10259000F0011124E758FE4F40815181628173811F
:1025A000848195810E94FD0F8091770190E00196D2
:1025B00087709927809377018091770190917801B6
:1025C0008913DACF2C960FB6F894DEBF0FBECDBFBD
:1025D000DF91CF911F91089569857A858B859C85C0
:1025E0000E94FD0F88CFEF92FF920F931F93CF931E
:1025F000DF938C01892B81F0F12CEE24E394E80128
:102600002196F8018491843770F4843008F05FC01B
:102610008130B1F08230A1F1DF91CF911F910F9104
:10262000FF90EF900895853709F44CC008F43DC041
:102630009CE7980F903780F78F770E94300D49C044
:102640000E5F1F4FFE01849190E2980F983060F466
:102650008770FE2D01C0FF0F8A95EAF78F2F0E9429
:1026600038160E945E1602C00E94540C8F2D8150B5
:1026700030F2EFE9FFE03197F1F700C00000F7CF4B
:102680000E5F1F4FFE01849190E2980F983050F436
:102690008770FE2D01C0FF0F8A95EAF78F2F0E94E9
:1026A0003E16DFCF0E94300DE1CF0E5F1F4FFE01BF
:1026B000C491C150D8F28FE99FE00197F1F700C0B3
:1026C0000000F7CF0E5F1F4FFE01F490CFCF0E94A6
:1026D000540C8E01CBCF08956093E5017093E60111
:1026E0008093E7019093E8010C94B50F0F931F932B
:1026F0000091E5011091E6012091E7013091E80198
:10270000DC01CB01802B912BA22BB32B8093E50115
:102710009093E601A093E701B093E8011F910F9118
:102720000C94B50F0F931F930091E5011091E601F2
:102730002091E7013091E801DC01CB018023912356
:10274000A223B3238093E5019093E601A093E701D0
:10275000B093E8011F910F910C94B50F0F931F9345
:102760000091E5011091E6012091E7013091E80127
:10277000DC01CB0180279127A227B3278093E501B5
:102780009093E601A093E701B093E8011F910F91A8
:102790000C94B50F1092E1011092E2011092E30146
:1027A0001092E4010C94B50F41E050E060E070E05D
:1027B00004C0440F551F661F771F8A95D2F74093B8
:1027C000E1015093E2016093E3017093E4010C9402
:1027D000B50F41E050E060E070E004C0440F551FC9
:1027E000661F771F8A95D2F78091E1019091E201EF
:1027F000A091E301B091E401842B952BA62BB72B7C
:102800008093E1019093E201A093E301B093E4018E
:102810000C94B50F41E050E060E070E004C0440F5C
:10282000551F661F771F8A95D2F740955095609582
:1028300070958091E1019091E201A091E301B09146
:10284000E40184239523A623B7238093E101909389
:10285000E201A093E301B093E4010C94B50F41E0D1
:1028600050E060E070E004C0440F551F661F771F02
:102870008A95D2F78091E1019091E201A091E30164
:10288000B091E40184279527A627B7278093E1011B
:102890009093E201A093E301B093E4010C94B50F8F
:1028A0000F931F930091E1011091E2012091E30148
:1028B0003091E401DC01CB01802B912BA22BB32BB7
:1028C0008093E1019093E201A093E301B093E401CE
:1028D0001F910F910C94B50F0F931F930091E1017D
:1028E0001091E2012091E3013091E401DC01CB0180
:1028F00080239123A223B3238093E1019093E201EB
:10290000A093E301B093E4011F910F910C94B50FD4
:102910000F931F930091E1011091E2012091E301D7
:102920003091E401DC01CB0180279127A227B32756
:102930008093E1019093E201A093E301B093E4015D
:102940001F910F910C94B50F08952FE0929F800D69
:102950001124982F977041E001C0440F9A95EAF72F
:1029600086958695869595E0899FF0011124E1551D
:10297000FE4F90E080E070E05191DF0111979B01E4
:10298000082E02C0369527950A94E2F7217021950A
:102990002527242325272C9301968530910561F75F
:1029A00008952FE0929F800D1124982F977086959F
:1029B0008695869525E0829FF0011124E155FE4F12
:1029C00050E040E080E0219130E0092E02C03695D1
:1029D00027950A94E2F721703327042E01C0220FB5
:1029E0000A94EAF7822B4F5F5F4F4530510559F744
:1029F0000895BF92CF92DF92EF92FF920F931F93B1
:102A0000CF93DF938C01C090E101D090E201E09080
:102A1000E301F090E4018091E5019091E601A0913D
:102A2000E701B091E801C82AD92AEA2AFB2ACFE1B6
:102A3000D0E0BC2ED701C6010C2E04C0B695A795D8
:102A4000979587950A94D2F780FD0EC0219788F755
:102A5000B12C8B2DDF91CF911F910F91FF90EF90B3
:102A6000DF90CF90BF900895B8018C2F0E948F0700
:102A7000019761F3EECFCF93DF93EC010E94F9143D
:102A8000BE01DF91CF910C948F071F93CF93DF93FB
:102A9000EB0190917601992331F0CB01DF91CF9139
:102AA0001F910C943B15882379F0CB010E94F914F7
:102AB000182F682FCE010E94A514BE01812FDF912F
:102AC000CF911F910C948F07CB010E94D114182F26
:102AD000F4CF8091E901859585958595089580913C
:102AE000E9018770089598E0899F90011124622B75
:102AF0006093E9010C94E9139091E9018095892391
:102B00008093E901282F277061F4282F082E000CEC
:102B1000330B9217130629F08595859585950C94AE
:102B20000A1408959091E901977081E009F480E01A
:102B30000895909112019923E1F090913F0297FF3F
:102B400018C0E82FE695E695E695EF3139F120912A
:102B5000000130910101E20FF32FF11D877021E098
:102B600030E001C0220F8A95EAF78181822B8183B0
:102B700008952091000130910101F90132969FEFF3
:102B800040E05191851751F09F3F19F4511101C058
:102B9000942F4F5F4E31A9F79F3F09F40895290FF5
:102BA000311D97FD3A95F9018283089590911201A4
:102BB0009923F1F090913F0297FF1AC0E82FE69514
:102BC000E695E695EF3129F1209100013091010160
:102BD000E20FF32FF11D282F277081E090E001C054
:102BE000880F2A95EAF7809591818923818308953A
:102BF0002091000130910101F9013296205E3F4F92
:102C00009191891303C0DF0111971C92E217F3071A
:102C1000B9F7089581E090E0E0910001F0910101A1
:102C2000E80FF91F1082019680329105A9F70895E7
:102C300090910D02892B80930D02089580959091BB
:102C40000D02982390930D02089510920D0208959D
:102C500090910C02892B80930C020895809590919D
:102C60000C02982390930C02089510920C02089580
:102C700090910B02892B80930B020895809590917F
:102C80000B02982390930B02089510920B02089563
:102C90008093EA0108951092EA01089520910001BD
:102CA00030910101F9013196205E3F4F80E0919112
:102CB00091118F5FE217F307D1F70895E0910001BA
:102CC000F091010180910D028083E0910001F0916B
:102CD0000101808190910C02892B8083E091000199
:102CE000F0910101808190910B02892B808390915A
:102CF000EA01992361F0E0910001F09101018081E6
:102D0000892B80830E944E1681111092EA018091D6
:102D10000001909101010C94250B6DEE7EEF90E087
:102D200080E00E94972360E082E090E00E9485238B
:102D300060E083E090E00E94852360E084E090E022
:102D40000E94852360E085E090E00C94852390E06C
:102D500080E00E947F2321E08D3E9E4F09F020E01D
:102D6000822F089582E090E00C947723682F82E010
:102D700090E00C94852383E090E00C947723682FF7
:102D800083E090E00C94852384E090E00C9477231A
:102D9000682F84E090E00C94852380914502843074
:102DA00039F110920F0288E190E020E40FB6F89418
:102DB000A895809360000FBE2093600080E00E9481
:102DC000700783B7817F846083BF83B7816083BFCF
:102DD0007894889583B78E7F83BF0FB6F894A895B3
:102DE00080916000886180936000109260000FBE47
:102DF000089508950895CF930E94F9160E943D0A00
:102E00000E94FA16C0E08C2F0E940A0B892B31F425
:102E1000CF5FC530C1F780E0CF91089581E0FCCF4E
:102E20000E94C90F0E94190B0C9470071F921FB6C5
:102E30001F9211248F939F93AF93BF9380910F02A2
:102E4000811113C080913B0290913C02A0913D0200
:102E5000B0913E024196A11DB11D80933B0290931B
:102E60003C02A0933D02B0933E02BF91AF919F916F
:102E70008F911F901FBE1F90189582E084BD93E034
:102E800095BD9AEF97BD80936E0008952FB7F89483
:102E900080913B0290913C02A0913D02B0913E0294
:102EA0002FBF0895CF92DF92EF92FF920F931F935F
:102EB0002FB7F89440913B0250913C0260913D0243
:102EC00070913E022FBF6A017B01EE24FF248C012A
:102ED00030E020E0C016D106E206F30650F0481BB1
:102EE000590BCA011F910F91FF90EF90DF90CF9087
:102EF000089541505109F3CF1F921FB61F9211241C
:102F00008F939F93AF93BF9380913B0290913C022C
:102F1000A0913D02B0913E020196A11DB11D80938A
:102F20003B0290933C02A0933D02B0933E02BF91BE
:102F3000AF919F918F911F901FBE1F9018950E9477
:102F4000251FF8942FEF87EA91E6215080409040AA
:102F5000E1F700C0000087E090EBDC0180934E02B7
:102F600090934F02A0935002B093510288E19CE0ED
:102F70000FB6F894A895809360000FBE9093600000
:102F8000FFCFAF92BF92CF92DF92EF92FF920F935B
:102F90001F93CF93C0E0CC24C394D12CE82EF12C06
:102FA0008C2F0E940A0B5C0110E000E0C601002E8D
:102FB00002C0880F991F0A94E2F78A219B21892B6E
:102FC00099F40F5F1F4F0F30110581F7CF5FC530A8
:102FD00039F780E0CF911F910F91FF90EF90DF9034
:102FE000CF90BF90AF900895602F7C2F80E00E941B
:102FF0007307E816F90629F781E0ECCFCF93C82FC5
:103000008CE20E94C117882321F08C2FCF910C9461
:10301000C11780E0CF910895CF930E94A716811128
:1030200002C00E948D16C5E608C00E943D0A8FE3CB
:103030009CE90197F1F700C00000C150B1F789E2A7
:103040000E94FE178111EFC08AE20E94FE178111D3
:103050000E948D1685E00E94FE1781110E949F1725
:103060000E94B21680930E0287E00E94FE1788230A
:1030700071F08BE10E94FE17882309F4B1C0909192
:103080000E02892F8D7F91FF826080930E028091C6
:103090000E020E94B6160E94C41690E09093400261
:1030A00080933F0280EE0E94FE17882341F09091AA
:1030B0003F02892F8E7F90FF816080933F0289E3DA
:1030C0000E94FE17882341F090913F02892F8D7F47
:1030D00091FF826080933F0282EE0E94FE17882358
:1030E00041F090913F02892F8B7F92FF8460809303
:1030F0003F0286EE0E94FE17882341F090913F0226
:10310000892F877F93FF886080933F0283EE0E9420
:10311000FE17882341F090913F02892F8F7E94FF04
:10312000806180933F0285E30E94FE17882341F06F
:1031300090913F02892F8F7D95FF806280933F029F
:1031400081E30E94FE17882341F090913F02892F6E
:103150008F7B96FF806480933F0281E10E94FE177F
:10316000882341F090913F02892F97FB87F980587F
:1031700080933F0280913F020E94C81687E20E941E
:10318000FE17C82F8EE10E94FE178111C2608FE1E9
:103190000E94FE178111C46080E20E94FE17811117
:1031A000C86081E20E94FE178111C06182E20E9424
:1031B000FE178111C06283E20E94FE178111C06474
:1031C00084E20E94FE17882341F1C0688C2F0E9480
:1031D000BF166C2F70E090E080E0CF910C946C13E0
:1031E0008EE00E94FE17882339F090910E02892FFD
:1031F0008B7F92FF846049CF80E10E94FE179091FF
:103200000E02882329F0892F877F93FF88603DCFA6
:10321000892F8E7F90FF816038CFC111D7CF0E9458
:10322000BB16682FD7CFCF9108958091120280FFEF
:1032300012C06091050185E0689FB0011124759569
:1032400067957595679560387105A8F561157105E5
:10325000A1F1862F089581FF09C06091050185E0E5
:10326000689FB001112475956795EDCF60910501B8
:1032700082FD0AC0809113028823D1F0909104014D
:1032800060910501891728F085E0689FB00111243D
:10329000DACF869FB001112485E0869F9001879F39
:1032A000300D1124692F70E0C9010E944923CBCF52
:1032B00065E070E0CECF8FE7089581E008958091BA
:1032C000120280FF0CC06091030170E07595679554
:1032D000759567956115710549F1862F089581FFF0
:1032E00006C06091030170E075956795F3CF60911A
:1032F000030182FD0BC0909113029923A1F060910C
:10330000020180910301961738F0682F70E0603851
:10331000710500F38FE70895899FC001112470E0C3
:103320000E944923F4CF61E070E0D7CF81E0089597
:10333000803F31F40E9415198195809316020895FB
:10334000813F19F40E941519F8CF823F31F40E9491
:1033500015198195809315020895833F19F40E94F1
:103360001519F8CF893F29F40E945F19809317023D
:1033700008958A3F21F40E945F198195F7CF8B3F12
:1033800031F40E945F1981958093180208958C3F53
:1033900019F40E945F19F8CF843F31F48091140230
:1033A0008160809314020895853F21F48091140276
:1033B0008260F7CF863F21F4809114028460F1CFC0
:1033C000873F21F4809114028860EBCF883F21F47D
:1033D000809114028061E5CF8D3F31F4809112021B
:1033E00081608093120208958E3F21F48091120231
:1033F0008260F7CF8F3FB9F7809112028460F1CFDE
:1034000090911502803F41F48091160287FD109241
:103410001602992371F00895813F29F480911602D4
:103420001816ACF3F6CF823F81F497FFF2CF1092DB
:1034300015028091160290911702892B9091180223
:10344000892B49F7109213020895833F19F4191636
:1034500074F3DFCF893F39F4809117021816CCF648
:1034600010921702D6CF8A3F29F48091170287FF66
:10347000D0CFF6CF8B3F39F48091180287FFC9CFA8
:1034800010921802C6CF8C3F29F4809118021816AA
:10349000BCF3BFCF843F31F4809114028E7F8093C0
:1034A0001402B7CF853F21F4809114028D7FF7CFAE
:1034B000863F21F4809114028B7FF1CF873F21F466
:1034C00080911402877FEBCF883F21F48091140212
:1034D0008F7EE5CF8D3F31F4809112028E7F8093F5
:1034E000120297CF8E3F21F4809112028D7FF7CF89
:1034F0008F3F09F08ECF809112028B7FF0CF84E155
:1035000092E00E94300B0E94461790931102809324
:10351000100208951F93CF93DF9380911002909132
:1035200011020E945217AC019091130220910601E2
:1035300030E0911106C0209107018AE0289F900198
:1035400011244217530778F020911502C0911602FA
:10355000D091170210911802211109C08C2F8D2BC8
:10356000812B09F074C0DF91CF911F9108959F3F87
:1035700019F09F5F90931302121624F40E941519FC
:10358000809315028091150287FF05C00E941519CE
:103590008195809315021C1624F40E9415198093BE
:1035A00016028091160287FF05C00E9415198195A9
:1035B0008093160260911502662331F1C0911602C4
:1035C000CC2311F1062E000C770B880B990B0E946F
:1035D000502223E333E343E35FE30E94B4220E94DB
:1035E0001822609315026C2FCC0F770B880B990B68
:1035F0000E94502223E333E343E35FE30E94B422BB
:103600000E941822609316021D1624F40E945F196E
:10361000809317028091170287FF05C00E945F19EF
:10362000819580931702111624F40E945F198093EC
:1036300018028091180287FF05C00E945F198195CA
:1036400080931802DF91CF911F910C947F1A9F3FB6
:1036500009F08FCFA0CF85E0E4E1F2E0DF011D9219
:103660008A95E9F710921302109212020895809140
:1036700039020895CF93DF9300D00F92CDB7DEB714
:103680009C0180914502843019F593E099833B8336
:103690002A839093E9008FEF9091E800815095FD87
:1036A00006C095ED9A95F1F700008111F5CF809154
:1036B000E80085FF0DC050E040E063E070E0CE011F
:1036C00001960E94971D8091E8008E778093E80014
:1036D0000F900F900F90DF91CF910895CF93DF93CC
:1036E00000D00F92CDB7DEB720914502243031F5DE
:1036F00022E02983805891099B838A8383E0809309
:10370000E9008FEF9091E800815095FD06C095ED9E
:103710009A95F1F700008111F5CF8091E80085FFBF
:103720000DC050E040E063E070E0CE0101960E94E1
:10373000971D8091E8008E778093E8000F900F909E
:103740000F90DF91CF9108959C01809145028430C4
:10375000F9F482E08093E9009FEF8091E8009150B6
:1037600085FD06C085ED8A95F1F700009111F5CF32
:103770008091E80085FF0CC050E040E065E070E01B
:10378000C9010E94971D8091E8008E778093E80020
:103790000895CF93DF93EC01809145028430F1F4DA
:1037A000909112019923E9F090913F0297FF19C07F
:1037B0008093E9008FEF9091E800815095FD06C05D
:1037C00095E19A95F1F700008111F5CF8091E8001D
:1037D00050E040E060E270E085FD1AC0DF91CF91DB
:1037E000089581E08093E9008FEF9091E800815087
:1037F00095FD06C095ED9A95F1F700008111F5CF82
:103800008091E80085FFEACF50E040E068E070E09A
:10381000CE010E94971D8091E8008E778093E8008A
:1038200080E2FE01A9E1B2E001900D928A95E1F7F4
:10383000D5CF80914402811109C00E94251F0E94AA
:10384000821F8091E20084608093E20008951092CC
:1038500044020895089508950C94101742E061EC15
:1038600081E00E94A31E42E061EC82E00E94A31E60
:1038700042E061EC83E00E94A31E42E261EC84E03E
:103880000C94A31E80914702833009F455C030F494
:10389000813071F1823009F491C008958A3009F4C1
:1038A0007DC08B3009F463C0893009F044C0809139
:1038B0004602813209F03FC080914A0290914B024A
:1038C000009711F00397B9F58091E800877F809306
:1038D000E8008091E80082FF2AC08091F100809387
:1038E00039028091E8008B778093E8000C94D71E12
:1038F00080914602813AF9F48091E800877F8093B5
:10390000E80080914A0290914B02892B61F460E2B9
:1039100089E192E070E00E94E61D8091E8008B77DB
:103920008093E800089560E090E080E0F3CF80911C
:1039300045028111CECF089580914602813AD9F790
:1039400080914A0290914B02892BA9F78091E8005F
:10395000877F8093E8008091E80080FFFCCF809112
:1039600012018093F1008091E8008E77BDCF8091A5
:103970004602813201F780914A0290914B02892BD5
:10398000D1F68091E800877F8093E8000E94D71EDF
:1039900080914802809312010C94C90F80914602D5
:1039A000813249F68091E800877F8093E8000E9489
:1039B000D71E8091490280933A0208958091460271
:1039C000813A09F0B8CF8091E800877F8093E800C2
:1039D0008091E80080FFFCCF80913A02C2CF84B78B
:1039E000877F84BF0FB6F894A895809160008861A6
:1039F00080936000109260000FBE80E880936100A9
:103A0000109261000E94680B0E94251F0E94821F75
:103A10008091E20084608093E20078940E94FC210F
:103A20000E946A0B88E091E00E94140B809145028D
:103A3000853019F00E94700BF9CF0E94CD1680914D
:103A40004302882399F30E94FB16882379F30E948E
:103A5000811DECCF292F33272330310521F168F464
:103A60002130310509F443C02230310509F444C046
:103A700090E080E030E020E026C02132310551F1B5
:103A800022323105A9F7643098F770E0FB01EE0FA0
:103A9000FF1FE55DFE4F20813181695D7E4FFB0197
:103AA000808190E010C099278130910581F00097C6
:103AB00029F00297E9F6ECE0FAE002C0E8E3FAE068
:103AC000849190E09F01FA01318320830895E0E220
:103AD000FAE0F6CF643060F6E62FF0E0EE0FFF1F5D
:103AE000ED5CFE4F2081318189E090E0ECCF82E1F6
:103AF00090E029EA3AE0E7CF8DE690E02CE33AE067
:103B0000E2CF80E189BD82E189BD09B400FEFDCF2D
:103B10008091D8008F7D8093D8008091E0008260F2
:103B20008093E0008091E00081FDFCCF0895AF928A
:103B3000BF92CF92DF92FF920F931F93CF93DF93A9
:103B40006C01EB018A010E94F61EF82E811123C040
:103B50000115110539F0F80180819181C81BD90B3D
:103B6000C80ED91EB12CA12C2097A9F08091E80095
:103B700085FD22C08091E8008E778093E8000115D2
:103B80001105A1F0F80180819181A80EB91EB182C2
:103B9000A08285E0F82E8F2DDF91CF911F910F919C
:103BA000FF90DF90CF90BF90AF9008950E94F61ED7
:103BB0008823D1F2F82EEFCFF60181916F01809327
:103BC000F1002197FFEFAF1ABF0ACECFFC01809121
:103BD0004C0290914D0286179707A0F06115710570
:103BE00029F49091E8009E779093E80090E06115A9
:103BF000710551F4911108C08091E80082FF34C032
:103C000080E00895BC01F2CF809145028823C1F184
:103C10008530C1F18091E80083FD30C08091E800DB
:103C200082FDEACF8091E80080FFE1CF8091F30030
:103C30002091F200382F6115710519F028303105F7
:103C400058F091E02830310509F090E02091E8002B
:103C50002E772093E800CBCF81918093F1006150C3
:103C600071092F5F3F4FE7CF80914502882341F0D4
:103C7000853041F08091E80083FFBECF81E0089558
:103C800082E0089583E00895FC0180914C029091B8
:103C90004D0286179707A0F06115710529F48091F0
:103CA000E8008E778093E80090E06115710551F48B
:103CB000911108C08091E80082FF35C080E008952E
:103CC000BC01F2CF809145028823C9F18530C9F14A
:103CD0008091E80083FD31C08091E80082FDEACF49
:103CE0008091E80080FFE1CF8091F3002091F20005
:103CF000382F6115710519F02830310558F091E021
:103D00002830310509F090E08091E8008E778093AB
:103D1000E800CBCF84918093F10031966150710916
:103D20002F5F3F4FE6CF80914502882341F08530D9
:103D300041F08091E80083FFBDCF81E0089582E0EB
:103D4000089583E00895982F973028F08F7080931E
:103D5000E90081E008959093E900242F762F50E048
:103D6000981731F07091EC002091ED005091F00027
:103D700021FD02C09F5FE8CF3091EB003E7F309382
:103D8000EB003091ED003D7F3093ED003091EB0082
:103D900031603093EB007093EC002093ED00509372
:103DA000F0002091EE0027FDE5CF80E0089580919E
:103DB000460287FF13C08091E80082FF06C0809111
:103DC000E8008B778093E80004C080914502811160
:103DD000F2CF0895809145028823D9F38091E800BD
:103DE00080FFF8CF8091E8008E77ECCF2091E4003F
:103DF0003091E50085E6A9019091EC0090FF06C0A6
:103E00009091E80090FF06C080E008959091E8004E
:103E100092FDFACF90914502992389F0953089F06F
:103E20009091EB0095FD0FC02091E4003091E500EA
:103E30004217530709F38150F1F684E0089582E0B8
:103E4000089583E0089581E008950E94931F0E94E1
:103E50009B1FE0EEF0E0808181608083E8EDF0E080
:103E600080818F77808319BCA7EDB0E08C918E7F25
:103E70008C9380818F7E80831092440208950F93EB
:103E80001F93CF93DF930E94931F0E949B1FC8ED47
:103E9000D0E088818F778883888180688883888153
:103EA0008F7D888319BC10924502109241021092B6
:103EB00043021092420200EE10E0F80180818B7FF5
:103EC000808388818160888342E060E080E00E9496
:103ED000A31EE1EEF0E080818E7F8083E2EEF0E0D1
:103EE000808181608083808188608083F801808107
:103EF0008E7F8083888180618883DF91CF911F913D
:103F00000F910895E8EDF0E080818F7E8083E7EDEA
:103F1000F0E080818160808384E082BF81E08093D3
:103F200044020C943F1FE8EDF0E080818E7F808397
:103F30001092E20008951092DA001092E1000895C4
:103F40001F920F920FB60F9211242F933F934F930E
:103F50005F936F937F938F939F93AF93BF93EF93F1
:103F6000FF938091E10082FF0BC08091E20082FF0D
:103F700007C08091E1008B7F8093E1000E94FB21CC
:103F80008091DA0080FF19C08091D80080FF15C0B1
:103F90008091DA008E7F8093DA008091D90080FFD3
:103FA00094C080E189BD82E189BD09B400FEFDCFE6
:103FB00081E0809345020E94191C8091E10080FFFE
:103FC00019C08091E20080FF15C08091E2008E7FD1
:103FD0008093E2008091E20080618093E200809112
:103FE000D80080628093D80019BC85E08093450298
:103FF0000E942B1C8091E10084FF29C08091E20087
:1040000084FF25C080E189BD82E189BD09B400FE3D
:10401000FDCF8091D8008F7D8093D8008091E10002
:104020008F7E8093E1008091E2008F7E8093E2009A
:104030008091E20081608093E200809141028823B8
:1040400009F449C084E0809345020E942C1C8091B1
:10405000E10083FF29C08091E20083FF25C08091A9
:10406000E100877F8093E10082E080934502109217
:1040700041028091E1008E7F8093E1008091E20017
:104080008E7F8093E2008091E20080618093E20065
:1040900042E060E080E00E94A31E8091F000886012
:1040A0008093F0000E942A1CFF91EF91BF91AF9185
:1040B0009F918F917F916F915F914F913F912F9140
:1040C0000F900FBE0F901F90189519BC10924502CB
:1040D0000E94271C72CF8091E30087FD02C081E01F
:1040E000B2CF83E0B0CF1F920F920FB60F92112480
:1040F0002F933F934F935F936F937F938F939F93F0
:10410000AF93BF93CF93EF93FF93C091E900CF702C
:104110008091EC001092E9008091F000877F8093FD
:10412000F00078940E94AF201092E9008091F00096
:1041300088608093F000C093E900FF91EF91CF91E8
:10414000BF91AF919F918F917F916F915F914F91AF
:104150003F912F910F900FBE0F901F9018951F93B6
:10416000CF93DF93CDB7DEB7AA970FB6F894DEBF33
:104170000FBECDBF86E492E02091F100FC012193B7
:10418000CF01F2E08E349F07B9F70E94421C809164
:10419000E80083FF82C080914602909147029A30E6
:1041A00008F07BC0E92FF0E0EC50FC4D0C945D234F
:1041B000803881F0823809F070C080914A028F7097
:1041C0008093E9008091EB0085FB882780F91092AD
:1041D000E90006C0809142029091430291118260F1
:1041E0009091E800977F9093E8008093F1001092FF
:1041F000F1008091E8008E77F9C0882309F4E6C0C9
:10420000823009F04AC0809148028111EAC0809151
:104210004A028F7009F441C08093E9002091EB00BD
:1042200020FFDFC0933031F48091EB0080628093F7
:10423000EB00D7C09091EB0090619093EB0021E0F0
:1042400030E001C0220F8A95EAF72093EA0010922D
:10425000EA008091EB008860EACF81111EC01091C6
:1042600048021F778091E3008078812B8093E300E0
:104270008091E800877F8093E8000E94D71E80919C
:10428000E80080FFFCCF8091E30080688093E3002A
:1042900082E0111183E0809345028091E80083FF62
:1042A0000AC08091E800877F8093E8008091EB004E
:1042B00080628093EB00AA960FB6F894DEBF0FBE23
:1042C000CDBFDF91CF911F9108958058823028F79C
:1042D00080914802909149028C3D23E09207A1F51C
:1042E00083E08A838AE289834FB7F894DE011396CC
:1042F00020E03EE051E2E32FF0E050935700E491DC
:1043000020FF03C0E295EF703F5FEF708E2F90E0CB
:10431000EA30C0F0C7968D939D932F5F243159F7F3
:104320004FBF8091E800877F8093E8006AE270E0E9
:10433000CE0101960E94E61D8091E8008B77809364
:10434000E800ABCFC096E7CFAE014F5F5F4F609103
:104350004A020E942A1DBC01892B09F49ECF90912C
:10436000E800977F9093E80089819A810E94441E1B
:10437000E3CF803809F091CF8091E800877F809368
:10438000E800809141028093F10033CF811185CF05
:1043900090914802923008F080CF8091E800877FAA
:1043A0008093E800909341020E94D71E80914102C1
:1043B000882311F084E005C08091E30087FDFACFE7
:1043C00081E0809345020E942E1C67CF80914802B5
:1043D000813009F062CF81E0933009F080E0809372
:1043E00043021092E9008091E800877F8093E80003
:1043F0000E94D71E52CF0895CF9380914502882303
:1044000099F0C091E900CF708091EC0080FD0EC062
:1044100080E0C82B1092E9008091E80083FD0E94A3
:10442000AF20CF70C093E900CF91089580E8F1CF1D
:104430000E941F226894B1110C94AE2208950E942C
:10444000932288F09F5798F0B92F9927B751B0F071
:10445000E1F0660F771F881F991F1AF0BA95C9F708
:1044600014C0B13091F00E94AD22B1E008950C94D7
:10447000AD22672F782F8827B85F39F0B93FCCF38A
:10448000869577956795B395D9F73EF49095809585
:10449000709561957F4F8F4F9F4F0895E89409C0A5
:1044A00097FB3EF490958095709561957F4F8F4F67
:1044B0009F4F9923A9F0F92F96E9BB279395F6957D
:1044C000879577956795B795F111F8CFFAF4BB0FFB
:1044D00011F460FF1BC06F5F7F4F8F4F9F4F16C05F
:1044E000882311F096E911C0772321F09EE8872FE9
:1044F000762F05C0662371F096E8862F70E060E0A5
:104500002AF09A95660F771F881FDAF7880F96951D
:10451000879597F9089557FD9058440F551F59F006
:104520005F3F71F04795880F97FB991F61F09F3FA0
:1045300079F087950895121613061406551FF2CFC9
:104540004695F1DF08C0161617061806991FF1CF19
:1045500086957105610508940895E894BB27662740
:104560007727CB0197F908950E94C7220C9438232E
:104570000E942A2338F00E94312320F0952311F065
:104580000C9421230C94272311240C94AE220E9416
:104590008B2270F3959FC1F3950F50E0551F629FDA
:1045A000F001729FBB27F00DB11D639FAA27F00D8C
:1045B000B11DAA1F649F6627B00DA11D661F829FB3
:1045C0002227B00DA11D621F739FB00DA11D621F98
:1045D000839FA00D611D221F749F3327A00D611DB5
:1045E000231F849F600D211D822F762F6A2F112497
:1045F0009F5750409AF0F1F088234AF0EE0FFF1FCA
:10460000BB1F661F771F881F91505040A9F79E3F20
:10461000510580F00C9421230C94AE225F3FE4F30B
:10462000983ED4F3869577956795B795F795E79576
:104630009F5FC1F7FE2B880F911D9695879597F97F
:10464000089597F99F6780E870E060E008959FEF14
:1046500080EC089500240A94161617061806090619
:10466000089500240A9412161306140605060895E8
:10467000092E0394000C11F4882352F0BB0F40F470
:10468000BF2B11F460FF04C06F5F7F4F8F4F9F4FB0
:10469000089597FB072E16F4009407D077FD09D0F4
:1046A0000E94632307FC05D03EF4909581959F4FAF
:1046B0000895709561957F4F0895EE0FFF1F059047
:1046C000F491E02D0994AA1BBB1B51E107C0AA1F5E
:1046D000BB1FA617B70710F0A61BB70B881F991FA3
:1046E0005A95A9F780959095BC01CD010895F99947
:1046F000FECF92BD81BDF89A992780B50895A8E1B3
:10470000B0E042E050E00C949F23262FF999FECFB1
:1047100092BD81BDF89A019700B4021639F01FBA14
:1047200020BD0FB6F894FA9AF99A0FBE0895019633
:10473000272F0E9486230C948523DC01CB01FC01EA
:10474000F999FECF06C0F2BDE1BDF89A319600B4EA
:104750000D9241505040B8F70895F894FFCFDB0612
:10476000E706EB06EF06F306F706FB06FF06030770
:1047700007070B070F07130717071B071F07230759
:104780002707C00DC00D100E100E520E6E0EED0D4F
:10479000ED0D790EED0D110F110F6F0FED0DED0DEC
:1047A000780F1B0F1B0F1B0F1B0F1B0F1B0F1B0F5C
:1047B0001B0F1B0F1B0F1B0F1B0F1B0F1B0F1B0FA9
:1047C0001B0F280F360F3D0F440F4E0FDA0FDA0F75
:1047D000E30FE30FE50FE30FE30FE30FDA0FDA0F59
:1047E000EA0FE30FE30FEA0FD820FD204D21FD2053
:0C47F0004D212D2165214D21B921C6214C
:1047FC00EB012808140A321E371BC91BA41B6E1BA5
:10480C003A1B013536376061626364656667909167
:10481C0092933031323334404D3639770B2A0BF4C6
:0C482C000ABB0A4E0A670A800A990A00BB
:0200000400807A
:04024E0000000000AC
:00000001FF
